{
  "contractName": "Accumulator",
  "abi": [
    {
      "inputs": [
        {
          "internalType": "contract Params",
          "name": "_params",
          "type": "address"
        }
      ],
      "stateMutability": "nonpayable",
      "type": "constructor"
    },
    {
      "anonymous": false,
      "inputs": [
        {
          "indexed": false,
          "internalType": "uint256",
          "name": "c",
          "type": "uint256"
        }
      ],
      "name": "revocation_complete",
      "type": "event"
    },
    {
      "anonymous": false,
      "inputs": [
        {
          "indexed": false,
          "internalType": "uint256[2]",
          "name": "W",
          "type": "uint256[2]"
        },
        {
          "indexed": false,
          "internalType": "uint256",
          "name": "request_id",
          "type": "uint256"
        },
        {
          "indexed": false,
          "internalType": "uint256",
          "name": "kr",
          "type": "uint256"
        },
        {
          "indexed": false,
          "internalType": "uint256",
          "name": "timestamp",
          "type": "uint256"
        }
      ],
      "name": "send_W_kr",
      "type": "event"
    },
    {
      "anonymous": false,
      "inputs": [
        {
          "indexed": false,
          "internalType": "uint256",
          "name": "d",
          "type": "uint256"
        },
        {
          "indexed": false,
          "internalType": "uint256",
          "name": "e",
          "type": "uint256"
        }
      ],
      "name": "send_d_and_e",
      "type": "event"
    },
    {
      "anonymous": false,
      "inputs": [
        {
          "indexed": false,
          "internalType": "uint256",
          "name": "s",
          "type": "uint256"
        }
      ],
      "name": "send_s",
      "type": "event"
    },
    {
      "anonymous": false,
      "inputs": [
        {
          "indexed": false,
          "internalType": "uint256",
          "name": "kr",
          "type": "uint256"
        },
        {
          "indexed": false,
          "internalType": "uint256[]",
          "name": "W",
          "type": "uint256[]"
        },
        {
          "indexed": false,
          "internalType": "uint256[]",
          "name": "H",
          "type": "uint256[]"
        },
        {
          "indexed": false,
          "internalType": "uint256[]",
          "name": "S",
          "type": "uint256[]"
        },
        {
          "indexed": false,
          "internalType": "uint256[2][]",
          "name": "cm",
          "type": "uint256[2][]"
        },
        {
          "indexed": false,
          "internalType": "uint256[]",
          "name": "g1_r",
          "type": "uint256[]"
        },
        {
          "indexed": false,
          "internalType": "uint256[]",
          "name": "a_share",
          "type": "uint256[]"
        },
        {
          "indexed": false,
          "internalType": "uint256[]",
          "name": "b_share",
          "type": "uint256[]"
        },
        {
          "indexed": false,
          "internalType": "uint256[]",
          "name": "c_share",
          "type": "uint256[]"
        }
      ],
      "name": "send_self_revocation",
      "type": "event"
    },
    {
      "anonymous": false,
      "inputs": [
        {
          "components": [
            {
              "internalType": "uint256",
              "name": "X",
              "type": "uint256"
            },
            {
              "internalType": "uint256",
              "name": "Y",
              "type": "uint256"
            }
          ],
          "indexed": false,
          "internalType": "struct G.G1Point",
          "name": "delta",
          "type": "tuple"
        }
      ],
      "name": "send_updated_witness",
      "type": "event"
    },
    {
      "inputs": [
        {
          "internalType": "uint256[]",
          "name": "indexes",
          "type": "uint256[]"
        }
      ],
      "name": "lagrange_basis",
      "outputs": [
        {
          "internalType": "uint256[]",
          "name": "",
          "type": "uint256[]"
        }
      ],
      "stateMutability": "view",
      "type": "function",
      "constant": true
    },
    {
      "inputs": [
        {
          "internalType": "uint256",
          "name": "ya",
          "type": "uint256"
        },
        {
          "internalType": "uint256",
          "name": "kr",
          "type": "uint256"
        }
      ],
      "name": "updateDelta",
      "outputs": [],
      "stateMutability": "nonpayable",
      "type": "function"
    },
    {
      "inputs": [],
      "name": "get_delta",
      "outputs": [
        {
          "internalType": "uint256",
          "name": "",
          "type": "uint256"
        },
        {
          "internalType": "uint256",
          "name": "",
          "type": "uint256"
        }
      ],
      "stateMutability": "view",
      "type": "function",
      "constant": true
    },
    {
      "inputs": [
        {
          "internalType": "uint256",
          "name": "id",
          "type": "uint256"
        },
        {
          "internalType": "uint256",
          "name": "share",
          "type": "uint256"
        },
        {
          "internalType": "uint256",
          "name": "request_id",
          "type": "uint256"
        }
      ],
      "name": "recieve_share_for_revocation",
      "outputs": [],
      "stateMutability": "nonpayable",
      "type": "function"
    },
    {
      "inputs": [
        {
          "internalType": "uint256",
          "name": "fl",
          "type": "uint256"
        }
      ],
      "name": "aggregate_value",
      "outputs": [
        {
          "internalType": "uint256",
          "name": "",
          "type": "uint256"
        }
      ],
      "stateMutability": "view",
      "type": "function",
      "constant": true
    },
    {
      "inputs": [
        {
          "internalType": "uint256",
          "name": "di",
          "type": "uint256"
        },
        {
          "internalType": "uint256",
          "name": "ei",
          "type": "uint256"
        },
        {
          "internalType": "uint256",
          "name": "id",
          "type": "uint256"
        }
      ],
      "name": "combine_di_and_ei",
      "outputs": [],
      "stateMutability": "nonpayable",
      "type": "function"
    },
    {
      "inputs": [
        {
          "internalType": "uint256",
          "name": "si",
          "type": "uint256"
        },
        {
          "internalType": "uint256",
          "name": "id",
          "type": "uint256"
        }
      ],
      "name": "combine_func_si",
      "outputs": [],
      "stateMutability": "nonpayable",
      "type": "function"
    },
    {
      "inputs": [
        {
          "components": [
            {
              "internalType": "uint256",
              "name": "X",
              "type": "uint256"
            },
            {
              "internalType": "uint256",
              "name": "Y",
              "type": "uint256"
            }
          ],
          "internalType": "struct G.G1Point[]",
          "name": "pub_key",
          "type": "tuple[]"
        }
      ],
      "name": "gen_beaver_tuples",
      "outputs": [
        {
          "components": [
            {
              "internalType": "uint256",
              "name": "X",
              "type": "uint256"
            },
            {
              "internalType": "uint256",
              "name": "Y",
              "type": "uint256"
            }
          ],
          "internalType": "struct G.G1Point",
          "name": "",
          "type": "tuple"
        }
      ],
      "stateMutability": "nonpayable",
      "type": "function"
    },
    {
      "inputs": [
        {
          "internalType": "string",
          "name": "name",
          "type": "string"
        },
        {
          "internalType": "uint256",
          "name": "kr",
          "type": "uint256"
        },
        {
          "components": [
            {
              "internalType": "uint256",
              "name": "X",
              "type": "uint256"
            },
            {
              "internalType": "uint256",
              "name": "Y",
              "type": "uint256"
            }
          ],
          "internalType": "struct G.G1Point",
          "name": "witness",
          "type": "tuple"
        },
        {
          "components": [
            {
              "internalType": "uint256",
              "name": "X",
              "type": "uint256"
            },
            {
              "internalType": "uint256",
              "name": "Y",
              "type": "uint256"
            }
          ],
          "internalType": "struct G.G1Point",
          "name": "H",
          "type": "tuple"
        },
        {
          "components": [
            {
              "internalType": "uint256",
              "name": "X",
              "type": "uint256"
            },
            {
              "internalType": "uint256",
              "name": "Y",
              "type": "uint256"
            }
          ],
          "internalType": "struct G.G1Point",
          "name": "S",
          "type": "tuple"
        },
        {
          "components": [
            {
              "internalType": "uint256",
              "name": "X",
              "type": "uint256"
            },
            {
              "internalType": "uint256",
              "name": "Y",
              "type": "uint256"
            }
          ],
          "internalType": "struct G.G1Point[]",
          "name": "commitments",
          "type": "tuple[]"
        }
      ],
      "name": "verify_revocation_request",
      "outputs": [],
      "stateMutability": "nonpayable",
      "type": "function"
    },
    {
      "inputs": [
        {
          "components": [
            {
              "internalType": "uint256",
              "name": "X",
              "type": "uint256"
            },
            {
              "internalType": "uint256",
              "name": "Y",
              "type": "uint256"
            }
          ],
          "internalType": "struct G.G1Point",
          "name": "m",
          "type": "tuple"
        }
      ],
      "name": "hash_to_G1",
      "outputs": [
        {
          "components": [
            {
              "internalType": "uint256",
              "name": "X",
              "type": "uint256"
            },
            {
              "internalType": "uint256",
              "name": "Y",
              "type": "uint256"
            }
          ],
          "internalType": "struct G.G1Point",
          "name": "",
          "type": "tuple"
        }
      ],
      "stateMutability": "view",
      "type": "function",
      "constant": true
    },
    {
      "inputs": [
        {
          "components": [
            {
              "internalType": "uint256",
              "name": "X",
              "type": "uint256"
            },
            {
              "internalType": "uint256",
              "name": "Y",
              "type": "uint256"
            }
          ],
          "internalType": "struct G.G1Point",
          "name": "a",
          "type": "tuple"
        }
      ],
      "name": "hash_to_int",
      "outputs": [
        {
          "internalType": "uint256",
          "name": "",
          "type": "uint256"
        }
      ],
      "stateMutability": "view",
      "type": "function",
      "constant": true
    },
    {
      "inputs": [
        {
          "components": [
            {
              "internalType": "uint256",
              "name": "X",
              "type": "uint256"
            },
            {
              "internalType": "uint256",
              "name": "Y",
              "type": "uint256"
            }
          ],
          "internalType": "struct G.G1Point",
          "name": "a",
          "type": "tuple"
        }
      ],
      "name": "hash_to_int_2",
      "outputs": [
        {
          "internalType": "uint256",
          "name": "",
          "type": "uint256"
        }
      ],
      "stateMutability": "pure",
      "type": "function",
      "constant": true
    },
    {
      "inputs": [
        {
          "internalType": "uint256",
          "name": "id",
          "type": "uint256"
        },
        {
          "internalType": "uint256",
          "name": "share",
          "type": "uint256"
        },
        {
          "internalType": "uint256",
          "name": "request_id",
          "type": "uint256"
        }
      ],
      "name": "recieve_ya_share",
      "outputs": [],
      "stateMutability": "nonpayable",
      "type": "function"
    },
    {
      "inputs": [
        {
          "internalType": "uint256",
          "name": "time",
          "type": "uint256"
        }
      ],
      "name": "updateWitness",
      "outputs": [
        {
          "internalType": "uint256[]",
          "name": "",
          "type": "uint256[]"
        },
        {
          "internalType": "uint256[]",
          "name": "",
          "type": "uint256[]"
        },
        {
          "internalType": "uint256",
          "name": "",
          "type": "uint256"
        }
      ],
      "stateMutability": "view",
      "type": "function",
      "constant": true
    },
    {
      "inputs": [
        {
          "internalType": "uint256",
          "name": "_no",
          "type": "uint256"
        },
        {
          "internalType": "uint256",
          "name": "_to",
          "type": "uint256"
        },
        {
          "internalType": "uint256",
          "name": "_nv",
          "type": "uint256"
        },
        {
          "internalType": "uint256",
          "name": "_tv",
          "type": "uint256"
        }
      ],
      "name": "set_accumulator",
      "outputs": [],
      "stateMutability": "nonpayable",
      "type": "function"
    },
    {
      "inputs": [
        {
          "internalType": "uint256[]",
          "name": "array",
          "type": "uint256[]"
        },
        {
          "internalType": "uint256",
          "name": "x",
          "type": "uint256"
        }
      ],
      "name": "gen_share",
      "outputs": [
        {
          "internalType": "uint256",
          "name": "",
          "type": "uint256"
        }
      ],
      "stateMutability": "view",
      "type": "function",
      "constant": true
    },
    {
      "inputs": [
        {
          "components": [
            {
              "internalType": "uint256",
              "name": "X",
              "type": "uint256"
            },
            {
              "internalType": "uint256",
              "name": "Y",
              "type": "uint256"
            }
          ],
          "internalType": "struct G.G1Point",
          "name": "cm",
          "type": "tuple"
        }
      ],
      "name": "generate_kr_shares",
      "outputs": [
        {
          "internalType": "uint256[]",
          "name": "",
          "type": "uint256[]"
        },
        {
          "internalType": "uint256[]",
          "name": "",
          "type": "uint256[]"
        }
      ],
      "stateMutability": "nonpayable",
      "type": "function"
    }
  ],
  "bytecode": "0x608060405260006004553480156200001657600080fd5b50604051620031843803806200318483398101604081905262000039916200006d565b60008054336001600160a01b031991821617909155600180549091166001600160a01b03929092169190911790556200009f565b6000602082840312156200008057600080fd5b81516001600160a01b03811681146200009857600080fd5b9392505050565b6130d580620000af6000396000f3fe608060405234801561001057600080fd5b50600436106100db5760003560e01c8063081378cb146100e05780630a9665da146100f55780630c4bfdc81461011b5780633553964a1461012e57806342afaa4a1461014157806344ad07451461016157806357e5d2881461018f578063678e3ce7146101a25780636b38051c146101b55780639162c47d146101c85780639957efd1146101e957806399cb40c1146101fc578063a12c5f5414610217578063a97dd5ef1461022a578063af7fbf931461023d578063eb205bbe1461025f578063fcfbf4c014610272575b600080fd5b6100f36100ee366004612867565b610285565b005b610108610103366004612985565b6102de565b6040519081526020015b60405180910390f35b6101086101293660046129f9565b610367565b6100f361013c366004612a1c565b6104ba565b61015461014f366004612a4e565b6109af565b6040516101129190612ac5565b61017461016f3660046129f9565b610b4a565b60408051825181526020928301519281019290925201610112565b6100f361019d366004612b3c565b610c9f565b6100f36101b0366004612867565b611043565b6100f36101c3366004612c32565b611167565b6101db6101d63660046129f9565b6112f5565b604051610112929190612c5e565b6100f36101f7366004612c32565b6115ba565b60025460035460408051928352602083019190915201610112565b610174610225366004612c83565b6117af565b610108610238366004612cb7565b611bcd565b61025061024b366004612cb7565b611f5c565b60405161011293929190612cd0565b61010861026d3660046129f9565b61216d565b6100f3610280366004612c32565b6122d0565b60408051808201909152600254815260035460208201526102ce906102c960008051602061308083398151915285850860008051602061308083398151915261249e565b6124ef565b8051600255602001516003555050565b600080600080516020613080833981519152815b855181101561035357818061030957610309612d06565b828061031757610317612d06565b610322878486612541565b88848151811061033457610334612d1c565b602002602001015109840892508061034b81612d48565b9150506102f2565b5061035e8183612d61565b95945050505050565b805160208201516040805181815260608101825260009392918391839186919060208201818036833701905050905060005b60208110156103f3578381602081106103b4576103b4612d1c565b1a60f81b8282815181106103ca576103ca612d1c565b60200101906001600160f81b031916908160001a905350806103eb81612d48565b915050610399565b5060205b604081101561045b578261040c602083612d83565b6020811061041c5761041c612d1c565b1a60f81b82828151811061043257610432612d1c565b60200101906001600160f81b031916908160001a9053508061045381612d48565b9150506103f7565b50600060028260405161046e9190612dc6565b602060405180830381855afa15801561048b573d6000803e3d6000fd5b5050506040513d601f19601f820116820180604052508101906104ae9190612de2565b98975050505050505050565b6104c26125a7565b8051600255602001516003556005849055600782905560068390556008819055826001600160401b038111156104fa576104fa612889565b604051908082528060200260200182016040528015610523578160200160208202803683370190505b50805161053891601291602090910190612748565b506006546001600160401b0381111561055357610553612889565b60405190808252806020026020018201604052801561057c578160200160208202803683370190505b50805161059191601391602090910190612748565b506006546001600160401b038111156105ac576105ac612889565b6040519080825280602002602001820160405280156105d5578160200160208202803683370190505b5080516105ea91601491602090910190612748565b506005546001600160401b0381111561060557610605612889565b60405190808252806020026020018201604052801561062e578160200160208202803683370190505b50805161064391601591602090910190612748565b506005546001600160401b0381111561065e5761065e612889565b604051908082528060200260200182016040528015610687578160200160208202803683370190505b50805161069c91601691602090910190612748565b506005546001600160401b038111156106b7576106b7612889565b6040519080825280602002602001820160405280156106e0578160200160208202803683370190505b5080516106f591601791602090910190612748565b506005546001600160401b0381111561071057610710612889565b604051908082528060200260200182016040528015610739578160200160208202803683370190505b50805161074e91600b91602090910190612748565b506005546001600160401b0381111561076957610769612889565b604051908082528060200260200182016040528015610792578160200160208202803683370190505b5080516107a791600c91602090910190612748565b506005546001600160401b038111156107c2576107c2612889565b6040519080825280602002602001820160405280156107eb578160200160208202803683370190505b50805161080091600d91602090910190612748565b506005546001600160401b0381111561081b5761081b612889565b604051908082528060200260200182016040528015610844578160200160208202803683370190505b50805161085991600991602090910190612748565b506005546001600160401b0381111561087457610874612889565b60405190808252806020026020018201604052801561089d578160200160208202803683370190505b5080516108b291600a91602090910190612748565b5060015b60055481116109a857600060096108ce600184612d83565b815481106108de576108de612d1c565b6000918252602082200191909155600a6108f9600184612d83565b8154811061090957610909612d1c565b6000918252602082200191909155600b610924600184612d83565b8154811061093457610934612d1c565b6000918252602082200191909155600c61094f600184612d83565b8154811061095f5761095f612d1c565b6000918252602082200191909155600d61097a600184612d83565b8154811061098a5761098a612d1c565b600091825260209091200155806109a081612d48565b9150506108b6565b5050505050565b606060006000805160206130808339815191529050600083516001600160401b038111156109df576109df612889565b604051908082528060200260200182016040528015610a08578160200160208202803683370190505b50905060005b8451811015610b425760018060005b8751811015610af4576000888581518110610a3a57610a3a612d1c565b602002602001015190506000898381518110610a5857610a58612d1c565b6020026020010151905081811115610a9e578780610a7857610a78612d06565b81860994508780610a8b57610a8b612d06565b610a958383612d83565b85099350610adf565b81811015610adf578780610ab457610ab4612d06565b85610abf838b612d83565b0994508780610ad057610ad0612d06565b610ada8284612d83565b850993505b50508080610aec90612d48565b915050610a1d565b508480610b0357610b03612d06565b610b0d828761249e565b8309848481518110610b2157610b21612d1c565b60200260200101818152505050508080610b3a90612d48565b915050610a0e565b509392505050565b610b52612793565b81516020830151604080518181526060810182528391839160009160208201818036833701905050905060005b6020811015610bd957838160208110610b9a57610b9a612d1c565b1a60f81b828281518110610bb057610bb0612d1c565b60200101906001600160f81b031916908160001a90535080610bd181612d48565b915050610b7f565b5060205b6040811015610c415782610bf2602083612d83565b60208110610c0257610c02612d1c565b1a60f81b828281518110610c1857610c18612d1c565b60200101906001600160f81b031916908160001a90535080610c3981612d48565b915050610bdd565b506000600282604051610c549190612dc6565b602060405180830381855afa158015610c71573d6000803e3d6000fd5b5050506040513d601f19601f82011682018060405250810190610c949190612de2565b90506104ae816125c8565b60015460405163da1b735360e01b81526000916001600160a01b03169063da1b735390610cd0908a90600401612dfb565b600060405180830381865afa158015610ced573d6000803e3d6000fd5b505050506040513d6000823e601f3d908101601f19168201604052610d159190810190612e2e565b90506000610d22826117af565b6040805160028082526060820183529293506000929091602083019080368337505060408051600280825260608201835293945060009390925090602083019080368337505060408051600280825260608201835293945060009390925090602083019080368337505060408051600280825260608201835293945060009390925090602083019080368337019050509050600087516001600160401b03811115610dcf57610dcf612889565b604051908082528060200260200182016040528015610e0857816020015b610df56127ad565b815260200190600190039081610ded5790505b5090508a6000015184600081518110610e2357610e23612d1c565b6020026020010181815250508a6020015184600181518110610e4757610e47612d1c565b602002602001018181525050856000015185600081518110610e6b57610e6b612d1c565b602002602001018181525050856020015185600181518110610e8f57610e8f612d1c565b602002602001018181525050896000015183600081518110610eb357610eb3612d1c565b602002602001018181525050896020015183600181518110610ed757610ed7612d1c565b602002602001018181525050886000015182600081518110610efb57610efb612d1c565b602002602001018181525050886020015182600181518110610f1f57610f1f612d1c565b60200260200101818152505060005b8851811015610fe957888181518110610f4957610f49612d1c565b602002602001015160000151828281518110610f6757610f67612d1c565b6020026020010151600060028110610f8157610f81612d1c565b60200201528851899082908110610f9a57610f9a612d1c565b602002602001015160200151828281518110610fb857610fb8612d1c565b6020026020010151600160028110610fd257610fd2612d1c565b602002015280610fe181612d48565b915050610f2e565b507ffda0b770c8d1faa15a6c7b550e78ae6726e88db3cc8625272952c35709d613e48c858585858a60156016601760405161102c99989796959493929190612f3b565b60405180910390a150505050505050505050505050565b81600d611051600184612d83565b8154811061106157611061612d1c565b600091825260208220019190915560015b60055481116110ca57600d611088600183612d83565b8154811061109857611098612d1c565b90600052602060002001546000146110b857816110b481612d48565b9250505b806110c281612d48565b915050611072565b5060065481036111625760006110e06003611bcd565b905060015b600554811161112b576000600d6110fd600184612d83565b8154811061110d5761110d612d1c565b6000918252602090912001558061112381612d48565b9150506110e5565b506040518181527fe2bf728ddeaf0f902e51fa4a19c05df0fbc730aa1418d6228d781c28dfbe335b906020015b60405180910390a1505b505050565b82600b611175600184612d83565b8154811061118557611185612d1c565b60009182526020909120015581600c61119f600184612d83565b815481106111af576111af612d1c565b600091825260208220019190915560015b600554811161121857600b6111d6600183612d83565b815481106111e6576111e6612d1c565b9060005260206000200154600014611206578161120281612d48565b9250505b8061121081612d48565b9150506111c0565b5060065481036112ef57600061122e6001611bcd565b9050600061123c6002611bcd565b905060015b60055481116112b2576000600b611259600184612d83565b8154811061126957611269612d1c565b6000918252602082200191909155600c611284600184612d83565b8154811061129457611294612d1c565b600091825260209091200155806112aa81612d48565b915050611241565b5060408051838152602081018390527f6e68679b84320a372409ded6f9a8ca55b03490f642a139b63e5cd7bf47403873910160405180910390a150505b50505050565b60608060006008546001600160401b0381111561131457611314612889565b60405190808252806020026020018201604052801561133d578160200160208202803683370190505b50905060006006546001600160401b0381111561135c5761135c612889565b604051908082528060200260200182016040528015611385578160200160208202803683370190505b50905060006007546001600160401b038111156113a4576113a4612889565b6040519080825280602002602001820160405280156113cd578160200160208202803683370190505b50905060006005546001600160401b038111156113ec576113ec612889565b604051908082528060200260200182016040528015611415578160200160208202803683370190505b509050600061142261264b565b905080600e60006114328b61216d565b815260200190815260200160002081905550808560008151811061145857611458612d1c565b602002602001018181525050808460008151811061147857611478612d1c565b602090810291909101015260015b6008548110156114c75761149861264b565b8682815181106114aa576114aa612d1c565b6020908102919091010152806114bf81612d48565b915050611486565b5060015b60065481101561150c576114dd61264b565b8582815181106114ef576114ef612d1c565b60209081029190910101528061150481612d48565b9150506114cb565b5060015b600754811161155c5761152386826102de565b8461152f600184612d83565b8151811061153f5761153f612d1c565b60209081029190910101528061155481612d48565b915050611510565b5060015b60055481116115ac5761157385826102de565b8361157f600184612d83565b8151811061158f5761158f612d1c565b6020908102919091010152806115a481612d48565b915050611560565b509197909650945050505050565b6000818152600f60205260409020546001036115d557505050565b8160096115e3600186612d83565b815481106115f3576115f3612d1c565b90600052602060002001819055506000805b600554811015611654576009818154811061162257611622612d1c565b9060005260206000200154600014611642578161163e81612d48565b9250505b8061164c81612d48565b915050611605565b5060065481036112ef57604080518082018252600254808252600354602080840182905284518086019095529184529083015290611696906102c96004611bcd565b80516002556020015160035560015b60055481116116eb57600060096116bd600184612d83565b815481106116cd576116cd612d1c565b600091825260209091200155806116e381612d48565b9150506116a5565b506040805180820182526000858152600e6020908152928120548252429282019290925260108054600181018255925261174d9160029081027f1b6847dc741a1b0cd08d278845f9d819d87b734759afb55fe2de5cb82a9ae6720191906127cb565b506000838152600f6020908152604080832060019055600e909152908190205490517f7948d82149f8d60641c66dbfe847345f457d59abb84520929a5d79ecce418c0a916117a09184918791429061301f565b60405180910390a15050505050565b6117b7612793565b60006117c161264b565b905060006117cd61264b565b905060006117d961264b565b90506000600080516020613080833981519152838509905060006005546001600160401b0381111561180d5761180d612889565b60405190808252806020026020018201604052801561184657816020015b611833612793565b81526020019060019003908161182b5790505b50905084601260008154811061185e5761185e612d1c565b906000526020600020018190555083601360008154811061188157611881612d1c565b90600052602060002001819055508160146000815481106118a4576118a4612d1c565b60009182526020909120015560015b600654811015611944576118c561264b565b601282815481106118d8576118d8612d1c565b6000918252602090912001556118ec61264b565b601382815481106118ff576118ff612d1c565b60009182526020909120015561191361264b565b6014828154811061192657611926612d1c565b6000918252602090912001558061193c81612d48565b9150506118b3565b5060006119586119526125a7565b856124ef565b905060015b60055481116119cd5761199389611975600184612d83565b8151811061198557611985612d1c565b6020026020010151866124ef565b8361199f600184612d83565b815181106119af576119af612d1c565b602002602001018190525080806119c590612d48565b91505061195d565b5060015b6005548111611bc1576000611a08846119eb600185612d83565b815181106119fb576119fb612d1c565b6020026020010151610367565b90506000611a666012805480602002602001604051908101604052809291908181526020018280548015611a5b57602002820191906000526020600020905b815481526020019060010190808311611a47575b5050505050846102de565b90506000611ac46013805480602002602001604051908101604052809291908181526020018280548015611ab957602002820191906000526020600020905b815481526020019060010190808311611aa5575b5050505050856102de565b90506000611b226014805480602002602001604051908101604052809291908181526020018280548015611b1757602002820191906000526020600020905b815481526020019060010190808311611b03575b5050505050866102de565b90508383186015611b34600188612d83565b81548110611b4457611b44612d1c565b6000918252602090912001558382186016611b60600188612d83565b81548110611b7057611b70612d1c565b6000918252602090912001558381186017611b8c600188612d83565b81548110611b9c57611b9c612d1c565b9060005260206000200181905550505050508080611bb990612d48565b9150506119d1565b50979650505050505050565b6000806006546001600160401b03811115611bea57611bea612889565b604051908082528060200260200182016040528015611c13578160200160208202803683370190505b50905060006006546001600160401b03811115611c3257611c32612889565b604051908082528060200260200182016040528015611c5b578160200160208202803683370190505b509050606084600103611cc057600b805480602002602001604051908101604052809291908181526020018280548015611cb457602002820191906000526020600020905b815481526020019060010190808311611ca0575b50505050509050611e2e565b84600203611d1e57600c805480602002602001604051908101604052809291908181526020018280548015611cb45760200282019190600052602060002090815481526020019060010190808311611ca05750505050509050611e2e565b84600303611d7c57600d805480602002602001604051908101604052809291908181526020018280548015611cb45760200282019190600052602060002090815481526020019060010190808311611ca05750505050509050611e2e565b84600403611dda576009805480602002602001604051908101604052809291908181526020018280548015611cb45760200282019190600052602060002090815481526020019060010190808311611ca05750505050509050611e2e565b600a805480602002602001604051908101604052809291908181526020018280548015611e2657602002820191906000526020600020905b815481526020019060010190808311611e12575b505050505090505b600060015b6005548111611ee65782611e48600183612d83565b81518110611e5857611e58612d1c565b6020026020010151600014611ed45780858381518110611e7a57611e7a612d1c565b602090810291909101015282611e91600183612d83565b81518110611ea157611ea1612d1c565b6020026020010151848381518110611ebb57611ebb612d1c565b602090810291909101015281611ed081612d48565b9250505b80611ede81612d48565b915050611e33565b506000611ef2856109af565b90506000805b8651811015611bc15760008051602061308083398151915280848381518110611f2357611f23612d1c565b6020026020010151888481518110611f3d57611f3d612d1c565b6020026020010151098308915080611f5481612d48565b915050611ef8565b6060806000806010805490506001600160401b03811115611f7f57611f7f612889565b604051908082528060200260200182016040528015611fa8578160200160208202803683370190505b506011549091506000906001600160401b03811115611fc957611fc9612889565b604051908082528060200260200182016040528015611ff2578160200160208202803683370190505b509050600080600160108054905061200a9190612d83565b90505b876010828154811061202157612021612d1c565b906000526020600020906002020160016002811061204157612041612d1c565b0154106120a9576010818154811061205b5761205b612d1c565b600091825260208220600290910201015484838151811061207e5761207e612d1c565b60209081029190910101528161209381612d48565b92505080806120a190613048565b91505061200d565b505060115460009081906120bf90600190612d83565b90505b87601182815481106120d6576120d6612d1c565b90600052602060002090600202016001600281106120f6576120f6612d1c565b01541061215e576011818154811061211057612110612d1c565b600091825260208220600290910201015483838151811061213357612133612d1c565b60209081029190910101528161214881612d48565b925050808061215690613048565b9150506120c2565b50919690955042945092505050565b60008061217983610b4a565b805160208201516040805181815260608101825293945091929091839183916000919060208201818036833701905050905060005b6020811015612208578381602081106121c9576121c9612d1c565b1a60f81b8282815181106121df576121df612d1c565b60200101906001600160f81b031916908160001a9053508061220081612d48565b9150506121ae565b5060205b60408110156122705782612221602083612d83565b6020811061223157612231612d1c565b1a60f81b82828151811061224757612247612d1c565b60200101906001600160f81b031916908160001a9053508061226881612d48565b91505061220c565b5060006002826040516122839190612dc6565b602060405180830381855afa1580156122a0573d6000803e3d6000fd5b5050506040513d601f19601f820116820180604052508101906122c39190612de2565b9998505050505050505050565b6000818152600f60205260409020546002036122eb57505050565b81600a6122f9600186612d83565b8154811061230957612309612d1c565b600091825260208220019190915560015b600554811161237257600a612330600183612d83565b8154811061234057612340612d1c565b9060005260206000200154600014612360578161235c81612d48565b9250505b8061236a81612d48565b91505061231a565b5060065481036112ef5760408051808201909152600254815260035460208201526123a1906102c96005611bcd565b80516002556020015160035560015b60055481116123f6576000600a6123c8600184612d83565b815481106123d8576123d8612d1c565b600091825260209091200155806123ee81612d48565b9150506123b0565b506040805180820182526000848152600e602090815292812054825242928201929092526011805460018101825592526124589160029081027f31ecc21a745e3968a04e9570e4425bc18fa8019c68028196b546d1669c200c680191906127cb565b506000828152600f60205260409081902060029055517f228350e9fba4ca8cb2df19d985a1733382771e67c2d2d414501b28e9ae5e5a2490611158906001815260200190565b60008060405160208152602080820152602060408201528460608201526002840360808201528360a082015260208160c08360056107d05a03fa905192509050806124e857600080fd5b5092915050565b6124f7612793565b6124ff6127f8565b835181526020808501519082015260408101839052600060608360808460076107d05a03fa9050808061252e57fe5b508061253957600080fd5b505092915050565b60008061254c612816565b612554612834565b602080825281810181905260408201819052606082018890526080820187905260a082018690528260c08360056107d05a03fa9250828061259157fe5b508261259c57600080fd5b505195945050505050565b6125af612793565b5060408051808201909152600181526002602082015290565b6125d0612793565b600080806125ec60008051602061308083398151915286612d61565b90505b6125f8816126c6565b90935091506000805160206130608339815191528283098303612631576040805180820190915290815260208101919091529392505050565b6000805160206130608339815191526001820890506125ef565b600480546000918261265c83612d48565b9091555050600454604080514260208201526001600160601b03193360601b16918101919091526054810191909152600080516020613080833981519152906074016040516020818303038152906040528051906020012060001c6126c19190612d61565b905090565b6000808060008051602061306083398151915260036000805160206130608339815191528660008051602061306083398151915288890909089050600061273c827f0c19139cb84c680a6e14116da060561765e05aa45a1c72a34f082305b61f3f52600080516020613060833981519152612541565b91959194509092505050565b828054828255906000526020600020908101928215612783579160200282015b82811115612783578251825591602001919060010190612768565b5061278f929150612852565b5090565b604051806040016040528060008152602001600081525090565b60405180604001604052806002906020820280368337509192915050565b82600281019282156127835791602002820182811115612783578251825591602001919060010190612768565b60405180606001604052806003906020820280368337509192915050565b60405180602001604052806001906020820280368337509192915050565b6040518060c001604052806006906020820280368337509192915050565b5b8082111561278f5760008155600101612853565b6000806040838503121561287a57600080fd5b50508035926020909101359150565b634e487b7160e01b600052604160045260246000fd5b604080519081016001600160401b03811182821017156128c1576128c1612889565b60405290565b604051601f8201601f191681016001600160401b03811182821017156128ef576128ef612889565b604052919050565b60006001600160401b0382111561291057612910612889565b5060051b60200190565b600082601f83011261292b57600080fd5b8135602061294061293b836128f7565b6128c7565b82815260059290921b8401810191818101908684111561295f57600080fd5b8286015b8481101561297a5780358352918301918301612963565b509695505050505050565b6000806040838503121561299857600080fd5b82356001600160401b038111156129ae57600080fd5b6129ba8582860161291a565b95602094909401359450505050565b6000604082840312156129db57600080fd5b6129e361289f565b9050813581526020820135602082015292915050565b600060408284031215612a0b57600080fd5b612a1583836129c9565b9392505050565b60008060008060808587031215612a3257600080fd5b5050823594602084013594506040840135936060013592509050565b600060208284031215612a6057600080fd5b81356001600160401b03811115612a7657600080fd5b612a828482850161291a565b949350505050565b600081518084526020808501945080840160005b83811015612aba57815187529582019590820190600101612a9e565b509495945050505050565b602081526000612a156020830184612a8a565b600082601f830112612ae957600080fd5b81356020612af961293b836128f7565b82815260069290921b84018101918181019086841115612b1857600080fd5b8286015b8481101561297a57612b2e88826129c9565b835291830191604001612b1c565b6000806000806000806101208789031215612b5657600080fd5b86356001600160401b0380821115612b6d57600080fd5b818901915089601f830112612b8157600080fd5b8135602082821115612b9557612b95612889565b612ba7601f8301601f191682016128c7565b8281528c82848701011115612bbb57600080fd5b828286018383013760009281018201929092529098508901359650612be38a60408b016129c9565b9550612bf28a60808b016129c9565b9450612c018a60c08b016129c9565b9350610100890135915080821115612c1857600080fd5b50612c2589828a01612ad8565b9150509295509295509295565b600080600060608486031215612c4757600080fd5b505081359360208301359350604090920135919050565b604081526000612c716040830185612a8a565b828103602084015261035e8185612a8a565b600060208284031215612c9557600080fd5b81356001600160401b03811115612cab57600080fd5b612a8284828501612ad8565b600060208284031215612cc957600080fd5b5035919050565b606081526000612ce36060830186612a8a565b8281036020840152612cf58186612a8a565b915050826040830152949350505050565b634e487b7160e01b600052601260045260246000fd5b634e487b7160e01b600052603260045260246000fd5b634e487b7160e01b600052601160045260246000fd5b600060018201612d5a57612d5a612d32565b5060010190565b600082612d7e57634e487b7160e01b600052601260045260246000fd5b500690565b600082821015612d9557612d95612d32565b500390565b60005b83811015612db5578181015183820152602001612d9d565b838111156112ef5750506000910152565b60008251612dd8818460208701612d9a565b9190910192915050565b600060208284031215612df457600080fd5b5051919050565b6020815260008251806020840152612e1a816040850160208701612d9a565b601f01601f19169190910160400192915050565b60006020808385031215612e4157600080fd5b82516001600160401b03811115612e5757600080fd5b8301601f81018513612e6857600080fd5b8051612e7661293b826128f7565b81815260069190911b82018301908381019087831115612e9557600080fd5b928401925b82841015612ed85760408489031215612eb35760008081fd5b612ebb61289f565b845181528585015186820152825260409093019290840190612e9a565b979650505050505050565b8060005b60028110156112ef578151845260209384019390910190600101612ee7565b6000815480845260208085019450836000528060002060005b83811015612aba57815487529582019560019182019101612f1f565b60006101208b835260208181850152612f568285018d612a8a565b9150604084830381860152612f6b838d612a8a565b92508483036060860152612f7f838c612a8a565b85810360808701528a51808252838c0194509083019060005b81811015612fbb57612fab838751612ee3565b9484019491830191600101612f98565b505085810360a0870152612fcf818b612a8a565b935050505082810360c0840152612fe68187612f06565b905082810360e0840152612ffa8186612f06565b905082810361010084015261300f8185612f06565b9c9b505050505050505050505050565b60a0810161302d8287612ee3565b84604083015283606083015282608083015295945050505050565b60008161305757613057612d32565b50600019019056fe30644e72e131a029b85045b68181585d97816a916871ca8d3c208c16d87cfd4730644e72e131a029b85045b68181585d2833e84879b9709143e1f593f0000001a2646970667358221220963a2036e3c24459f44c9a9f635286885df3c29ab0d0397a721e7f56fe8aa1f064736f6c634300080d0033",
  "immutableReferences": {},
  "source": "// SPDX-License-Identifier: GPL-3.0\npragma solidity >=0.7.0 <0.9.0;\nimport { G } from \"../libraries/G.sol\";\nimport {Params } from \"./Params.sol\";\ncontract Accumulator{\n\n    address private owner;\n    Params private params;\n    G.G1Point private delta;\n    uint randNonce = 0;\n    uint private no;\n    uint private to;\n    uint private nv;\n    uint private tv;\n    //uint256[] private validators_share;\n    //uint256[] private openers_share;\n    uint256[] private accumulator_key_shares;\n    uint256[] private delta_shares;\n    uint256[] private combine_di;\n    uint256[] private combine_ei;\n    uint256[] private combine_si;\n    mapping(uint256 => uint256) private id_kr;\n    mapping(uint256 => uint256) private flag;\n    uint256[2][] whitelist;\n    uint256[2][] blacklist;\n    uint256[] a_poly;\n    uint256[] b_poly;\n    uint256[] c_poly;\n    uint256[] a_share;\n    uint256[] b_share;\n    uint256[] c_share;\n    constructor(Params _params) {\n        owner = msg.sender;\n        params = _params;  \n    }\n\n    modifier onlyOwner {\n        require(msg.sender == owner);\n        _;\n    }\n    \n    event send_W_kr(uint256[2] W, uint256 request_id, uint256 kr, uint256 timestamp);\n    //event send_W_kr(uint256[2] W,G.G1Point delta, uint256 request_id);\n    event revocation_complete(uint256 c);\n    event send_d_and_e(uint256 d, uint256 e);\n    event send_s(uint256 s);\n    event send_updated_witness(G.G1Point delta);\n    event send_self_revocation(uint256 kr, uint256[] W,uint256[] H,uint256[] S, uint256[2][] cm, uint256[] g1_r, uint256[] a_share, uint256[] b_share, uint256[] c_share);\n\n    function lagrange_basis(uint[] memory indexes) public view returns(uint256[] memory){\n            uint256 o = G.GEN_ORDER;\n            uint256[] memory l = new uint256[](indexes.length);\n            for(uint a=0; a<indexes.length; a++){\n                uint256 numerator =1;\n                uint256 denominator = 1;\n                for(uint b=0;b<indexes.length; b++){\n                    uint256 i = indexes[a];\n                    uint256 j = indexes[b];\n                    if (j > i){\n                        numerator = mulmod(numerator, j, o);\n                        denominator = mulmod(denominator, (j-i), o);\n                    }\n                    else if(j < i){\n                        numerator = mulmod(o - j,numerator, o);\n                        denominator = mulmod(denominator, (i-j), o);\n                    }\n                }\n                l[a] = mulmod(numerator, G._modInv(denominator, o), o);\n            }\n            return l;\n\n    }\n    // function genAggregatedYa() public view returns(G.G1Point memory){\n    //         uint256 [] memory indexes = new uint[](to);\n    //         uint256[2][] memory filter = new uint[2][](to);\n    //         uint u = 0;\n    //         for (uint i=1; i<=no; i++) \n    //         {\n    //             if(accumulator_key_shares[i] != 0){\n    //                 indexes[u] = i;\n    //                 filter[u] = accumulator_key_shares[i];\n    //                 u++;\n    //             }\n    //         }\n    //         uint256[] memory l = lagrange_basis(indexes);\n    //         uint256 aggr_ka = 0;\n    //         // aggr_ka.X = filter[0][0];\n    //         // aggr_ka.Y = filter[0][1];\n    //         // aggr_ka = G.g1mul(aggr_ka, l[0]);\n    //         for (uint i=0; i<indexes.length; i++){\n    //             // G.G1Point memory tmp;\n    //             // tmp.X = filter[i][0];\n    //             // tmp.Y = filter[i][1];\n    //             //aggr_ka = G.g1add(aggr_ka ,(G.g1mul(tmp, l[i])));\n    //             aggr_ka = aggr_ka + mulmod(l[i], accumulator_key_shares[indexes[i]-1],G.GEN_ORDER)\n    //         }\n    //         return aggr_ka;\n    // }\n\n    // function genAggregatedYa_2() public view returns(G.G1Point memory){\n    //         uint256 [] memory indexes = new uint[](to);\n    //         uint256[2][] memory filter = new uint[2][](to);\n    //         uint u = 0;\n    //         for (uint i=1; i<=no; i++) \n    //         {\n    //             if(delta_shares[i]!= 0){\n    //                 indexes[u] = i;\n    //                 filter[u] = delta_shares[i];\n    //                 u++;\n    //             }\n    //         }\n    //         uint256[] memory l = lagrange_basis(indexes);\n    //         uint256 aggr_ka;\n    //         // aggr_ka.X = filter[0][0];\n    //         // aggr_ka.Y = filter[0][1];\n    //         // aggr_ka = G.g1mul(aggr_ka, l[0]);\n    //         for (uint i=1; i<indexes.length; i++){\n    //             // G.G1Point memory tmp;\n    //             // tmp.X = filter[i][0];\n    //             // tmp.Y = filter[i][1];\n    //             // aggr_ka = G.g1add(aggr_ka ,(G.g1mul(tmp, l[i])));\n    //             aggr_ka = aggr_ka + mulmod(l[i], delta_shares[indexes[i]-1],G.GEN_ORDER)\n    //         }\n    //         return aggr_ka;\n    // }\n\n    function updateDelta(uint256 ya, uint256 kr) public {\n            delta = G.g1mul(delta, G._modInv(addmod(kr,ya,G.GEN_ORDER),G.GEN_ORDER));\n    }\n    function get_delta() public view returns(uint256, uint256){\n        return (delta.X, delta.Y);\n    }\n    function recieve_share_for_revocation(uint id, uint256 share, uint256 request_id) public {\n        if(flag[request_id] == 2) return;\n\n        delta_shares[id-1]= share;\n        uint count = 0;\n        for (uint i=1; i<=no; i++) \n        {\n            if(delta_shares[i-1] != 0) count++;\n        }\n        if(count==to){\n            delta = G.g1mul(delta, aggregate_value(5));       \n            for (uint i=1; i<=no; i++) \n            {\n               delta_shares[i-1] = 0;\n            }\n\n            blacklist.push([id_kr[request_id],block.timestamp]);\n            flag[request_id] = 2;\n            emit revocation_complete(1);\n            //emit send_W_kr(W,request_id,id_kr[request_id], block.timestamp);\n        }\n    }\n\n    function aggregate_value(uint256 fl) view public returns(uint256){\n            uint256 [] memory indexes = new uint[](to);\n            uint256[] memory filter = new uint[](to);\n            uint256[] memory combine;\n            if(fl == 1) combine= combine_di;\n            else if(fl == 2) combine = combine_ei;\n            else if(fl == 3) combine = combine_si;\n            else if(fl == 4) combine = accumulator_key_shares;\n            else combine = delta_shares;\n            uint u = 0;\n            for (uint i=1; i<=no; i++) \n            {\n                if(combine[i-1] != 0){\n                    indexes[u] = i;\n                    filter[u] = combine[i-1];\n                    u++;\n                }\n            }\n            uint256[] memory l = lagrange_basis(indexes);\n            uint256 aggr = 0;\n            for (uint i=0; i<indexes.length; i++){\n                aggr = addmod(aggr, mulmod(filter[i], l[i], G.GEN_ORDER), G.GEN_ORDER);\n            }\n            return aggr;\n    }\n    function combine_di_and_ei(uint256 di, uint256 ei, uint256 id) public{\n            combine_di[id-1] = di;\n            combine_ei[id-1] = ei;\n            uint count = 0;\n            for (uint i=1; i<=no; i++)\n            {\n                if(combine_di[i-1] != 0) count++;\n            }\n            if(count==to){\n                uint256 d = aggregate_value(1);\n                uint256 e = aggregate_value(2);\n\n                for (uint i=1; i<=no; i++) \n                {\n                    combine_di[i-1] = 0;\n                    combine_ei[i-1] = 0;\n                }\n                emit send_d_and_e(d,e);\n            }\n    }\n    function combine_func_si(uint256 si, uint256 id) public{\n            combine_si[id-1] = si;\n            uint count = 0;\n            for (uint i=1; i<=no; i++)\n            {\n                if(combine_si[i-1] != 0) count++;\n            }\n            if(count==to){\n                uint256 s = aggregate_value(3);\n\n                for (uint i=1; i<=no; i++) \n                {\n                    combine_si[i-1] = 0;\n                }\n                emit send_s(s);\n            }\n    }\n    function gen_beaver_tuples(G.G1Point[] memory pub_key) public returns (G.G1Point memory){\n        uint256 a = gen_random();\n        uint256 b = gen_random();\n        uint256 r = gen_random();\n        uint256 c = mulmod(a, b, G.GEN_ORDER);\n\n        G.G1Point[] memory y_r = new G.G1Point[](no);\n        a_poly[0] = a;\n        b_poly[0] = b;\n        c_poly[0] = c;\n        for(uint i=1; i<to; i++){\n            a_poly[i] = gen_random();\n            b_poly[i] = gen_random();\n            c_poly[i] = gen_random();\n        }\n        G.G1Point memory G1_r = G.g1mul(G.P1(), r);\n        for(uint i=1; i<=no; i++){\n            y_r[i-1] = G.g1mul(pub_key[i-1], r);\n        }\n        for(uint i=1; i<=no; i++){\n            uint256 t = hash_to_int_2(y_r[i-1]);\n            uint256 a1 = gen_share(a_poly,i);\n            uint256 b1 = gen_share(b_poly,i);\n            uint256 c1 = gen_share(c_poly,i);\n            a_share[i-1] = t^a1;\n            b_share[i-1] = t^b1;\n            c_share[i-1] = t^c1; \n        }\n        // for(uint i=0; i<no; i++){\n        //     a_poly[i] = 0; b_poly[i] = 0; c_poly[i] = 0;\n        //     // a_share[i] = 0; b_share[i] = 0; c_share[i] = 0;\n        // }\n        return G1_r;\n    }\n\n    function verify_revocation_request( string memory name, uint256 kr,  G.G1Point memory witness, G.G1Point memory H, G.G1Point memory S, G.G1Point[] memory commitments) public{\n           G.G1Point[] memory r = params.get_bpk(name);\n            G.G1Point memory s = gen_beaver_tuples(r);\n            //G.G1Point memory s = G.P1();\n            uint256[] memory ab = new uint256[](2);\n            uint256[] memory a = new uint256[](2);\n            uint256[] memory b = new uint256[](2);\n            uint256[] memory c = new uint256[](2);\n            uint256[2][] memory cm = new uint256[2][](commitments.length);\n            a[0] = witness.X;\n            a[1] = witness.Y;\n            ab[0] = s.X;ab[1] = s.Y;\n            b[0] = H.X;\n            b[1] = H.Y;\n            c[0] = S.X;\n            c[1] = S.Y;\n            for(uint i =0;i<commitments.length;i++){\n                cm[i][0] = commitments[i].X;\n                cm[i][1] = commitments[i].Y;\n            }\n            \n            emit send_self_revocation(kr,a, b,c, cm,ab,a_share, b_share, c_share);\n\n    }\n    function hash_to_G1(G.G1Point memory m) public view returns (G.G1Point memory){\n        uint256 cm = m.X;\n        uint256 cm2 = m.Y;\n        bytes32 bcm = bytes32(cm);\n        bytes32 bcm2 = bytes32(cm2);\n        bytes memory c = new bytes(64);\n        for(uint i=0;i<32;i++){\n            c[i] = bcm[i];\n        }\n        for(uint j=32;j<64;j++){\n            c[j] = bcm2[j-32];\n        }\n        uint256 id = uint256(sha256(c));\n        return G.HashToPoint(id);\n    }\n\n    function hash_to_int(G.G1Point memory a) public view returns(uint256){\n        G.G1Point memory b = hash_to_G1(a);\n        uint256 cm = b.X;\n        uint256 cm2 = b.Y;\n        bytes32 bcm = bytes32(cm);\n        bytes32 bcm2 = bytes32(cm2);\n        bytes memory c = new bytes(64);\n        for(uint i=0;i<32;i++){\n            c[i] = bcm[i];\n        }\n        for(uint j=32;j<64;j++){\n            c[j] = bcm2[j-32];\n        }\n        uint256 id = uint256(sha256(c));\n        return id;\n    }\n\n    function hash_to_int_2(G.G1Point memory a) public pure returns(uint256){\n        uint256 cm = a.X;\n        uint256 cm2 = a.Y;\n        bytes32 bcm = bytes32(cm);\n        bytes32 bcm2 = bytes32(cm2);\n        bytes memory c = new bytes(64);\n        for(uint i=0;i<32;i++){\n            c[i] = bcm[i];\n        }\n        for(uint j=32;j<64;j++){\n            c[j] = bcm2[j-32];\n        }\n        uint256 id = uint256(sha256(c));\n        return id;\n    }\n\n    function recieve_ya_share(uint id, uint256 share, uint256 request_id) public {\n        if(flag[request_id] == 1) return;\n\n        accumulator_key_shares[id-1]= share;\n        uint count = 0;\n        for (uint i=0; i<no; i++) \n        {\n            if(accumulator_key_shares[i] != 0) count++;\n        }\n        if(count==to){\n            uint256[2] memory W = [delta.X,delta.Y];\n\n            delta = G.g1mul(delta,aggregate_value(4));       \n            for (uint i=1; i<=no; i++) \n            {\n               accumulator_key_shares[i-1] = 0;\n            }\n\n            whitelist.push([id_kr[request_id],block.timestamp]);\n            flag[request_id] = 1;\n            emit send_W_kr(W,request_id,id_kr[request_id], block.timestamp);\n            //emit send_W_kr(W_m,delta,request_id);\n        }\n        \n    }\n\n    function updateWitness(uint256 time) public view returns (uint256[] memory, uint256[] memory, uint256 ){\n            uint256[] memory w1 = new uint256[](whitelist.length);\n            uint256[] memory b1 = new uint256[](blacklist.length);\n            uint c = 0;\n            for(uint i = whitelist.length-1; i>=0;i--){\n                if(whitelist[i][1] < time) break;\n                w1[c] = whitelist[i][0];\n                c++;\n            }\n            c = 0;\n            for(uint i = blacklist.length-1; i>=0;i--){\n                if(blacklist[i][1] < time) break;\n                b1[c] = blacklist[i][0];\n                c++;\n            }\n            return (w1,b1, block.timestamp);\n    }\n    function set_accumulator(uint _no,uint _to,uint _nv,uint _tv) public {\n        delta = G.P1();\n        no = _no;\n        nv = _nv;\n        to = _to;\n        tv = _tv;\n        a_poly = new uint256[](to);\n        b_poly = new uint256[](to);\n        c_poly = new uint256[](to);\n        a_share = new uint256[](no);\n        b_share = new uint256[](no);\n        c_share = new uint256[](no);\n        combine_di = new uint256[](no);\n        combine_ei = new uint256[](no);\n        combine_si = new uint256[](no);\n        accumulator_key_shares = new uint256[](no);\n        delta_shares = new uint256[](no);\n        for (uint i=1; i<=no; i++) \n        {\n            accumulator_key_shares[i-1] = 0;\n            delta_shares[i-1] = 0;\n            combine_di[i-1] = 0;combine_ei[i-1] = 0;combine_si[i-1] = 0;\n        }\n    }\n\n    function gen_share(uint256[] memory array, uint x) public view returns(uint256){\n        uint256 ans = 0;\n        uint256 o = G.GEN_ORDER;\n        for(uint i=0; i<array.length; i++){\n            ans = addmod(ans , mulmod(array[i],G.expMod(x,i,o),o),o); \n        }\n        return ans % o;\n    }\n\n    function generate_kr_shares(G.G1Point memory cm) public returns(uint256[] memory, uint256[] memory) {\n        uint256[] memory poly_validators = new uint256[](tv);\n        uint256[] memory poly_openers = new uint256[](to);\n        uint256[] memory validators_share = new uint256[](nv);\n        uint256[] memory openers_share = new uint256[](no);\n        uint256 kr = gen_random();\n        id_kr[hash_to_int(cm)] = kr;\n        \n        poly_validators[0] = kr;\n        poly_openers[0] = kr;\n        for(uint i=1; i<tv; i++){\n            poly_validators[i] = gen_random();\n        }\n        for(uint i=1; i<to; i++){\n            poly_openers[i] = gen_random();\n        }\n\n        for(uint i=1; i<=nv; i++){\n            validators_share[i-1] = gen_share(poly_validators,i);\n        }\n        for(uint i=1; i<=no; i++){\n            openers_share[i-1] = gen_share(poly_openers,i);\n        }\n        return (validators_share, openers_share);\n    }\n\n    function gen_random() private returns(uint256){\n        randNonce++;\n        return uint256(keccak256(abi.encodePacked(block.timestamp,msg.sender,randNonce))) % G.GEN_ORDER;\n    }\n}",
  "sourcePath": "/home/neel/acad/DTRAC/RAVC2/Admin/Blockchain/contracts/Accumulator.sol",
  "compiler": {
    "name": "solc",
    "version": "0.8.13+commit.abaa5c0e.Emscripten.clang"
  },
  "schemaVersion": "3.4.13",
  "updatedAt": "2023-08-09T19:10:52.494Z",
  "networkType": "ethereum",
  "devdoc": {
    "kind": "dev",
    "methods": {},
    "version": 1
  },
  "userdoc": {
    "kind": "user",
    "methods": {},
    "version": 1
  }
}