{
  "contractName": "Accumulator",
  "abi": [
    {
      "inputs": [
        {
          "internalType": "contract Params",
          "name": "_params",
          "type": "address"
        }
      ],
      "stateMutability": "nonpayable",
      "type": "constructor"
    },
    {
      "anonymous": false,
      "inputs": [
        {
          "indexed": false,
          "internalType": "uint256",
          "name": "c",
          "type": "uint256"
        }
      ],
      "name": "revocation_complete",
      "type": "event"
    },
    {
      "anonymous": false,
      "inputs": [
        {
          "indexed": false,
          "internalType": "uint256[2]",
          "name": "W",
          "type": "uint256[2]"
        },
        {
          "indexed": false,
          "internalType": "uint256",
          "name": "request_id",
          "type": "uint256"
        },
        {
          "indexed": false,
          "internalType": "uint256",
          "name": "kr",
          "type": "uint256"
        },
        {
          "indexed": false,
          "internalType": "uint256",
          "name": "timestamp",
          "type": "uint256"
        }
      ],
      "name": "send_W_kr",
      "type": "event"
    },
    {
      "anonymous": false,
      "inputs": [
        {
          "indexed": false,
          "internalType": "uint256",
          "name": "d",
          "type": "uint256"
        },
        {
          "indexed": false,
          "internalType": "uint256",
          "name": "e",
          "type": "uint256"
        }
      ],
      "name": "send_d_and_e",
      "type": "event"
    },
    {
      "anonymous": false,
      "inputs": [
        {
          "indexed": false,
          "internalType": "uint256",
          "name": "s",
          "type": "uint256"
        }
      ],
      "name": "send_s",
      "type": "event"
    },
    {
      "anonymous": false,
      "inputs": [
        {
          "indexed": false,
          "internalType": "uint256",
          "name": "kr",
          "type": "uint256"
        },
        {
          "indexed": false,
          "internalType": "uint256[]",
          "name": "W",
          "type": "uint256[]"
        },
        {
          "indexed": false,
          "internalType": "uint256[]",
          "name": "H",
          "type": "uint256[]"
        },
        {
          "indexed": false,
          "internalType": "uint256[]",
          "name": "S",
          "type": "uint256[]"
        },
        {
          "indexed": false,
          "internalType": "uint256[2][]",
          "name": "cm",
          "type": "uint256[2][]"
        },
        {
          "indexed": false,
          "internalType": "uint256[]",
          "name": "g1_r",
          "type": "uint256[]"
        },
        {
          "indexed": false,
          "internalType": "uint256[]",
          "name": "a_share",
          "type": "uint256[]"
        },
        {
          "indexed": false,
          "internalType": "uint256[]",
          "name": "b_share",
          "type": "uint256[]"
        },
        {
          "indexed": false,
          "internalType": "uint256[]",
          "name": "c_share",
          "type": "uint256[]"
        }
      ],
      "name": "send_self_revocation",
      "type": "event"
    },
    {
      "anonymous": false,
      "inputs": [
        {
          "components": [
            {
              "internalType": "uint256",
              "name": "X",
              "type": "uint256"
            },
            {
              "internalType": "uint256",
              "name": "Y",
              "type": "uint256"
            }
          ],
          "indexed": false,
          "internalType": "struct G.G1Point",
          "name": "delta",
          "type": "tuple"
        }
      ],
      "name": "send_updated_witness",
      "type": "event"
    },
    {
      "inputs": [
        {
          "internalType": "uint256[]",
          "name": "indexes",
          "type": "uint256[]"
        }
      ],
      "name": "lagrange_basis",
      "outputs": [
        {
          "internalType": "uint256[]",
          "name": "",
          "type": "uint256[]"
        }
      ],
      "stateMutability": "view",
      "type": "function",
      "constant": true
    },
    {
      "inputs": [],
      "name": "genAggregatedYa",
      "outputs": [
        {
          "components": [
            {
              "internalType": "uint256",
              "name": "X",
              "type": "uint256"
            },
            {
              "internalType": "uint256",
              "name": "Y",
              "type": "uint256"
            }
          ],
          "internalType": "struct G.G1Point",
          "name": "",
          "type": "tuple"
        }
      ],
      "stateMutability": "view",
      "type": "function",
      "constant": true
    },
    {
      "inputs": [],
      "name": "genAggregatedYa_2",
      "outputs": [
        {
          "components": [
            {
              "internalType": "uint256",
              "name": "X",
              "type": "uint256"
            },
            {
              "internalType": "uint256",
              "name": "Y",
              "type": "uint256"
            }
          ],
          "internalType": "struct G.G1Point",
          "name": "",
          "type": "tuple"
        }
      ],
      "stateMutability": "view",
      "type": "function",
      "constant": true
    },
    {
      "inputs": [
        {
          "internalType": "uint256",
          "name": "ya",
          "type": "uint256"
        },
        {
          "internalType": "uint256",
          "name": "kr",
          "type": "uint256"
        }
      ],
      "name": "updateDelta",
      "outputs": [],
      "stateMutability": "nonpayable",
      "type": "function"
    },
    {
      "inputs": [],
      "name": "get_delta",
      "outputs": [
        {
          "internalType": "uint256",
          "name": "",
          "type": "uint256"
        },
        {
          "internalType": "uint256",
          "name": "",
          "type": "uint256"
        }
      ],
      "stateMutability": "view",
      "type": "function",
      "constant": true
    },
    {
      "inputs": [
        {
          "internalType": "uint256",
          "name": "id",
          "type": "uint256"
        },
        {
          "components": [
            {
              "internalType": "uint256",
              "name": "X",
              "type": "uint256"
            },
            {
              "internalType": "uint256",
              "name": "Y",
              "type": "uint256"
            }
          ],
          "internalType": "struct G.G1Point",
          "name": "share",
          "type": "tuple"
        },
        {
          "internalType": "uint256",
          "name": "request_id",
          "type": "uint256"
        }
      ],
      "name": "recieve_share_for_revocation",
      "outputs": [],
      "stateMutability": "nonpayable",
      "type": "function"
    },
    {
      "inputs": [
        {
          "internalType": "uint256",
          "name": "fl",
          "type": "uint256"
        }
      ],
      "name": "aggregate_value",
      "outputs": [
        {
          "internalType": "uint256",
          "name": "",
          "type": "uint256"
        }
      ],
      "stateMutability": "view",
      "type": "function",
      "constant": true
    },
    {
      "inputs": [
        {
          "internalType": "uint256",
          "name": "di",
          "type": "uint256"
        },
        {
          "internalType": "uint256",
          "name": "ei",
          "type": "uint256"
        },
        {
          "internalType": "uint256",
          "name": "id",
          "type": "uint256"
        }
      ],
      "name": "combine_di_and_ei",
      "outputs": [],
      "stateMutability": "nonpayable",
      "type": "function"
    },
    {
      "inputs": [
        {
          "internalType": "uint256",
          "name": "si",
          "type": "uint256"
        },
        {
          "internalType": "uint256",
          "name": "id",
          "type": "uint256"
        }
      ],
      "name": "combine_func_si",
      "outputs": [],
      "stateMutability": "nonpayable",
      "type": "function"
    },
    {
      "inputs": [
        {
          "components": [
            {
              "internalType": "uint256",
              "name": "X",
              "type": "uint256"
            },
            {
              "internalType": "uint256",
              "name": "Y",
              "type": "uint256"
            }
          ],
          "internalType": "struct G.G1Point[]",
          "name": "pub_key",
          "type": "tuple[]"
        }
      ],
      "name": "gen_beaver_tuples",
      "outputs": [
        {
          "components": [
            {
              "internalType": "uint256",
              "name": "X",
              "type": "uint256"
            },
            {
              "internalType": "uint256",
              "name": "Y",
              "type": "uint256"
            }
          ],
          "internalType": "struct G.G1Point",
          "name": "",
          "type": "tuple"
        }
      ],
      "stateMutability": "nonpayable",
      "type": "function"
    },
    {
      "inputs": [
        {
          "internalType": "string",
          "name": "name",
          "type": "string"
        },
        {
          "internalType": "uint256",
          "name": "kr",
          "type": "uint256"
        },
        {
          "components": [
            {
              "internalType": "uint256",
              "name": "X",
              "type": "uint256"
            },
            {
              "internalType": "uint256",
              "name": "Y",
              "type": "uint256"
            }
          ],
          "internalType": "struct G.G1Point",
          "name": "witness",
          "type": "tuple"
        },
        {
          "components": [
            {
              "internalType": "uint256",
              "name": "X",
              "type": "uint256"
            },
            {
              "internalType": "uint256",
              "name": "Y",
              "type": "uint256"
            }
          ],
          "internalType": "struct G.G1Point",
          "name": "H",
          "type": "tuple"
        },
        {
          "components": [
            {
              "internalType": "uint256",
              "name": "X",
              "type": "uint256"
            },
            {
              "internalType": "uint256",
              "name": "Y",
              "type": "uint256"
            }
          ],
          "internalType": "struct G.G1Point",
          "name": "S",
          "type": "tuple"
        },
        {
          "components": [
            {
              "internalType": "uint256",
              "name": "X",
              "type": "uint256"
            },
            {
              "internalType": "uint256",
              "name": "Y",
              "type": "uint256"
            }
          ],
          "internalType": "struct G.G1Point[]",
          "name": "commitments",
          "type": "tuple[]"
        }
      ],
      "name": "verify_revocation_request",
      "outputs": [],
      "stateMutability": "nonpayable",
      "type": "function"
    },
    {
      "inputs": [
        {
          "components": [
            {
              "internalType": "uint256",
              "name": "X",
              "type": "uint256"
            },
            {
              "internalType": "uint256",
              "name": "Y",
              "type": "uint256"
            }
          ],
          "internalType": "struct G.G1Point",
          "name": "m",
          "type": "tuple"
        }
      ],
      "name": "hash_to_G1",
      "outputs": [
        {
          "components": [
            {
              "internalType": "uint256",
              "name": "X",
              "type": "uint256"
            },
            {
              "internalType": "uint256",
              "name": "Y",
              "type": "uint256"
            }
          ],
          "internalType": "struct G.G1Point",
          "name": "",
          "type": "tuple"
        }
      ],
      "stateMutability": "view",
      "type": "function",
      "constant": true
    },
    {
      "inputs": [
        {
          "components": [
            {
              "internalType": "uint256",
              "name": "X",
              "type": "uint256"
            },
            {
              "internalType": "uint256",
              "name": "Y",
              "type": "uint256"
            }
          ],
          "internalType": "struct G.G1Point",
          "name": "a",
          "type": "tuple"
        }
      ],
      "name": "hash_to_int",
      "outputs": [
        {
          "internalType": "uint256",
          "name": "",
          "type": "uint256"
        }
      ],
      "stateMutability": "view",
      "type": "function",
      "constant": true
    },
    {
      "inputs": [
        {
          "components": [
            {
              "internalType": "uint256",
              "name": "X",
              "type": "uint256"
            },
            {
              "internalType": "uint256",
              "name": "Y",
              "type": "uint256"
            }
          ],
          "internalType": "struct G.G1Point",
          "name": "a",
          "type": "tuple"
        }
      ],
      "name": "hash_to_int_2",
      "outputs": [
        {
          "internalType": "uint256",
          "name": "",
          "type": "uint256"
        }
      ],
      "stateMutability": "pure",
      "type": "function",
      "constant": true
    },
    {
      "inputs": [
        {
          "internalType": "uint256",
          "name": "id",
          "type": "uint256"
        },
        {
          "components": [
            {
              "internalType": "uint256",
              "name": "X",
              "type": "uint256"
            },
            {
              "internalType": "uint256",
              "name": "Y",
              "type": "uint256"
            }
          ],
          "internalType": "struct G.G1Point",
          "name": "share",
          "type": "tuple"
        },
        {
          "internalType": "uint256",
          "name": "request_id",
          "type": "uint256"
        }
      ],
      "name": "recieve_ya_share",
      "outputs": [],
      "stateMutability": "nonpayable",
      "type": "function"
    },
    {
      "inputs": [
        {
          "internalType": "uint256",
          "name": "time",
          "type": "uint256"
        }
      ],
      "name": "updateWitness",
      "outputs": [
        {
          "internalType": "uint256[]",
          "name": "",
          "type": "uint256[]"
        },
        {
          "internalType": "uint256[]",
          "name": "",
          "type": "uint256[]"
        },
        {
          "internalType": "uint256",
          "name": "",
          "type": "uint256"
        }
      ],
      "stateMutability": "view",
      "type": "function",
      "constant": true
    },
    {
      "inputs": [
        {
          "internalType": "uint256",
          "name": "_no",
          "type": "uint256"
        },
        {
          "internalType": "uint256",
          "name": "_to",
          "type": "uint256"
        },
        {
          "internalType": "uint256",
          "name": "_nv",
          "type": "uint256"
        },
        {
          "internalType": "uint256",
          "name": "_tv",
          "type": "uint256"
        }
      ],
      "name": "set_accumulator",
      "outputs": [],
      "stateMutability": "nonpayable",
      "type": "function"
    },
    {
      "inputs": [
        {
          "internalType": "uint256[]",
          "name": "array",
          "type": "uint256[]"
        },
        {
          "internalType": "uint256",
          "name": "x",
          "type": "uint256"
        }
      ],
      "name": "gen_share",
      "outputs": [
        {
          "internalType": "uint256",
          "name": "",
          "type": "uint256"
        }
      ],
      "stateMutability": "view",
      "type": "function",
      "constant": true
    },
    {
      "inputs": [
        {
          "components": [
            {
              "internalType": "uint256",
              "name": "X",
              "type": "uint256"
            },
            {
              "internalType": "uint256",
              "name": "Y",
              "type": "uint256"
            }
          ],
          "internalType": "struct G.G1Point",
          "name": "cm",
          "type": "tuple"
        }
      ],
      "name": "generate_kr_shares",
      "outputs": [
        {
          "internalType": "uint256[]",
          "name": "",
          "type": "uint256[]"
        },
        {
          "internalType": "uint256[]",
          "name": "",
          "type": "uint256[]"
        }
      ],
      "stateMutability": "nonpayable",
      "type": "function"
    }
  ],
  "bytecode": "0x608060405260006004553480156200001657600080fd5b5060405162004c1538038062004c1583398181016040528101906200003c919062000142565b336000806101000a81548173ffffffffffffffffffffffffffffffffffffffff021916908373ffffffffffffffffffffffffffffffffffffffff16021790555080600160006101000a81548173ffffffffffffffffffffffffffffffffffffffff021916908373ffffffffffffffffffffffffffffffffffffffff1602179055505062000174565b600080fd5b600073ffffffffffffffffffffffffffffffffffffffff82169050919050565b6000620000f682620000c9565b9050919050565b60006200010a82620000e9565b9050919050565b6200011c81620000fd565b81146200012857600080fd5b50565b6000815190506200013c8162000111565b92915050565b6000602082840312156200015b576200015a620000c4565b5b60006200016b848285016200012b565b91505092915050565b614a9180620001846000396000f3fe608060405234801561001057600080fd5b50600436106101215760003560e01c80636b38051c116100ad578063af7fbf9311610071578063af7fbf931461033e578063cdb1ad7514610370578063df96e6731461038e578063eb205bbe146103ac578063f5bc91fd146103dc57610121565b80636b38051c146102725780639162c47d1461028e57806399cb40c1146102bf578063a12c5f54146102de578063a97dd5ef1461030e57610121565b806341b6e686116100f457806341b6e686146101be57806342afaa4a146101da57806344ad07451461020a57806357e5d2881461023a578063678e3ce71461025657610121565b8063081378cb146101265780630a9665da146101425780630c4bfdc8146101725780633553964a146101a2575b600080fd5b610140600480360381019061013b9190613920565b6103f8565b005b61015c60048036038101906101579190613ab9565b610499565b6040516101699190613b24565b60405180910390f35b61018c60048036038101906101879190613b94565b610544565b6040516101999190613b24565b60405180910390f35b6101bc60048036038101906101b79190613bc1565b610720565b005b6101d860048036038101906101d39190613c28565b610bfe565b005b6101f460048036038101906101ef9190613c7b565b610e25565b6040516102019190613d82565b60405180910390f35b610224600480360381019061021f9190613b94565b610ff4565b6040516102319190613dd3565b60405180910390f35b610254600480360381019061024f9190613f66565b6111df565b005b610270600480360381019061026b9190613920565b61166f565b005b61028c6004803603810190610287919061402d565b6117ad565b005b6102a860048036038101906102a39190613b94565b61195c565b6040516102b6929190614080565b60405180910390f35b6102c7611c63565b6040516102d59291906140b7565b60405180910390f35b6102f860048036038101906102f391906140e0565b611c7a565b6040516103059190613dd3565b60405180910390f35b61032860048036038101906103239190614129565b6120ee565b6040516103359190613b24565b60405180910390f35b61035860048036038101906103539190614129565b612441565b60405161036793929190614156565b60405180910390f35b6103786126a9565b6040516103859190613dd3565b60405180910390f35b610396612a15565b6040516103a39190613dd3565b60405180910390f35b6103c660048036038101906103c19190613b94565b612d81565b6040516103d39190613b24565b60405180910390f35b6103f660048036038101906103f19190613c28565b612f6b565b005b61047c6002604051806040016040529081600082015481526020016001820154815250506104777f30644e72e131a029b85045b68181585d2833e84879b9709143e1f593f00000018061044e5761044d61419b565b5b8585087f30644e72e131a029b85045b68181585d2833e84879b9709143e1f593f00000016131ce565b613220565b600260008201518160000155602082015181600101559050505050565b6000806000905060007f30644e72e131a029b85045b68181585d2833e84879b9709143e1f593f0000001905060005b855181101561052d5781806104e0576104df61419b565b5b82806104ef576104ee61419b565b5b6104fa8784866132c2565b88848151811061050d5761050c6141ca565b5b60200260200101510984089250808061052590614228565b9150506104c8565b50808261053a9190614270565b9250505092915050565b6000808260000151905060008360200151905060008260001b905060008260001b90506000604067ffffffffffffffff81111561058457610583613976565b5b6040519080825280601f01601f1916602001820160405280156105b65781602001600182028036833780820191505090505b50905060005b6020811015610631578381602081106105d8576105d76141ca565b5b1a60f81b8282815181106105ef576105ee6141ca565b5b60200101907effffffffffffffffffffffffffffffffffffffffffffffffffffffffffffff1916908160001a905350808061062990614228565b9150506105bc565b506000602090505b60408110156106ba578260208261065091906142a1565b60208110610661576106606141ca565b5b1a60f81b828281518110610678576106776141ca565b5b60200101907effffffffffffffffffffffffffffffffffffffffffffffffffffffffffffff1916908160001a90535080806106b290614228565b915050610639565b5060006002826040516106cd919061434f565b602060405180830381855afa1580156106ea573d6000803e3d6000fd5b5050506040513d601f19601f8201168201806040525081019061070d919061439c565b60001c9050809650505050505050919050565b6107286133d7565b600260008201518160000155602082015181600101559050508360058190555081600781905550826006819055508060088190555060065467ffffffffffffffff81111561077957610778613976565b5b6040519080825280602002602001820160405280156107a75781602001602082028036833780820191505090505b50601290805190602001906107bd929190613723565b5060065467ffffffffffffffff8111156107da576107d9613976565b5b6040519080825280602002602001820160405280156108085781602001602082028036833780820191505090505b506013908051906020019061081e929190613723565b5060065467ffffffffffffffff81111561083b5761083a613976565b5b6040519080825280602002602001820160405280156108695781602001602082028036833780820191505090505b506014908051906020019061087f929190613723565b5060055467ffffffffffffffff81111561089c5761089b613976565b5b6040519080825280602002602001820160405280156108ca5781602001602082028036833780820191505090505b50601590805190602001906108e0929190613723565b5060055467ffffffffffffffff8111156108fd576108fc613976565b5b60405190808252806020026020018201604052801561092b5781602001602082028036833780820191505090505b5060169080519060200190610941929190613723565b5060055467ffffffffffffffff81111561095e5761095d613976565b5b60405190808252806020026020018201604052801561098c5781602001602082028036833780820191505090505b50601790805190602001906109a2929190613723565b5060055467ffffffffffffffff8111156109bf576109be613976565b5b6040519080825280602002602001820160405280156109ed5781602001602082028036833780820191505090505b50600b9080519060200190610a03929190613723565b5060055467ffffffffffffffff811115610a2057610a1f613976565b5b604051908082528060200260200182016040528015610a4e5781602001602082028036833780820191505090505b50600c9080519060200190610a64929190613723565b5060055467ffffffffffffffff811115610a8157610a80613976565b5b604051908082528060200260200182016040528015610aaf5781602001602082028036833780820191505090505b50600d9080519060200190610ac5929190613723565b506000600190505b6005548111610bf7576040518060400160405280600060ff168152602001600060ff1681525060096000838152602001908152602001600020906002610b14929190613770565b506040518060400160405280600060ff168152602001600060ff16815250600a6000838152602001908152602001600020906002610b53929190613770565b506000600b600183610b6591906142a1565b81548110610b7657610b756141ca565b5b90600052602060002001819055506000600c600183610b9591906142a1565b81548110610ba657610ba56141ca565b5b90600052602060002001819055506000600d600183610bc591906142a1565b81548110610bd657610bd56141ca565b5b90600052602060002001819055508080610bef90614228565b915050610acd565b5050505050565b6002600f6000838152602001908152602001600020540315610e20578160000151600a6000858152602001908152602001600020600060028110610c4557610c446141ca565b5b01819055508160200151600a6000858152602001908152602001600020600160028110610c7557610c746141ca565b5b0181905550600080600190505b6005548111610cdc576000600a6000838152602001908152602001600020600060028110610cb357610cb26141ca565b5b015414610cc9578180610cc590614228565b9250505b8080610cd490614228565b915050610c82565b506006548103610e1e57610cee612a15565b600260008201518160000155602082015181600101559050506000600190505b6005548111610d69576040518060400160405280600060ff168152602001600060ff16815250600a6000838152602001908152602001600020906002610d55929190613770565b508080610d6190614228565b915050610d0e565b5060116040518060400160405280600e6000868152602001908152602001600020548152602001428152509080600181540180825580915050600190039060005260206000209060020201600090919091909150906002610dcb9291906137b5565b506002600f6000848152602001908152602001600020819055507f228350e9fba4ca8cb2df19d985a1733382771e67c2d2d414501b28e9ae5e5a246001604051610e15919061440e565b60405180910390a15b505b505050565b606060007f30644e72e131a029b85045b68181585d2833e84879b9709143e1f593f000000190506000835167ffffffffffffffff811115610e6957610e68613976565b5b604051908082528060200260200182016040528015610e975781602001602082028036833780820191505090505b50905060005b8451811015610fe95760006001905060006001905060005b8751811015610f99576000888581518110610ed357610ed26141ca565b5b602002602001015190506000898381518110610ef257610ef16141ca565b5b6020026020010151905081811115610f3c578780610f1357610f1261419b565b5b81860994508780610f2757610f2661419b565b5b8282610f3391906142a1565b85099350610f84565b81811015610f83578780610f5357610f5261419b565b5b85828a610f6091906142a1565b0994508780610f7257610f7161419b565b5b8183610f7e91906142a1565b850993505b5b50508080610f9190614228565b915050610eb5565b508480610fa957610fa861419b565b5b610fb382876131ce565b8309848481518110610fc857610fc76141ca565b5b60200260200101818152505050508080610fe190614228565b915050610e9d565b508092505050919050565b610ffc6137f5565b60008260000151905060008360200151905060008260001b905060008260001b90506000604067ffffffffffffffff81111561103b5761103a613976565b5b6040519080825280601f01601f19166020018201604052801561106d5781602001600182028036833780820191505090505b50905060005b60208110156110e85783816020811061108f5761108e6141ca565b5b1a60f81b8282815181106110a6576110a56141ca565b5b60200101907effffffffffffffffffffffffffffffffffffffffffffffffffffffffffffff1916908160001a90535080806110e090614228565b915050611073565b506000602090505b6040811015611171578260208261110791906142a1565b60208110611118576111176141ca565b5b1a60f81b82828151811061112f5761112e6141ca565b5b60200101907effffffffffffffffffffffffffffffffffffffffffffffffffffffffffffff1916908160001a905350808061116990614228565b9150506110f0565b506000600282604051611184919061434f565b602060405180830381855afa1580156111a1573d6000803e3d6000fd5b5050506040513d601f19601f820116820180604052508101906111c4919061439c565b60001c90506111d2816133fb565b9650505050505050919050565b6000600160009054906101000a900473ffffffffffffffffffffffffffffffffffffffff1673ffffffffffffffffffffffffffffffffffffffff1663da1b7353886040518263ffffffff1660e01b815260040161123c919061447e565b600060405180830381865afa158015611259573d6000803e3d6000fd5b505050506040513d6000823e3d601f19601f82011682018060405250810190611282919061459c565b9050600061128f82611c7a565b90506000600267ffffffffffffffff8111156112ae576112ad613976565b5b6040519080825280602002602001820160405280156112dc5781602001602082028036833780820191505090505b5090506000600267ffffffffffffffff8111156112fc576112fb613976565b5b60405190808252806020026020018201604052801561132a5781602001602082028036833780820191505090505b5090506000600267ffffffffffffffff81111561134a57611349613976565b5b6040519080825280602002602001820160405280156113785781602001602082028036833780820191505090505b5090506000600267ffffffffffffffff81111561139857611397613976565b5b6040519080825280602002602001820160405280156113c65781602001602082028036833780820191505090505b5090506000875167ffffffffffffffff8111156113e6576113e5613976565b5b60405190808252806020026020018201604052801561141f57816020015b61140c61380f565b8152602001906001900390816114045790505b5090508a600001518460008151811061143b5761143a6141ca565b5b6020026020010181815250508a60200151846001815181106114605761145f6141ca565b5b602002602001018181525050856000015185600081518110611485576114846141ca565b5b6020026020010181815250508560200151856001815181106114aa576114a96141ca565b5b6020026020010181815250508960000151836000815181106114cf576114ce6141ca565b5b6020026020010181815250508960200151836001815181106114f4576114f36141ca565b5b602002602001018181525050886000015182600081518110611519576115186141ca565b5b60200260200101818152505088602001518260018151811061153e5761153d6141ca565b5b60200260200101818152505060005b885181101561161557888181518110611569576115686141ca565b5b602002602001015160000151828281518110611588576115876141ca565b5b60200260200101516000600281106115a3576115a26141ca565b5b6020020181815250508881815181106115bf576115be6141ca565b5b6020026020010151602001518282815181106115de576115dd6141ca565b5b60200260200101516001600281106115f9576115f86141ca565b5b602002018181525050808061160d90614228565b91505061154d565b507ffda0b770c8d1faa15a6c7b550e78ae6726e88db3cc8625272952c35709d613e48c858585858a601560166017604051611658999897969594939291906147ee565b60405180910390a150505050505050505050505050565b81600d60018361167f91906142a1565b815481106116905761168f6141ca565b5b9060005260206000200181905550600080600190505b6005548111611703576000600d6001836116c091906142a1565b815481106116d1576116d06141ca565b5b9060005260206000200154146116f05781806116ec90614228565b9250505b80806116fb90614228565b9150506116a6565b5060065481036117a857600061171960036120ee565b90506000600190505b600554811161176e576000600d60018361173c91906142a1565b8154811061174d5761174c6141ca565b5b9060005260206000200181905550808061176690614228565b915050611722565b507fe2bf728ddeaf0f902e51fa4a19c05df0fbc730aa1418d6228d781c28dfbe335b8160405161179e9190613b24565b60405180910390a1505b505050565b82600b6001836117bd91906142a1565b815481106117ce576117cd6141ca565b5b906000526020600020018190555081600c6001836117ec91906142a1565b815481106117fd576117fc6141ca565b5b9060005260206000200181905550600080600190505b6005548111611870576000600b60018361182d91906142a1565b8154811061183e5761183d6141ca565b5b90600052602060002001541461185d57818061185990614228565b9250505b808061186890614228565b915050611813565b50600654810361195657600061188660016120ee565b9050600061189460026120ee565b90506000600190505b6005548111611919576000600b6001836118b791906142a1565b815481106118c8576118c76141ca565b5b90600052602060002001819055506000600c6001836118e791906142a1565b815481106118f8576118f76141ca565b5b9060005260206000200181905550808061191190614228565b91505061189d565b507f6e68679b84320a372409ded6f9a8ca55b03490f642a139b63e5cd7bf47403873828260405161194b9291906140b7565b60405180910390a150505b50505050565b606080600060085467ffffffffffffffff81111561197d5761197c613976565b5b6040519080825280602002602001820160405280156119ab5781602001602082028036833780820191505090505b509050600060065467ffffffffffffffff8111156119cc576119cb613976565b5b6040519080825280602002602001820160405280156119fa5781602001602082028036833780820191505090505b509050600060075467ffffffffffffffff811115611a1b57611a1a613976565b5b604051908082528060200260200182016040528015611a495781602001602082028036833780820191505090505b509050600060055467ffffffffffffffff811115611a6a57611a69613976565b5b604051908082528060200260200182016040528015611a985781602001602082028036833780820191505090505b5090506000611aa56134e9565b905080600e6000611ab58b612d81565b8152602001908152602001600020819055508085600081518110611adc57611adb6141ca565b5b6020026020010181815250508084600081518110611afd57611afc6141ca565b5b6020026020010181815250506000600190505b600854811015611b5457611b226134e9565b868281518110611b3557611b346141ca565b5b6020026020010181815250508080611b4c90614228565b915050611b10565b506000600190505b600654811015611ba057611b6e6134e9565b858281518110611b8157611b806141ca565b5b6020026020010181815250508080611b9890614228565b915050611b5c565b506000600190505b6007548111611bf957611bbb8682610499565b84600183611bc991906142a1565b81518110611bda57611bd96141ca565b5b6020026020010181815250508080611bf190614228565b915050611ba8565b506000600190505b6005548111611c5257611c148582610499565b83600183611c2291906142a1565b81518110611c3357611c326141ca565b5b6020026020010181815250508080611c4a90614228565b915050611c01565b508282965096505050505050915091565b600080600260000154600260010154915091509091565b611c826137f5565b6000611c8c6134e9565b90506000611c986134e9565b90506000611ca46134e9565b905060007f30644e72e131a029b85045b68181585d2833e84879b9709143e1f593f000000180611cd757611cd661419b565b5b8385099050600060055467ffffffffffffffff811115611cfa57611cf9613976565b5b604051908082528060200260200182016040528015611d3357816020015b611d206137f5565b815260200190600190039081611d185790505b509050846012600081548110611d4c57611d4b6141ca565b5b9060005260206000200181905550836013600081548110611d7057611d6f6141ca565b5b9060005260206000200181905550816014600081548110611d9457611d936141ca565b5b90600052602060002001819055506000600190505b600654811015611e4457611dbb6134e9565b60128281548110611dcf57611dce6141ca565b5b9060005260206000200181905550611de56134e9565b60138281548110611df957611df86141ca565b5b9060005260206000200181905550611e0f6134e9565b60148281548110611e2357611e226141ca565b5b90600052602060002001819055508080611e3c90614228565b915050611da9565b506000611e58611e526133d7565b85613220565b90506000600190505b6005548111611ed757611e9a89600183611e7b91906142a1565b81518110611e8c57611e8b6141ca565b5b602002602001015186613220565b83600183611ea891906142a1565b81518110611eb957611eb86141ca565b5b60200260200101819052508080611ecf90614228565b915050611e61565b506000600190505b60055481116120df576000611f1984600184611efb91906142a1565b81518110611f0c57611f0b6141ca565b5b6020026020010151610544565b90506000611f776012805480602002602001604051908101604052809291908181526020018280548015611f6c57602002820191906000526020600020905b815481526020019060010190808311611f58575b505050505084610499565b90506000611fd56013805480602002602001604051908101604052809291908181526020018280548015611fca57602002820191906000526020600020905b815481526020019060010190808311611fb6575b505050505085610499565b90506000612033601480548060200260200160405190810160405280929190818152602001828054801561202857602002820191906000526020600020905b815481526020019060010190808311612014575b505050505086610499565b9050828418601560018761204791906142a1565b81548110612058576120576141ca565b5b9060005260206000200181905550818418601660018761207891906142a1565b81548110612089576120886141ca565b5b906000526020600020018190555080841860176001876120a991906142a1565b815481106120ba576120b96141ca565b5b90600052602060002001819055505050505080806120d790614228565b915050611edf565b50809650505050505050919050565b60008060065467ffffffffffffffff81111561210d5761210c613976565b5b60405190808252806020026020018201604052801561213b5781602001602082028036833780820191505090505b509050600060065467ffffffffffffffff81111561215c5761215b613976565b5b60405190808252806020026020018201604052801561218a5781602001602082028036833780820191505090505b5090506060600185036121ef57600b8054806020026020016040519081016040528092919081815260200182805480156121e357602002820191906000526020600020905b8154815260200190600101908083116121cf575b505050505090506122a4565b6002850361224f57600c80548060200260200160405190810160405280929190818152602001828054801561224357602002820191906000526020600020905b81548152602001906001019080831161222f575b505050505090506122a3565b600d80548060200260200160405190810160405280929190818152602001828054801561229b57602002820191906000526020600020905b815481526020019060010190808311612287575b505050505090505b5b600080600190505b600554811161236b576000836001836122c591906142a1565b815181106122d6576122d56141ca565b5b60200260200101511461235857808583815181106122f7576122f66141ca565b5b6020026020010181815250508260018261231191906142a1565b81518110612322576123216141ca565b5b602002602001015184838151811061233d5761233c6141ca565b5b602002602001018181525050818061235490614228565b9250505b808061236390614228565b9150506122ac565b50600061237785610e25565b90506000805b8651811015612432577f30644e72e131a029b85045b68181585d2833e84879b9709143e1f593f0000001806123b5576123b461419b565b5b7f30644e72e131a029b85045b68181585d2833e84879b9709143e1f593f0000001806123e4576123e361419b565b5b8483815181106123f7576123f66141ca565b5b6020026020010151888481518110612412576124116141ca565b5b60200260200101510983089150808061242a90614228565b91505061237d565b50809650505050505050919050565b60608060008060108054905067ffffffffffffffff81111561246657612465613976565b5b6040519080825280602002602001820160405280156124945781602001602082028036833780820191505090505b509050600060118054905067ffffffffffffffff8111156124b8576124b7613976565b5b6040519080825280602002602001820160405280156124e65781602001602082028036833780820191505090505b50905060008060016010805490506124fe91906142a1565b90505b600081106125bd57876010828154811061251e5761251d6141ca565b5b906000526020600020906002020160016002811061253f5761253e6141ca565b5b0154106125bd576010818154811061255a576125596141ca565b5b906000526020600020906002020160006002811061257b5761257a6141ca565b5b01548483815181106125905761258f6141ca565b5b60200260200101818152505081806125a790614228565b92505080806125b5906148b3565b915050612501565b5060009050600060016011805490506125d691906142a1565b90505b600081106126955787601182815481106125f6576125f56141ca565b5b9060005260206000209060020201600160028110612617576126166141ca565b5b0154106126955760118181548110612632576126316141ca565b5b9060005260206000209060020201600060028110612653576126526141ca565b5b0154838381518110612668576126676141ca565b5b602002602001018181525050818061267f90614228565b925050808061268d906148b3565b9150506125d9565b508282429550955095505050509193909250565b6126b16137f5565b600060065467ffffffffffffffff8111156126cf576126ce613976565b5b6040519080825280602002602001820160405280156126fd5781602001602082028036833780820191505090505b509050600060065467ffffffffffffffff81111561271e5761271d613976565b5b60405190808252806020026020018201604052801561275757816020015b61274461380f565b81526020019060019003908161273c5790505b509050600080600190505b600554811161287f57600060096000838152602001908152602001600020600060028110612793576127926141ca565b5b0154141580156127cb57506000600960008381526020019081526020016000206001600281106127c6576127c56141ca565b5b015414155b1561286c57808483815181106127e4576127e36141ca565b5b6020026020010181815250506009600082815260200190815260200160002060028060200260405190810160405280929190826002801561283a576020028201915b815481526020019060010190808311612826575b5050505050838381518110612852576128516141ca565b5b6020026020010181905250818061286890614228565b9250505b808061287790614228565b915050612762565b50600061288b84610e25565b90506128956137f5565b836000815181106128a9576128a86141ca565b5b60200260200101516000600281106128c4576128c36141ca565b5b6020020151816000018181525050836000815181106128e6576128e56141ca565b5b6020026020010151600160028110612901576129006141ca565b5b60200201518160200181815250506129348183600081518110612927576129266141ca565b5b6020026020010151613220565b90506000600190505b8551811015612a095761294e6137f5565b858281518110612961576129606141ca565b5b602002602001015160006002811061297c5761297b6141ca565b5b602002015181600001818152505085828151811061299d5761299c6141ca565b5b60200260200101516001600281106129b8576129b76141ca565b5b60200201518160200181815250506129f3836129ee838786815181106129e1576129e06141ca565b5b6020026020010151613220565b613563565b9250508080612a0190614228565b91505061293d565b50809550505050505090565b612a1d6137f5565b600060065467ffffffffffffffff811115612a3b57612a3a613976565b5b604051908082528060200260200182016040528015612a695781602001602082028036833780820191505090505b509050600060065467ffffffffffffffff811115612a8a57612a89613976565b5b604051908082528060200260200182016040528015612ac357816020015b612ab061380f565b815260200190600190039081612aa85790505b509050600080600190505b6005548111612beb576000600a6000838152602001908152602001600020600060028110612aff57612afe6141ca565b5b015414158015612b3757506000600a6000838152602001908152602001600020600160028110612b3257612b316141ca565b5b015414155b15612bd85780848381518110612b5057612b4f6141ca565b5b602002602001018181525050600a6000828152602001908152602001600020600280602002604051908101604052809291908260028015612ba6576020028201915b815481526020019060010190808311612b92575b5050505050838381518110612bbe57612bbd6141ca565b5b60200260200101819052508180612bd490614228565b9250505b8080612be390614228565b915050612ace565b506000612bf784610e25565b9050612c016137f5565b83600081518110612c1557612c146141ca565b5b6020026020010151600060028110612c3057612c2f6141ca565b5b602002015181600001818152505083600081518110612c5257612c516141ca565b5b6020026020010151600160028110612c6d57612c6c6141ca565b5b6020020151816020018181525050612ca08183600081518110612c9357612c926141ca565b5b6020026020010151613220565b90506000600190505b8551811015612d7557612cba6137f5565b858281518110612ccd57612ccc6141ca565b5b6020026020010151600060028110612ce857612ce76141ca565b5b6020020151816000018181525050858281518110612d0957612d086141ca565b5b6020026020010151600160028110612d2457612d236141ca565b5b6020020151816020018181525050612d5f83612d5a83878681518110612d4d57612d4c6141ca565b5b6020026020010151613220565b613563565b9250508080612d6d90614228565b915050612ca9565b50809550505050505090565b600080612d8d83610ff4565b905060008160000151905060008260200151905060008260001b905060008260001b90506000604067ffffffffffffffff811115612dce57612dcd613976565b5b6040519080825280601f01601f191660200182016040528015612e005781602001600182028036833780820191505090505b50905060005b6020811015612e7b57838160208110612e2257612e216141ca565b5b1a60f81b828281518110612e3957612e386141ca565b5b60200101907effffffffffffffffffffffffffffffffffffffffffffffffffffffffffffff1916908160001a9053508080612e7390614228565b915050612e06565b506000602090505b6040811015612f045782602082612e9a91906142a1565b60208110612eab57612eaa6141ca565b5b1a60f81b828281518110612ec257612ec16141ca565b5b60200101907effffffffffffffffffffffffffffffffffffffffffffffffffffffffffffff1916908160001a9053508080612efc90614228565b915050612e83565b506000600282604051612f17919061434f565b602060405180830381855afa158015612f34573d6000803e3d6000fd5b5050506040513d601f19601f82011682018060405250810190612f57919061439c565b60001c905080975050505050505050919050565b6001600f60008381526020019081526020016000205403156131c957816000015160096000858152602001908152602001600020600060028110612fb257612fb16141ca565b5b0181905550816020015160096000858152602001908152602001600020600160028110612fe257612fe16141ca565b5b0181905550600080600190505b6005548111613049576000600960008381526020019081526020016000206000600281106130205761301f6141ca565b5b01541461303657818061303290614228565b9250505b808061304190614228565b915050612fef565b5060065481036131c757600060405180604001604052806002600001548152602001600260010154815250905061307e6126a9565b600260008201518160000155602082015181600101559050506000600190505b60055481116130f9576040518060400160405280600060ff168152602001600060ff16815250600960008381526020019081526020016000209060026130e5929190613770565b5080806130f190614228565b91505061309e565b5060106040518060400160405280600e600087815260200190815260200160002054815260200142815250908060018154018082558091505060019003906000526020600020906002020160009091909190915090600261315b9291906137b5565b506001600f6000858152602001908152602001600020819055507f7948d82149f8d60641c66dbfe847345f457d59abb84520929a5d79ecce418c0a8184600e600087815260200190815260200160002054426040516131bd949392919061493e565b60405180910390a1505b505b505050565b60008060405160208152602080820152602060408201528460608201526002840360808201528360a082015260208160c08360056107d05a03fa915080519250508061321957600080fd5b5092915050565b6132286137f5565b613230613831565b836000015181600060038110613249576132486141ca565b5b60200201818152505083602001518160016003811061326b5761326a6141ca565b5b6020020181815250508281600260038110613289576132886141ca565b5b602002018181525050600060608360808460076107d05a03fa905080600081036132af57fe5b50806132ba57600080fd5b505092915050565b6000806132cd613853565b6132d5613875565b6020816000600681106132eb576132ea6141ca565b5b60200201818152505060208160016006811061330a576133096141ca565b5b602002018181525050602081600260068110613329576133286141ca565b5b6020020181815250508681600360068110613347576133466141ca565b5b6020020181815250508581600460068110613365576133646141ca565b5b6020020181815250508481600560068110613383576133826141ca565b5b60200201818152505060208260c08360056107d05a03fa925082600081036133a757fe5b50826133b257600080fd5b816000600181106133c6576133c56141ca565b5b602002015193505050509392505050565b6133df6137f5565b6040518060400160405280600181526020016002815250905090565b6134036137f5565b60008060007f30644e72e131a029b85045b68181585d2833e84879b9709143e1f593f0000001856134349190614270565b90505b6001156134e0576134478161362b565b80935081945050507f30644e72e131a029b85045b68181585d97816a916871ca8d3c208c16d87cfd478061347e5761347d61419b565b5b82830983036134a65760405180604001604052808281526020018381525093505050506134e4565b7f30644e72e131a029b85045b68181585d97816a916871ca8d3c208c16d87cfd47806134d5576134d461419b565b5b600182089050613437565b5050505b919050565b6000600460008154809291906134fe90614228565b91905055507f30644e72e131a029b85045b68181585d2833e84879b9709143e1f593f0000001423360045460405160200161353b93929190614a1e565b6040516020818303038152906040528051906020012060001c61355e9190614270565b905090565b61356b6137f5565b613573613897565b83600001518160006004811061358c5761358b6141ca565b5b6020020181815250508360200151816001600481106135ae576135ad6141ca565b5b6020020181815250508260000151816002600481106135d0576135cf6141ca565b5b6020020181815250508260200151816003600481106135f2576135f16141ca565b5b602002018181525050600060608360c08460066107d05a03fa9050806000810361361857fe5b508061362357600080fd5b505092915050565b60008060007f30644e72e131a029b85045b68181585d97816a916871ca8d3c208c16d87cfd478061365f5761365e61419b565b5b60037f30644e72e131a029b85045b68181585d97816a916871ca8d3c208c16d87cfd47806136905761368f61419b565b5b867f30644e72e131a029b85045b68181585d97816a916871ca8d3c208c16d87cfd47806136c0576136bf61419b565b5b888909090890506000613714827f0c19139cb84c680a6e14116da060561765e05aa45a1c72a34f082305b61f3f527f30644e72e131a029b85045b68181585d97816a916871ca8d3c208c16d87cfd476132c2565b90508181935093505050915091565b82805482825590600052602060002090810192821561375f579160200282015b8281111561375e578251825591602001919060010190613743565b5b50905061376c91906138b9565b5090565b82600281019282156137a4579160200282015b828111156137a3578251829060ff16905591602001919060010190613783565b5b5090506137b191906138b9565b5090565b82600281019282156137e4579160200282015b828111156137e35782518255916020019190600101906137c8565b5b5090506137f191906138b9565b5090565b604051806040016040528060008152602001600081525090565b6040518060400160405280600290602082028036833780820191505090505090565b6040518060600160405280600390602082028036833780820191505090505090565b6040518060200160405280600190602082028036833780820191505090505090565b6040518060c00160405280600690602082028036833780820191505090505090565b6040518060800160405280600490602082028036833780820191505090505090565b5b808211156138d25760008160009055506001016138ba565b5090565b6000604051905090565b600080fd5b600080fd5b6000819050919050565b6138fd816138ea565b811461390857600080fd5b50565b60008135905061391a816138f4565b92915050565b60008060408385031215613937576139366138e0565b5b60006139458582860161390b565b92505060206139568582860161390b565b9150509250929050565b600080fd5b6000601f19601f8301169050919050565b7f4e487b7100000000000000000000000000000000000000000000000000000000600052604160045260246000fd5b6139ae82613965565b810181811067ffffffffffffffff821117156139cd576139cc613976565b5b80604052505050565b60006139e06138d6565b90506139ec82826139a5565b919050565b600067ffffffffffffffff821115613a0c57613a0b613976565b5b602082029050602081019050919050565b600080fd5b6000613a35613a30846139f1565b6139d6565b90508083825260208201905060208402830185811115613a5857613a57613a1d565b5b835b81811015613a815780613a6d888261390b565b845260208401935050602081019050613a5a565b5050509392505050565b600082601f830112613aa057613a9f613960565b5b8135613ab0848260208601613a22565b91505092915050565b60008060408385031215613ad057613acf6138e0565b5b600083013567ffffffffffffffff811115613aee57613aed6138e5565b5b613afa85828601613a8b565b9250506020613b0b8582860161390b565b9150509250929050565b613b1e816138ea565b82525050565b6000602082019050613b396000830184613b15565b92915050565b600080fd5b600060408284031215613b5a57613b59613b3f565b5b613b6460406139d6565b90506000613b748482850161390b565b6000830152506020613b888482850161390b565b60208301525092915050565b600060408284031215613baa57613ba96138e0565b5b6000613bb884828501613b44565b91505092915050565b60008060008060808587031215613bdb57613bda6138e0565b5b6000613be98782880161390b565b9450506020613bfa8782880161390b565b9350506040613c0b8782880161390b565b9250506060613c1c8782880161390b565b91505092959194509250565b600080600060808486031215613c4157613c406138e0565b5b6000613c4f8682870161390b565b9350506020613c6086828701613b44565b9250506060613c718682870161390b565b9150509250925092565b600060208284031215613c9157613c906138e0565b5b600082013567ffffffffffffffff811115613caf57613cae6138e5565b5b613cbb84828501613a8b565b91505092915050565b600081519050919050565b600082825260208201905092915050565b6000819050602082019050919050565b613cf9816138ea565b82525050565b6000613d0b8383613cf0565b60208301905092915050565b6000602082019050919050565b6000613d2f82613cc4565b613d398185613ccf565b9350613d4483613ce0565b8060005b83811015613d75578151613d5c8882613cff565b9750613d6783613d17565b925050600181019050613d48565b5085935050505092915050565b60006020820190508181036000830152613d9c8184613d24565b905092915050565b604082016000820151613dba6000850182613cf0565b506020820151613dcd6020850182613cf0565b50505050565b6000604082019050613de86000830184613da4565b92915050565b600080fd5b600067ffffffffffffffff821115613e0e57613e0d613976565b5b613e1782613965565b9050602081019050919050565b82818337600083830152505050565b6000613e46613e4184613df3565b6139d6565b905082815260208101848484011115613e6257613e61613dee565b5b613e6d848285613e24565b509392505050565b600082601f830112613e8a57613e89613960565b5b8135613e9a848260208601613e33565b91505092915050565b600067ffffffffffffffff821115613ebe57613ebd613976565b5b602082029050602081019050919050565b6000613ee2613edd84613ea3565b6139d6565b90508083825260208201905060408402830185811115613f0557613f04613a1d565b5b835b81811015613f2e5780613f1a8882613b44565b845260208401935050604081019050613f07565b5050509392505050565b600082601f830112613f4d57613f4c613960565b5b8135613f5d848260208601613ecf565b91505092915050565b6000806000806000806101208789031215613f8457613f836138e0565b5b600087013567ffffffffffffffff811115613fa257613fa16138e5565b5b613fae89828a01613e75565b9650506020613fbf89828a0161390b565b9550506040613fd089828a01613b44565b9450506080613fe189828a01613b44565b93505060c0613ff289828a01613b44565b92505061010087013567ffffffffffffffff811115614014576140136138e5565b5b61402089828a01613f38565b9150509295509295509295565b600080600060608486031215614046576140456138e0565b5b60006140548682870161390b565b93505060206140658682870161390b565b92505060406140768682870161390b565b9150509250925092565b6000604082019050818103600083015261409a8185613d24565b905081810360208301526140ae8184613d24565b90509392505050565b60006040820190506140cc6000830185613b15565b6140d96020830184613b15565b9392505050565b6000602082840312156140f6576140f56138e0565b5b600082013567ffffffffffffffff811115614114576141136138e5565b5b61412084828501613f38565b91505092915050565b60006020828403121561413f5761413e6138e0565b5b600061414d8482850161390b565b91505092915050565b600060608201905081810360008301526141708186613d24565b905081810360208301526141848185613d24565b90506141936040830184613b15565b949350505050565b7f4e487b7100000000000000000000000000000000000000000000000000000000600052601260045260246000fd5b7f4e487b7100000000000000000000000000000000000000000000000000000000600052603260045260246000fd5b7f4e487b7100000000000000000000000000000000000000000000000000000000600052601160045260246000fd5b6000614233826138ea565b91507fffffffffffffffffffffffffffffffffffffffffffffffffffffffffffffffff8203614265576142646141f9565b5b600182019050919050565b600061427b826138ea565b9150614286836138ea565b9250826142965761429561419b565b5b828206905092915050565b60006142ac826138ea565b91506142b7836138ea565b9250828210156142ca576142c96141f9565b5b828203905092915050565b600081519050919050565b600081905092915050565b60005b838110156143095780820151818401526020810190506142ee565b83811115614318576000848401525b50505050565b6000614329826142d5565b61433381856142e0565b93506143438185602086016142eb565b80840191505092915050565b600061435b828461431e565b915081905092915050565b6000819050919050565b61437981614366565b811461438457600080fd5b50565b60008151905061439681614370565b92915050565b6000602082840312156143b2576143b16138e0565b5b60006143c084828501614387565b91505092915050565b6000819050919050565b6000819050919050565b60006143f86143f36143ee846143c9565b6143d3565b6138ea565b9050919050565b614408816143dd565b82525050565b600060208201905061442360008301846143ff565b92915050565b600081519050919050565b600082825260208201905092915050565b600061445082614429565b61445a8185614434565b935061446a8185602086016142eb565b61447381613965565b840191505092915050565b600060208201905081810360008301526144988184614445565b905092915050565b6000815190506144af816138f4565b92915050565b6000604082840312156144cb576144ca613b3f565b5b6144d560406139d6565b905060006144e5848285016144a0565b60008301525060206144f9848285016144a0565b60208301525092915050565b600061451861451384613ea3565b6139d6565b9050808382526020820190506040840283018581111561453b5761453a613a1d565b5b835b81811015614564578061455088826144b5565b84526020840193505060408101905061453d565b5050509392505050565b600082601f83011261458357614582613960565b5b8151614593848260208601614505565b91505092915050565b6000602082840312156145b2576145b16138e0565b5b600082015167ffffffffffffffff8111156145d0576145cf6138e5565b5b6145dc8482850161456e565b91505092915050565b600081519050919050565b600082825260208201905092915050565b6000819050602082019050919050565b600060029050919050565b600081905092915050565b6000819050919050565b6000602082019050919050565b61464781614611565b614651818461461c565b925061465c82614627565b8060005b8381101561468d5781516146748782613cff565b965061467f83614631565b925050600181019050614660565b505050505050565b60006146a1838361463e565b60408301905092915050565b6000602082019050919050565b60006146c5826145e5565b6146cf81856145f0565b93506146da83614601565b8060005b8381101561470b5781516146f28882614695565b97506146fd836146ad565b9250506001810190506146de565b5085935050505092915050565b600081549050919050565b60008190508160005260206000209050919050565b60008160001c9050919050565b6000819050919050565b600061476261475d83614738565b614745565b9050919050565b6000614775825461474f565b9050919050565b6000600182019050919050565b600061479482614718565b61479e8185613ccf565b93506147a983614723565b8060005b838110156147e1576147be82614769565b6147c88882613cff565b97506147d38361477c565b9250506001810190506147ad565b5085935050505092915050565b600061012082019050614804600083018c613b15565b8181036020830152614816818b613d24565b9050818103604083015261482a818a613d24565b9050818103606083015261483e8189613d24565b9050818103608083015261485281886146ba565b905081810360a08301526148668187613d24565b905081810360c083015261487a8186614789565b905081810360e083015261488e8185614789565b90508181036101008301526148a38184614789565b90509a9950505050505050505050565b60006148be826138ea565b9150600082036148d1576148d06141f9565b5b600182039050919050565b600081905092915050565b6148f081614611565b6148fa81846148dc565b925061490582614627565b8060005b8381101561493657815161491d8782613cff565b965061492883614631565b925050600181019050614909565b505050505050565b600060a08201905061495360008301876148e7565b6149606040830186613b15565b61496d6060830185613b15565b61497a6080830184613b15565b95945050505050565b6000819050919050565b61499e614999826138ea565b614983565b82525050565b600073ffffffffffffffffffffffffffffffffffffffff82169050919050565b60006149cf826149a4565b9050919050565b60008160601b9050919050565b60006149ee826149d6565b9050919050565b6000614a00826149e3565b9050919050565b614a18614a13826149c4565b6149f5565b82525050565b6000614a2a828661498d565b602082019150614a3a8285614a07565b601482019150614a4a828461498d565b60208201915081905094935050505056fea264697066735822122014859ad94bbd89c5ae1f2b6bfb19c3526757599e0bfc1cc3edf33901cbac390564736f6c634300080d0033",
  "immutableReferences": {},
  "source": "// SPDX-License-Identifier: GPL-3.0\npragma solidity >=0.7.0 <0.9.0;\nimport { G } from \"../libraries/G.sol\";\nimport {Params } from \"./Params.sol\";\ncontract Accumulator{\n\n    address private owner;\n    Params private params;\n    G.G1Point private delta;\n    uint randNonce = 0;\n    uint private no;\n    uint private to;\n    uint private nv;\n    uint private tv;\n    //uint256[] private validators_share;\n    //uint256[] private openers_share;\n    mapping(uint => uint256[2]) private accumulator_key_shares;\n    mapping(uint => uint256[2]) private delta_shares;\n    uint256[] private combine_di;\n    uint256[] private combine_ei;\n    uint256[] private combine_si;\n    mapping(uint256 => uint256) private id_kr;\n    mapping(uint256 => uint256) private flag;\n    uint256[2][] whitelist;\n    uint256[2][] blacklist;\n    uint256[] a_poly;\n    uint256[] b_poly;\n    uint256[] c_poly;\n    uint256[] a_share;\n    uint256[] b_share;\n    uint256[] c_share;\n    constructor(Params _params) {\n        owner = msg.sender;\n        params = _params;  \n    }\n\n    modifier onlyOwner {\n        require(msg.sender == owner);\n        _;\n    }\n    \n    event send_W_kr(uint256[2] W, uint256 request_id, uint256 kr, uint256 timestamp);\n    //event send_W_kr(uint256[2] W,G.G1Point delta, uint256 request_id);\n    event revocation_complete(uint256 c);\n    event send_d_and_e(uint256 d, uint256 e);\n    event send_s(uint256 s);\n    event send_updated_witness(G.G1Point delta);\n    event send_self_revocation(uint256 kr, uint256[] W,uint256[] H,uint256[] S, uint256[2][] cm, uint256[] g1_r, uint256[] a_share, uint256[] b_share, uint256[] c_share);\n\n    function lagrange_basis(uint[] memory indexes) public view returns(uint256[] memory){\n            uint256 o = G.GEN_ORDER;\n            uint256[] memory l = new uint256[](indexes.length);\n            for(uint a=0; a<indexes.length; a++){\n                uint256 numerator =1;\n                uint256 denominator = 1;\n                for(uint b=0;b<indexes.length; b++){\n                    uint256 i = indexes[a];\n                    uint256 j = indexes[b];\n                    if (j > i){\n                        numerator = mulmod(numerator, j, o);\n                        denominator = mulmod(denominator, (j-i), o);\n                    }\n                    else if(j < i){\n                        numerator = mulmod(o - j,numerator, o);\n                        denominator = mulmod(denominator, (i-j), o);\n                    }\n                }\n                l[a] = mulmod(numerator, G._modInv(denominator, o), o);\n            }\n            return l;\n\n    }\n    function genAggregatedYa() public view returns(G.G1Point memory){\n            uint256 [] memory indexes = new uint[](to);\n            uint256[2][] memory filter = new uint[2][](to);\n            uint u = 0;\n            for (uint i=1; i<=no; i++) \n            {\n                if(accumulator_key_shares[i][0] != 0 && accumulator_key_shares[i][1] != 0){\n                    indexes[u] = i;\n                    filter[u] = accumulator_key_shares[i];\n                    u++;\n                }\n            }\n            uint256[] memory l = lagrange_basis(indexes);\n            G.G1Point memory aggr_ka;\n            aggr_ka.X = filter[0][0];\n            aggr_ka.Y = filter[0][1];\n            aggr_ka = G.g1mul(aggr_ka, l[0]);\n            for (uint i=1; i<indexes.length; i++){\n                G.G1Point memory tmp;\n                tmp.X = filter[i][0];\n                tmp.Y = filter[i][1];\n                aggr_ka = G.g1add(aggr_ka ,(G.g1mul(tmp, l[i])));\n            }\n            return aggr_ka;\n    }\n\n    function genAggregatedYa_2() public view returns(G.G1Point memory){\n            uint256 [] memory indexes = new uint[](to);\n            uint256[2][] memory filter = new uint[2][](to);\n            uint u = 0;\n            for (uint i=1; i<=no; i++) \n            {\n                if(delta_shares[i][0] != 0 && delta_shares[i][1] != 0){\n                    indexes[u] = i;\n                    filter[u] = delta_shares[i];\n                    u++;\n                }\n            }\n            uint256[] memory l = lagrange_basis(indexes);\n            G.G1Point memory aggr_ka;\n            aggr_ka.X = filter[0][0];\n            aggr_ka.Y = filter[0][1];\n            aggr_ka = G.g1mul(aggr_ka, l[0]);\n            for (uint i=1; i<indexes.length; i++){\n                G.G1Point memory tmp;\n                tmp.X = filter[i][0];\n                tmp.Y = filter[i][1];\n                aggr_ka = G.g1add(aggr_ka ,(G.g1mul(tmp, l[i])));\n            }\n            return aggr_ka;\n    }\n\n    function updateDelta(uint256 ya, uint256 kr) public {\n            delta = G.g1mul(delta, G._modInv(addmod(kr,ya,G.GEN_ORDER),G.GEN_ORDER));\n    }\n    function get_delta() public view returns(uint256, uint256){\n        return (delta.X, delta.Y);\n    }\n    function recieve_share_for_revocation(uint id, G.G1Point memory share, uint256 request_id) public {\n        if(flag[request_id] == 2) return;\n\n        delta_shares[id][0] = share.X;\n        delta_shares[id][1] = share.Y;\n        uint count = 0;\n        for (uint i=1; i<=no; i++) \n        {\n            if(delta_shares[i][0] != 0) count++;\n        }\n        if(count==to){\n            delta = genAggregatedYa_2();       \n            for (uint i=1; i<=no; i++) \n            {\n               delta_shares[i] = [0,0];\n            }\n\n            blacklist.push([id_kr[request_id],block.timestamp]);\n            flag[request_id] = 2;\n            emit revocation_complete(1);\n            //emit send_W_kr(W,request_id,id_kr[request_id], block.timestamp);\n        }\n    }\n\n    function aggregate_value(uint256 fl) view public returns(uint256){\n            uint256 [] memory indexes = new uint[](to);\n            uint256[] memory filter = new uint[](to);\n            uint256[] memory combine;\n            if(fl == 1) combine= combine_di;\n            else if(fl == 2) combine = combine_ei;\n            else combine = combine_si;\n            uint u = 0;\n            for (uint i=1; i<=no; i++) \n            {\n                if(combine[i-1] != 0){\n                    indexes[u] = i;\n                    filter[u] = combine[i-1];\n                    u++;\n                }\n            }\n            uint256[] memory l = lagrange_basis(indexes);\n            uint256 aggr = 0;\n            for (uint i=0; i<indexes.length; i++){\n                aggr = addmod(aggr, mulmod(filter[i], l[i], G.GEN_ORDER), G.GEN_ORDER);\n            }\n            return aggr;\n    }\n    function combine_di_and_ei(uint256 di, uint256 ei, uint256 id) public{\n            combine_di[id-1] = di;\n            combine_ei[id-1] = ei;\n            uint count = 0;\n            for (uint i=1; i<=no; i++)\n            {\n                if(combine_di[i-1] != 0) count++;\n            }\n            if(count==to){\n                uint256 d = aggregate_value(1);\n                uint256 e = aggregate_value(2);\n\n                for (uint i=1; i<=no; i++) \n                {\n                    combine_di[i-1] = 0;\n                    combine_ei[i-1] = 0;\n                }\n                emit send_d_and_e(d,e);\n            }\n    }\n    function combine_func_si(uint256 si, uint256 id) public{\n            combine_si[id-1] = si;\n            uint count = 0;\n            for (uint i=1; i<=no; i++)\n            {\n                if(combine_si[i-1] != 0) count++;\n            }\n            if(count==to){\n                uint256 s = aggregate_value(3);\n\n                for (uint i=1; i<=no; i++) \n                {\n                    combine_si[i-1] = 0;\n                }\n                emit send_s(s);\n            }\n    }\n    function gen_beaver_tuples(G.G1Point[] memory pub_key) public returns (G.G1Point memory){\n        uint256 a = gen_random();\n        uint256 b = gen_random();\n        uint256 r = gen_random();\n        uint256 c = mulmod(a, b, G.GEN_ORDER);\n\n        G.G1Point[] memory y_r = new G.G1Point[](no);\n        a_poly[0] = a;\n        b_poly[0] = b;\n        c_poly[0] = c;\n        for(uint i=1; i<to; i++){\n            a_poly[i] = gen_random();\n            b_poly[i] = gen_random();\n            c_poly[i] = gen_random();\n        }\n        G.G1Point memory G1_r = G.g1mul(G.P1(), r);\n        for(uint i=1; i<=no; i++){\n            y_r[i-1] = G.g1mul(pub_key[i-1], r);\n        }\n        for(uint i=1; i<=no; i++){\n            uint256 t = hash_to_int_2(y_r[i-1]);\n            uint256 a1 = gen_share(a_poly,i);\n            uint256 b1 = gen_share(b_poly,i);\n            uint256 c1 = gen_share(c_poly,i);\n            a_share[i-1] = t^a1;\n            b_share[i-1] = t^b1;\n            c_share[i-1] = t^c1; \n        }\n        // for(uint i=0; i<no; i++){\n        //     a_poly[i] = 0; b_poly[i] = 0; c_poly[i] = 0;\n        //     // a_share[i] = 0; b_share[i] = 0; c_share[i] = 0;\n        // }\n        return G1_r;\n    }\n\n    function verify_revocation_request( string memory name, uint256 kr,  G.G1Point memory witness, G.G1Point memory H, G.G1Point memory S, G.G1Point[] memory commitments) public{\n           G.G1Point[] memory r = params.get_bpk(name);\n            G.G1Point memory s = gen_beaver_tuples(r);\n            //G.G1Point memory s = G.P1();\n            uint256[] memory ab = new uint256[](2);\n            uint256[] memory a = new uint256[](2);\n            uint256[] memory b = new uint256[](2);\n            uint256[] memory c = new uint256[](2);\n            uint256[2][] memory cm = new uint256[2][](commitments.length);\n            a[0] = witness.X;\n            a[1] = witness.Y;\n            ab[0] = s.X;ab[1] = s.Y;\n            b[0] = H.X;\n            b[1] = H.Y;\n            c[0] = S.X;\n            c[1] = S.Y;\n            for(uint i =0;i<commitments.length;i++){\n                cm[i][0] = commitments[i].X;\n                cm[i][1] = commitments[i].Y;\n            }\n            \n            emit send_self_revocation(kr,a, b,c, cm,ab,a_share, b_share, c_share);\n\n    }\n    function hash_to_G1(G.G1Point memory m) public view returns (G.G1Point memory){\n        uint256 cm = m.X;\n        uint256 cm2 = m.Y;\n        bytes32 bcm = bytes32(cm);\n        bytes32 bcm2 = bytes32(cm2);\n        bytes memory c = new bytes(64);\n        for(uint i=0;i<32;i++){\n            c[i] = bcm[i];\n        }\n        for(uint j=32;j<64;j++){\n            c[j] = bcm2[j-32];\n        }\n        uint256 id = uint256(sha256(c));\n        return G.HashToPoint(id);\n    }\n\n    function hash_to_int(G.G1Point memory a) public view returns(uint256){\n        G.G1Point memory b = hash_to_G1(a);\n        uint256 cm = b.X;\n        uint256 cm2 = b.Y;\n        bytes32 bcm = bytes32(cm);\n        bytes32 bcm2 = bytes32(cm2);\n        bytes memory c = new bytes(64);\n        for(uint i=0;i<32;i++){\n            c[i] = bcm[i];\n        }\n        for(uint j=32;j<64;j++){\n            c[j] = bcm2[j-32];\n        }\n        uint256 id = uint256(sha256(c));\n        return id;\n    }\n\n    function hash_to_int_2(G.G1Point memory a) public pure returns(uint256){\n        uint256 cm = a.X;\n        uint256 cm2 = a.Y;\n        bytes32 bcm = bytes32(cm);\n        bytes32 bcm2 = bytes32(cm2);\n        bytes memory c = new bytes(64);\n        for(uint i=0;i<32;i++){\n            c[i] = bcm[i];\n        }\n        for(uint j=32;j<64;j++){\n            c[j] = bcm2[j-32];\n        }\n        uint256 id = uint256(sha256(c));\n        return id;\n    }\n\n    function recieve_ya_share(uint id, G.G1Point memory share, uint256 request_id) public {\n        if(flag[request_id] == 1) return;\n\n        accumulator_key_shares[id][0] = share.X;\n        accumulator_key_shares[id][1] = share.Y;\n        uint count = 0;\n        for (uint i=1; i<=no; i++) \n        {\n            if(accumulator_key_shares[i][0] != 0) count++;\n        }\n        if(count==to){\n            uint256[2] memory W = [delta.X,delta.Y];\n            delta = genAggregatedYa();       \n            for (uint i=1; i<=no; i++) \n            {\n               accumulator_key_shares[i] = [0,0];\n            }\n\n            whitelist.push([id_kr[request_id],block.timestamp]);\n            flag[request_id] = 1;\n            emit send_W_kr(W,request_id,id_kr[request_id], block.timestamp);\n            //emit send_W_kr(W_m,delta,request_id);\n        }\n        \n    }\n\n    function updateWitness(uint256 time) public view returns (uint256[] memory, uint256[] memory, uint256 ){\n            uint256[] memory w1 = new uint256[](whitelist.length);\n            uint256[] memory b1 = new uint256[](blacklist.length);\n            uint c = 0;\n            for(uint i = whitelist.length-1; i>=0;i--){\n                if(whitelist[i][1] < time) break;\n                w1[c] = whitelist[i][0];\n                c++;\n            }\n            c = 0;\n            for(uint i = blacklist.length-1; i>=0;i--){\n                if(blacklist[i][1] < time) break;\n                b1[c] = blacklist[i][0];\n                c++;\n            }\n            return (w1,b1, block.timestamp);\n    }\n    function set_accumulator(uint _no,uint _to,uint _nv,uint _tv) public {\n        delta = G.P1();\n        no = _no;\n        nv = _nv;\n        to = _to;\n        tv = _tv;\n        a_poly = new uint256[](to);\n        b_poly = new uint256[](to);\n        c_poly = new uint256[](to);\n        a_share = new uint256[](no);\n        b_share = new uint256[](no);\n        c_share = new uint256[](no);\n        combine_di = new uint256[](no);\n        combine_ei = new uint256[](no);\n        combine_si = new uint256[](no);\n        for (uint i=1; i<=no; i++) \n        {\n            accumulator_key_shares[i] = [0,0];\n            delta_shares[i] = [0,0];\n            combine_di[i-1] = 0;combine_ei[i-1] = 0;combine_si[i-1] = 0;\n        }\n    }\n\n    function gen_share(uint256[] memory array, uint x) public view returns(uint256){\n        uint256 ans = 0;\n        uint256 o = G.GEN_ORDER;\n        for(uint i=0; i<array.length; i++){\n            ans = addmod(ans , mulmod(array[i],G.expMod(x,i,o),o),o); \n        }\n        return ans % o;\n    }\n\n    function generate_kr_shares(G.G1Point memory cm) public returns(uint256[] memory, uint256[] memory) {\n        uint256[] memory poly_validators = new uint256[](tv);\n        uint256[] memory poly_openers = new uint256[](to);\n        uint256[] memory validators_share = new uint256[](nv);\n        uint256[] memory openers_share = new uint256[](no);\n        uint256 kr = gen_random();\n        id_kr[hash_to_int(cm)] = kr;\n        \n        poly_validators[0] = kr;\n        poly_openers[0] = kr;\n        for(uint i=1; i<tv; i++){\n            poly_validators[i] = gen_random();\n        }\n        for(uint i=1; i<to; i++){\n            poly_openers[i] = gen_random();\n        }\n\n        for(uint i=1; i<=nv; i++){\n            validators_share[i-1] = gen_share(poly_validators,i);\n        }\n        for(uint i=1; i<=no; i++){\n            openers_share[i-1] = gen_share(poly_openers,i);\n        }\n        return (validators_share, openers_share);\n    }\n\n    function gen_random() private returns(uint256){\n        randNonce++;\n        return uint256(keccak256(abi.encodePacked(block.timestamp,msg.sender,randNonce))) % G.GEN_ORDER;\n    }\n}",
  "sourcePath": "/home/neel/acad/DTRAC/RAVC2/Admin/Blockchain/contracts/Accumulator.sol",
  "compiler": {
    "name": "solc",
    "version": "0.8.13+commit.abaa5c0e.Emscripten.clang"
  },
  "schemaVersion": "3.4.13",
  "updatedAt": "2023-07-21T18:48:50.896Z",
  "networkType": "ethereum",
  "devdoc": {
    "kind": "dev",
    "methods": {},
    "version": 1
  },
  "userdoc": {
    "kind": "user",
    "methods": {},
    "version": 1
  }
}