{
  "contractName": "Issue",
  "abi": [
    {
      "inputs": [
        {
          "internalType": "contract Params",
          "name": "_params",
          "type": "address"
        }
      ],
      "stateMutability": "nonpayable",
      "type": "constructor"
    },
    {
      "anonymous": false,
      "inputs": [
        {
          "indexed": true,
          "internalType": "uint256",
          "name": "id",
          "type": "uint256"
        },
        {
          "indexed": true,
          "internalType": "address",
          "name": "receiver",
          "type": "address"
        },
        {
          "indexed": false,
          "internalType": "address",
          "name": "issuer_address",
          "type": "address"
        },
        {
          "indexed": false,
          "internalType": "uint256[2]",
          "name": "h",
          "type": "uint256[2]"
        },
        {
          "indexed": false,
          "internalType": "uint256[2]",
          "name": "t",
          "type": "uint256[2]"
        }
      ],
      "name": "emitIssue",
      "type": "event"
    },
    {
      "anonymous": false,
      "inputs": [
        {
          "indexed": false,
          "internalType": "uint256",
          "name": "id",
          "type": "uint256"
        }
      ],
      "name": "get_ya_shares",
      "type": "event"
    },
    {
      "inputs": [
        {
          "internalType": "address",
          "name": "addr",
          "type": "address"
        }
      ],
      "name": "set_params",
      "outputs": [],
      "stateMutability": "nonpayable",
      "type": "function"
    },
    {
      "inputs": [
        {
          "internalType": "address",
          "name": "issuer_address",
          "type": "address"
        }
      ],
      "name": "addIssuer",
      "outputs": [],
      "stateMutability": "nonpayable",
      "type": "function"
    },
    {
      "inputs": [
        {
          "internalType": "address",
          "name": "issuer_address",
          "type": "address"
        }
      ],
      "name": "removeIssuer",
      "outputs": [],
      "stateMutability": "nonpayable",
      "type": "function"
    },
    {
      "inputs": [
        {
          "internalType": "string",
          "name": "name",
          "type": "string"
        },
        {
          "internalType": "address",
          "name": "receiver",
          "type": "address"
        },
        {
          "internalType": "uint256[2]",
          "name": "h",
          "type": "uint256[2]"
        },
        {
          "internalType": "uint256[2]",
          "name": "t",
          "type": "uint256[2]"
        }
      ],
      "name": "SendBlindSign",
      "outputs": [],
      "stateMutability": "nonpayable",
      "type": "function"
    },
    {
      "inputs": [
        {
          "internalType": "string",
          "name": "name",
          "type": "string"
        }
      ],
      "name": "get_kr_W",
      "outputs": [],
      "stateMutability": "nonpayable",
      "type": "function"
    }
  ],
  "bytecode": "0x608060405234801561001057600080fd5b50604051610d0b380380610d0b8339818101604052810190610032919061012e565b33600160006101000a81548173ffffffffffffffffffffffffffffffffffffffff021916908373ffffffffffffffffffffffffffffffffffffffff160217905550806000806101000a81548173ffffffffffffffffffffffffffffffffffffffff021916908373ffffffffffffffffffffffffffffffffffffffff1602179055505061015b565b600080fd5b600073ffffffffffffffffffffffffffffffffffffffff82169050919050565b60006100e9826100be565b9050919050565b60006100fb826100de565b9050919050565b61010b816100f0565b811461011657600080fd5b50565b60008151905061012881610102565b92915050565b600060208284031215610144576101436100b9565b5b600061015284828501610119565b91505092915050565b610ba18061016a6000396000f3fe608060405234801561001057600080fd5b50600436106100575760003560e01c806317a2a3601461005c57806320694db0146100785780633c0ef2a01461009457806347bc7093146100b057806385b7937a146100cc575b600080fd5b610076600480360381019061007191906107ff565b6100e8565b005b610092600480360381019061008d9190610882565b61027a565b005b6100ae60048036038101906100a991906108af565b61032f565b005b6100ca60048036038101906100c59190610882565b610409565b005b6100e660048036038101906100e19190610882565b6104be565b005b600260003373ffffffffffffffffffffffffffffffffffffffff1673ffffffffffffffffffffffffffffffffffffffff16815260200190815260200160002060009054906101000a900460ff1661013e57600080fd5b60008060009054906101000a900473ffffffffffffffffffffffffffffffffffffffff1673ffffffffffffffffffffffffffffffffffffffff1663a2191d38866040518263ffffffff1660e01b815260040161019a9190610980565b602060405180830381865afa1580156101b7573d6000803e3d6000fd5b505050506040513d601f19601f820116820180604052508101906101db91906109b7565b905060008103610220576040517f08c379a000000000000000000000000000000000000000000000000000000000815260040161021790610a30565b60405180910390fd5b8373ffffffffffffffffffffffffffffffffffffffff16817f3248b557172e8f9516adcd985a3b501b10b2d0567abb77d1a5daf39e2496f48233868660405161026b93929190610b0a565b60405180910390a35050505050565b600160009054906101000a900473ffffffffffffffffffffffffffffffffffffffff1673ffffffffffffffffffffffffffffffffffffffff163373ffffffffffffffffffffffffffffffffffffffff16146102d457600080fd5b6001600260008373ffffffffffffffffffffffffffffffffffffffff1673ffffffffffffffffffffffffffffffffffffffff16815260200190815260200160002060006101000a81548160ff02191690831515021790555050565b60008060009054906101000a900473ffffffffffffffffffffffffffffffffffffffff1673ffffffffffffffffffffffffffffffffffffffff1663a2191d38836040518263ffffffff1660e01b815260040161038b9190610980565b602060405180830381865afa1580156103a8573d6000803e3d6000fd5b505050506040513d601f19601f820116820180604052508101906103cc91906109b7565b90507fd91279bff1cb4e91d21a98ab6f855c169c5f65e225b6c23b8da88ccde362a26c816040516103fd9190610b50565b60405180910390a15050565b600160009054906101000a900473ffffffffffffffffffffffffffffffffffffffff1673ffffffffffffffffffffffffffffffffffffffff163373ffffffffffffffffffffffffffffffffffffffff161461046357600080fd5b6000600260008373ffffffffffffffffffffffffffffffffffffffff1673ffffffffffffffffffffffffffffffffffffffff16815260200190815260200160002060006101000a81548160ff02191690831515021790555050565b600160009054906101000a900473ffffffffffffffffffffffffffffffffffffffff1673ffffffffffffffffffffffffffffffffffffffff163373ffffffffffffffffffffffffffffffffffffffff161461051857600080fd5b806000806101000a81548173ffffffffffffffffffffffffffffffffffffffff021916908373ffffffffffffffffffffffffffffffffffffffff16021790555050565b6000604051905090565b600080fd5b600080fd5b600080fd5b600080fd5b6000601f19601f8301169050919050565b7f4e487b7100000000000000000000000000000000000000000000000000000000600052604160045260246000fd5b6105c282610579565b810181811067ffffffffffffffff821117156105e1576105e061058a565b5b80604052505050565b60006105f461055b565b905061060082826105b9565b919050565b600067ffffffffffffffff8211156106205761061f61058a565b5b61062982610579565b9050602081019050919050565b82818337600083830152505050565b600061065861065384610605565b6105ea565b90508281526020810184848401111561067457610673610574565b5b61067f848285610636565b509392505050565b600082601f83011261069c5761069b61056f565b5b81356106ac848260208601610645565b91505092915050565b600073ffffffffffffffffffffffffffffffffffffffff82169050919050565b60006106e0826106b5565b9050919050565b6106f0816106d5565b81146106fb57600080fd5b50565b60008135905061070d816106e7565b92915050565b600067ffffffffffffffff82111561072e5761072d61058a565b5b602082029050919050565b600080fd5b6000819050919050565b6107518161073e565b811461075c57600080fd5b50565b60008135905061076e81610748565b92915050565b600061078761078284610713565b6105ea565b905080602084028301858111156107a1576107a0610739565b5b835b818110156107ca57806107b6888261075f565b8452602084019350506020810190506107a3565b5050509392505050565b600082601f8301126107e9576107e861056f565b5b60026107f6848285610774565b91505092915050565b60008060008060c0858703121561081957610818610565565b5b600085013567ffffffffffffffff8111156108375761083661056a565b5b61084387828801610687565b9450506020610854878288016106fe565b9350506040610865878288016107d4565b9250506080610876878288016107d4565b91505092959194509250565b60006020828403121561089857610897610565565b5b60006108a6848285016106fe565b91505092915050565b6000602082840312156108c5576108c4610565565b5b600082013567ffffffffffffffff8111156108e3576108e261056a565b5b6108ef84828501610687565b91505092915050565b600081519050919050565b600082825260208201905092915050565b60005b83811015610932578082015181840152602081019050610917565b83811115610941576000848401525b50505050565b6000610952826108f8565b61095c8185610903565b935061096c818560208601610914565b61097581610579565b840191505092915050565b6000602082019050818103600083015261099a8184610947565b905092915050565b6000815190506109b181610748565b92915050565b6000602082840312156109cd576109cc610565565b5b60006109db848285016109a2565b91505092915050565b7f4e6f20737563682041432e000000000000000000000000000000000000000000600082015250565b6000610a1a600b83610903565b9150610a25826109e4565b602082019050919050565b60006020820190508181036000830152610a4981610a0d565b9050919050565b610a59816106d5565b82525050565b600060029050919050565b600081905092915050565b6000819050919050565b610a888161073e565b82525050565b6000610a9a8383610a7f565b60208301905092915050565b6000602082019050919050565b610abc81610a5f565b610ac68184610a6a565b9250610ad182610a75565b8060005b83811015610b02578151610ae98782610a8e565b9650610af483610aa6565b925050600181019050610ad5565b505050505050565b600060a082019050610b1f6000830186610a50565b610b2c6020830185610ab3565b610b396060830184610ab3565b949350505050565b610b4a8161073e565b82525050565b6000602082019050610b656000830184610b41565b9291505056fea26469706673582212206a7cb2384e88544a24bc41fb019b88cbf969e345d604321645fee495a7bb92ed64736f6c634300080d0033",
  "immutableReferences": {},
  "source": "// SPDX-License-Identifier: GPL-3.0\npragma solidity >=0.7.0 <0.9.0;\npragma experimental ABIEncoderV2;\n\nimport {Params} from \"./Params.sol\";\n\ncontract Issue {\n\n    Params private params;\n    address private owner;\n    constructor(Params _params) {\n        owner = msg.sender;\n        params = _params;\n    }\n    \n    modifier onlyOwner {\n        require(msg.sender == owner);\n        _;\n    }\n\n    function set_params(address addr) public onlyOwner {\n        params = Params(addr);\n    }\n\n    mapping(address => bool) private issuers;\n    function addIssuer(address issuer_address) public onlyOwner {\n        issuers[issuer_address] = true;\n    }\n    function removeIssuer(address issuer_address) public onlyOwner {\n        issuers[issuer_address] = false;\n    }\n    modifier onlyIssuers {\n        require(issuers[msg.sender]);\n        _;\n    }\n\n    event emitIssue(uint256 indexed id, address indexed receiver, address issuer_address, uint256[2] h, uint256[2] t);\n    event get_ya_shares(uint256 id);\n    function SendBlindSign(string memory name, address receiver, uint256[2] memory h, uint256[2] memory t) public onlyIssuers {\n        uint256 id = params.getMapCredentials(name);\n        require(id != 0, \"No such AC.\");\n        emit emitIssue(id, receiver, msg.sender, h, t);\n    }\n    function get_kr_W(string memory name) public {\n        uint256 id = params.getMapCredentials(name);\n        emit get_ya_shares(id);\n    }\n}",
  "sourcePath": "/home/neel/acad/DTRAC/RAVC2/Admin/Blockchain/contracts/Issue.sol",
  "compiler": {
    "name": "solc",
    "version": "0.8.13+commit.abaa5c0e.Emscripten.clang"
  },
  "schemaVersion": "3.4.13",
  "updatedAt": "2023-07-21T18:48:50.882Z",
  "networkType": "ethereum",
  "devdoc": {
    "kind": "dev",
    "methods": {},
    "version": 1
  },
  "userdoc": {
    "kind": "user",
    "methods": {},
    "version": 1
  }
}