{
  "contractName": "Params",
  "abi": [
    {
      "inputs": [],
      "stateMutability": "nonpayable",
      "type": "constructor"
    },
    {
      "inputs": [
        {
          "internalType": "string",
          "name": "name",
          "type": "string"
        }
      ],
      "name": "getMapCredentials",
      "outputs": [
        {
          "internalType": "uint256",
          "name": "",
          "type": "uint256"
        }
      ],
      "stateMutability": "view",
      "type": "function",
      "constant": true
    },
    {
      "inputs": [
        {
          "internalType": "string",
          "name": "name",
          "type": "string"
        }
      ],
      "name": "getMapTTPs",
      "outputs": [
        {
          "internalType": "uint256",
          "name": "",
          "type": "uint256"
        }
      ],
      "stateMutability": "view",
      "type": "function",
      "constant": true
    },
    {
      "inputs": [
        {
          "internalType": "string",
          "name": "_name",
          "type": "string"
        },
        {
          "components": [
            {
              "internalType": "uint256",
              "name": "X",
              "type": "uint256"
            },
            {
              "internalType": "uint256",
              "name": "Y",
              "type": "uint256"
            }
          ],
          "internalType": "struct G.G1Point[]",
          "name": "_hs",
          "type": "tuple[]"
        },
        {
          "components": [
            {
              "internalType": "uint256[2]",
              "name": "X",
              "type": "uint256[2]"
            },
            {
              "internalType": "uint256[2]",
              "name": "Y",
              "type": "uint256[2]"
            }
          ],
          "internalType": "struct G.G2Point",
          "name": "_alpha",
          "type": "tuple"
        },
        {
          "components": [
            {
              "internalType": "uint256",
              "name": "X",
              "type": "uint256"
            },
            {
              "internalType": "uint256",
              "name": "Y",
              "type": "uint256"
            }
          ],
          "internalType": "struct G.G1Point[]",
          "name": "_g1_beta",
          "type": "tuple[]"
        },
        {
          "components": [
            {
              "internalType": "uint256[2]",
              "name": "X",
              "type": "uint256[2]"
            },
            {
              "internalType": "uint256[2]",
              "name": "Y",
              "type": "uint256[2]"
            }
          ],
          "internalType": "struct G.G2Point[]",
          "name": "_beta",
          "type": "tuple[]"
        },
        {
          "components": [
            {
              "internalType": "uint256[2]",
              "name": "X",
              "type": "uint256[2]"
            },
            {
              "internalType": "uint256[2]",
              "name": "Y",
              "type": "uint256[2]"
            }
          ],
          "internalType": "struct G.G2Point[]",
          "name": "_opk",
          "type": "tuple[]"
        },
        {
          "components": [
            {
              "internalType": "uint256",
              "name": "X",
              "type": "uint256"
            },
            {
              "internalType": "uint256",
              "name": "Y",
              "type": "uint256"
            }
          ],
          "internalType": "struct G.G1Point[]",
          "name": "abc",
          "type": "tuple[]"
        },
        {
          "internalType": "string[]",
          "name": "_dependent_ttps",
          "type": "string[]"
        },
        {
          "internalType": "uint256[][]",
          "name": "_include_indexes",
          "type": "uint256[][]"
        },
        {
          "internalType": "uint256[]",
          "name": "_public_m_encoding",
          "type": "uint256[]"
        }
      ],
      "name": "set_params",
      "outputs": [],
      "stateMutability": "nonpayable",
      "type": "function"
    },
    {
      "inputs": [
        {
          "internalType": "string",
          "name": "_name",
          "type": "string"
        },
        {
          "components": [
            {
              "internalType": "uint256",
              "name": "X",
              "type": "uint256"
            },
            {
              "internalType": "uint256",
              "name": "Y",
              "type": "uint256"
            }
          ],
          "internalType": "struct G.G1Point",
          "name": "_ttp_pk",
          "type": "tuple"
        },
        {
          "components": [
            {
              "internalType": "uint256",
              "name": "X",
              "type": "uint256"
            },
            {
              "internalType": "uint256",
              "name": "Y",
              "type": "uint256"
            }
          ],
          "internalType": "struct G.G1Point[]",
          "name": "_hs",
          "type": "tuple[]"
        }
      ],
      "name": "set_ttp_params",
      "outputs": [],
      "stateMutability": "nonpayable",
      "type": "function"
    },
    {
      "inputs": [
        {
          "internalType": "string",
          "name": "_name",
          "type": "string"
        }
      ],
      "name": "get_hs",
      "outputs": [
        {
          "components": [
            {
              "internalType": "uint256",
              "name": "X",
              "type": "uint256"
            },
            {
              "internalType": "uint256",
              "name": "Y",
              "type": "uint256"
            }
          ],
          "internalType": "struct G.G1Point[]",
          "name": "",
          "type": "tuple[]"
        }
      ],
      "stateMutability": "view",
      "type": "function",
      "constant": true
    },
    {
      "inputs": [
        {
          "internalType": "string",
          "name": "_name",
          "type": "string"
        }
      ],
      "name": "get_public_m_encoding",
      "outputs": [
        {
          "internalType": "uint256[]",
          "name": "",
          "type": "uint256[]"
        }
      ],
      "stateMutability": "view",
      "type": "function",
      "constant": true
    },
    {
      "inputs": [
        {
          "internalType": "string",
          "name": "_name",
          "type": "string"
        }
      ],
      "name": "get_alpha",
      "outputs": [
        {
          "components": [
            {
              "internalType": "uint256[2]",
              "name": "X",
              "type": "uint256[2]"
            },
            {
              "internalType": "uint256[2]",
              "name": "Y",
              "type": "uint256[2]"
            }
          ],
          "internalType": "struct G.G2Point",
          "name": "",
          "type": "tuple"
        }
      ],
      "stateMutability": "view",
      "type": "function",
      "constant": true
    },
    {
      "inputs": [
        {
          "internalType": "string",
          "name": "_name",
          "type": "string"
        }
      ],
      "name": "get_beta",
      "outputs": [
        {
          "components": [
            {
              "internalType": "uint256[2]",
              "name": "X",
              "type": "uint256[2]"
            },
            {
              "internalType": "uint256[2]",
              "name": "Y",
              "type": "uint256[2]"
            }
          ],
          "internalType": "struct G.G2Point[]",
          "name": "",
          "type": "tuple[]"
        }
      ],
      "stateMutability": "view",
      "type": "function",
      "constant": true
    },
    {
      "inputs": [
        {
          "internalType": "string",
          "name": "_name",
          "type": "string"
        }
      ],
      "name": "get_g1_beta",
      "outputs": [
        {
          "components": [
            {
              "internalType": "uint256",
              "name": "X",
              "type": "uint256"
            },
            {
              "internalType": "uint256",
              "name": "Y",
              "type": "uint256"
            }
          ],
          "internalType": "struct G.G1Point[]",
          "name": "",
          "type": "tuple[]"
        }
      ],
      "stateMutability": "view",
      "type": "function",
      "constant": true
    },
    {
      "inputs": [
        {
          "internalType": "string",
          "name": "_name",
          "type": "string"
        }
      ],
      "name": "get_opk",
      "outputs": [
        {
          "components": [
            {
              "internalType": "uint256[2]",
              "name": "X",
              "type": "uint256[2]"
            },
            {
              "internalType": "uint256[2]",
              "name": "Y",
              "type": "uint256[2]"
            }
          ],
          "internalType": "struct G.G2Point[]",
          "name": "",
          "type": "tuple[]"
        }
      ],
      "stateMutability": "view",
      "type": "function",
      "constant": true
    },
    {
      "inputs": [
        {
          "internalType": "string",
          "name": "_name",
          "type": "string"
        }
      ],
      "name": "get_bpk",
      "outputs": [
        {
          "components": [
            {
              "internalType": "uint256",
              "name": "X",
              "type": "uint256"
            },
            {
              "internalType": "uint256",
              "name": "Y",
              "type": "uint256"
            }
          ],
          "internalType": "struct G.G1Point[]",
          "name": "",
          "type": "tuple[]"
        }
      ],
      "stateMutability": "view",
      "type": "function",
      "constant": true
    },
    {
      "inputs": [
        {
          "internalType": "string",
          "name": "_name",
          "type": "string"
        },
        {
          "internalType": "string[]",
          "name": "combination",
          "type": "string[]"
        }
      ],
      "name": "get_include_indexes",
      "outputs": [
        {
          "internalType": "uint256[][]",
          "name": "",
          "type": "uint256[][]"
        }
      ],
      "stateMutability": "view",
      "type": "function",
      "constant": true
    },
    {
      "inputs": [
        {
          "internalType": "string",
          "name": "_name",
          "type": "string"
        }
      ],
      "name": "get_ttpKeys",
      "outputs": [
        {
          "components": [
            {
              "internalType": "uint256",
              "name": "X",
              "type": "uint256"
            },
            {
              "internalType": "uint256",
              "name": "Y",
              "type": "uint256"
            }
          ],
          "internalType": "struct G.G1Point",
          "name": "",
          "type": "tuple"
        }
      ],
      "stateMutability": "view",
      "type": "function",
      "constant": true
    },
    {
      "inputs": [
        {
          "internalType": "string",
          "name": "_name",
          "type": "string"
        }
      ],
      "name": "get_ttp_params",
      "outputs": [
        {
          "components": [
            {
              "internalType": "uint256",
              "name": "X",
              "type": "uint256"
            },
            {
              "internalType": "uint256",
              "name": "Y",
              "type": "uint256"
            }
          ],
          "internalType": "struct G.G1Point[]",
          "name": "",
          "type": "tuple[]"
        }
      ],
      "stateMutability": "view",
      "type": "function",
      "constant": true
    }
  ],
  "bytecode": "0x608060405260006001556000600b5534801561001a57600080fd5b50336000806101000a81548173ffffffffffffffffffffffffffffffffffffffff021916908373ffffffffffffffffffffffffffffffffffffffff16021790555061298d8061006a6000396000f3fe608060405234801561001057600080fd5b50600436106100ea5760003560e01c8063a260743a1161008c578063da1b735311610066578063da1b7353146102bb578063eba8c3dd146102eb578063fcd3c13114610307578063fe79cc8c14610337576100ea565b8063a260743a1461022b578063a794c77f1461025b578063d30f2bc31461028b576100ea565b80637e1b39bf116100c85780637e1b39bf1461017f5780638b4345d1146101af57806394dee9cc146101cb578063a2191d38146101fb576100ea565b8063437fe4df146100ef5780636cba32c81461011f578063730163bf1461014f575b600080fd5b61010960048036038101906101049190611762565b610367565b60405161011691906117c4565b60405180910390f35b61013960048036038101906101349190611762565b61038f565b6040516101469190611968565b60405180910390f35b61016960048036038101906101649190611762565b6104dc565b6040516101769190611968565b60405180910390f35b61019960048036038101906101949190611762565b610629565b6040516101a691906119b9565b60405180910390f35b6101c960048036038101906101c49190611b1d565b6106bb565b005b6101e560048036038101906101e09190611762565b610832565b6040516101f29190611c86565b60405180910390f35b61021560048036038101906102109190611762565b610909565b60405161022291906117c4565b60405180910390f35b61024560048036038101906102409190611762565b610931565b6040516102529190611c86565b60405180910390f35b61027560048036038101906102709190611762565b610a08565b6040516102829190611d3f565b60405180910390f35b6102a560048036038101906102a09190611762565b610ac4565b6040516102b29190611d90565b60405180910390f35b6102d560048036038101906102d09190611762565b610bcc565b6040516102e29190611c86565b60405180910390f35b610305600480360381019061030091906121f4565b610ca3565b005b610321600480360381019061031c91906123d2565b611169565b60405161032e919061257b565b60405180910390f35b610351600480360381019061034c9190611762565b6113a2565b60405161035e9190611c86565b60405180910390f35b6000600c826040516103799190612617565b9081526020016040518091039020549050919050565b6060600061039c83610909565b9050600081036103e1576040517f08c379a00000000000000000000000000000000000000000000000000000000081526004016103d89061268b565b60405180910390fd5b60086000828152602001908152602001600020805480602002602001604051908101604052809291908181526020016000905b828210156104d0578382906000526020600020906004020160405180604001604052908160008201600280602002604051908101604052809291908260028015610473576020028201915b81548152602001906001019080831161045f575b50505050508152602001600282016002806020026040519081016040528092919082600280156104b8576020028201915b8154815260200190600101908083116104a4575b50505050508152505081526020019060010190610414565b50505050915050919050565b606060006104e983610909565b90506000810361052e576040517f08c379a00000000000000000000000000000000000000000000000000000000081526004016105259061268b565b60405180910390fd5b60056000828152602001908152602001600020805480602002602001604051908101604052809291908181526020016000905b8282101561061d5783829060005260206000209060040201604051806040016040529081600082016002806020026040519081016040528092919082600280156105c0576020028201915b8154815260200190600101908083116105ac575b5050505050815260200160028201600280602002604051908101604052809291908260028015610605576020028201915b8154815260200190600101908083116105f1575b50505050508152505081526020019060010190610561565b50505050915050919050565b6106316114fc565b600061063c83610367565b905060008103610681576040517f08c379a0000000000000000000000000000000000000000000000000000000008152600401610678906126f7565b60405180910390fd5b600e600082815260200190815260200160002060405180604001604052908160008201548152602001600182015481525050915050919050565b60008054906101000a900473ffffffffffffffffffffffffffffffffffffffff1673ffffffffffffffffffffffffffffffffffffffff163373ffffffffffffffffffffffffffffffffffffffff161461071357600080fd5b600061071e84610367565b1461075e576040517f08c379a000000000000000000000000000000000000000000000000000000000815260040161075590612763565b60405180910390fd5b61076783611479565b600061077284610367565b905060005b825181101561080057600d60008381526020019081526020016000208382815181106107a6576107a5612783565b5b602002602001015190806001815401808255809150506001900390600052602060002090600202016000909190919091506000820151816000015560208201518160010155505080806107f8906127e1565b915050610777565b5082600e6000838152602001908152602001600020600082015181600001556020820151816001015590505050505050565b6060600061083f83610909565b905060008103610884576040517f08c379a000000000000000000000000000000000000000000000000000000000815260040161087b9061268b565b60405180910390fd5b60066000828152602001908152602001600020805480602002602001604051908101604052809291908181526020016000905b828210156108fd578382906000526020600020906002020160405180604001604052908160008201548152602001600182015481525050815260200190600101906108b7565b50505050915050919050565b600060028260405161091b9190612617565b9081526020016040518091039020549050919050565b6060600061093e83610909565b905060008103610983576040517f08c379a000000000000000000000000000000000000000000000000000000000815260040161097a9061268b565b60405180910390fd5b60046000828152602001908152602001600020805480602002602001604051908101604052809291908181526020016000905b828210156109fc578382906000526020600020906002020160405180604001604052908160008201548152602001600182015481525050815260200190600101906109b6565b50505050915050919050565b60606000610a1583610909565b905060008103610a5a576040517f08c379a0000000000000000000000000000000000000000000000000000000008152600401610a519061268b565b60405180910390fd5b60076000828152602001908152602001600020805480602002602001604051908101604052809291908181526020018280548015610ab757602002820191906000526020600020905b815481526020019060010190808311610aa3575b5050505050915050919050565b610acc611516565b6000610ad783610909565b905060008103610b1c576040517f08c379a0000000000000000000000000000000000000000000000000000000008152600401610b139061268b565b60405180910390fd5b6003600082815260200190815260200160002060405180604001604052908160008201600280602002604051908101604052809291908260028015610b76576020028201915b815481526020019060010190808311610b62575b5050505050815260200160028201600280602002604051908101604052809291908260028015610bbb576020028201915b815481526020019060010190808311610ba7575b505050505081525050915050919050565b60606000610bd983610909565b905060008103610c1e576040517f08c379a0000000000000000000000000000000000000000000000000000000008152600401610c159061268b565b60405180910390fd5b60096000828152602001908152602001600020805480602002602001604051908101604052809291908181526020016000905b82821015610c9757838290600052602060002090600202016040518060400160405290816000820154815260200160018201548152505081526020019060010190610c51565b50505050915050919050565b60008054906101000a900473ffffffffffffffffffffffffffffffffffffffff1673ffffffffffffffffffffffffffffffffffffffff163373ffffffffffffffffffffffffffffffffffffffff1614610cfb57600080fd5b6000610d068b610909565b14610d46576040517f08c379a0000000000000000000000000000000000000000000000000000000008152600401610d3d90612875565b60405180910390fd5b610d4f8a6114bb565b6000610d5a8b610909565b905060005b8a51811015610de857600660008381526020019081526020016000208b8281518110610d8e57610d8d612783565b5b60200260200101519080600181540180825580915050600190039060005260206000209060020201600090919091909150600082015181600001556020820151816001015550508080610de0906127e1565b915050610d5f565b5081600760008381526020019081526020016000209080519060200190610e1092919061153c565b508860036000838152602001908152602001600020600082015181600001906002610e3c929190611589565b50602082015181600201906002610e54929190611589565b5090505060005b8751811015610f005760056000838152602001908152602001600020888281518110610e8a57610e89612783565b5b60200260200101519080600181540180825580915050600190039060005260206000209060040201600090919091909150600082015181600001906002610ed2929190611589565b50602082015181600201906002610eea929190611589565b5050508080610ef8906127e1565b915050610e5b565b5060005b8851811015610f8d5760046000838152602001908152602001600020898281518110610f3357610f32612783565b5b60200260200101519080600181540180825580915050600190039060005260206000209060020201600090919091909150600082015181600001556020820151816001015550508080610f85906127e1565b915050610f04565b5060005b86518110156110365760086000838152602001908152602001600020878281518110610fc057610fbf612783565b5b60200260200101519080600181540180825580915050600190039060005260206000209060040201600090919091909150600082015181600001906002611008929190611589565b50602082015181600201906002611020929190611589565b505050808061102e906127e1565b915050610f91565b5060005b83518110156110ce5783818151811061105657611055612783565b5b6020026020010151600a600084815260200190815260200160002086838151811061108457611083612783565b5b60200260200101516040516110999190612617565b908152602001604051809103902090805190602001906110ba92919061153c565b5080806110c6906127e1565b91505061103a565b5060005b855181101561115b576009600083815260200190815260200160002086828151811061110157611100612783565b5b60200260200101519080600181540180825580915050600190039060005260206000209060020201600090919091909150600082015181600001556020820151816001015550508080611153906127e1565b9150506110d2565b505050505050505050505050565b6060600061117684610909565b9050600081036111bb576040517f08c379a00000000000000000000000000000000000000000000000000000000081526004016111b29061268b565b60405180910390fd5b6000835167ffffffffffffffff8111156111d8576111d7611637565b5b60405190808252806020026020018201604052801561120b57816020015b60608152602001906001900390816111f65790505b50905060005b845181101561139657600a60008481526020019081526020016000208582815181106112405761123f612783565b5b60200260200101516040516112559190612617565b90815260200160405180910390208054905067ffffffffffffffff8111156112805761127f611637565b5b6040519080825280602002602001820160405280156112ae5781602001602082028036833780820191505090505b508282815181106112c2576112c1612783565b5b6020026020010181905250600a60008481526020019081526020016000208582815181106112f3576112f2612783565b5b60200260200101516040516113089190612617565b908152602001604051809103902080548060200260200160405190810160405280929190818152602001828054801561136057602002820191906000526020600020905b81548152602001906001019080831161134c575b505050505082828151811061137857611377612783565b5b6020026020010181905250808061138e906127e1565b915050611211565b50809250505092915050565b606060006113af83610367565b9050600081036113f4576040517f08c379a00000000000000000000000000000000000000000000000000000000081526004016113eb906128e1565b60405180910390fd5b600d6000828152602001908152602001600020805480602002602001604051908101604052809291908181526020016000905b8282101561146d57838290600052602060002090600202016040518060400160405290816000820154815260200160018201548152505081526020019060010190611427565b50505050915050919050565b6001600b600082825461148c9190612901565b92505081905550600b54600c826040516114a69190612617565b90815260200160405180910390208190555050565b60018060008282546114cd9190612901565b925050819055506001546002826040516114e79190612617565b90815260200160405180910390208190555050565b604051806040016040528060008152602001600081525090565b60405180604001604052806115296115c9565b81526020016115366115c9565b81525090565b828054828255906000526020600020908101928215611578579160200282015b8281111561157757825182559160200191906001019061155c565b5b50905061158591906115eb565b5090565b82600281019282156115b8579160200282015b828111156115b757825182559160200191906001019061159c565b5b5090506115c591906115eb565b5090565b6040518060400160405280600290602082028036833780820191505090505090565b5b808211156116045760008160009055506001016115ec565b5090565b6000604051905090565b600080fd5b600080fd5b600080fd5b600080fd5b6000601f19601f8301169050919050565b7f4e487b7100000000000000000000000000000000000000000000000000000000600052604160045260246000fd5b61166f82611626565b810181811067ffffffffffffffff8211171561168e5761168d611637565b5b80604052505050565b60006116a1611608565b90506116ad8282611666565b919050565b600067ffffffffffffffff8211156116cd576116cc611637565b5b6116d682611626565b9050602081019050919050565b82818337600083830152505050565b6000611705611700846116b2565b611697565b90508281526020810184848401111561172157611720611621565b5b61172c8482856116e3565b509392505050565b600082601f8301126117495761174861161c565b5b81356117598482602086016116f2565b91505092915050565b60006020828403121561177857611777611612565b5b600082013567ffffffffffffffff81111561179657611795611617565b5b6117a284828501611734565b91505092915050565b6000819050919050565b6117be816117ab565b82525050565b60006020820190506117d960008301846117b5565b92915050565b600081519050919050565b600082825260208201905092915050565b6000819050602082019050919050565b600060029050919050565b600081905092915050565b6000819050919050565b611834816117ab565b82525050565b6000611846838361182b565b60208301905092915050565b6000602082019050919050565b6118688161180b565b6118728184611816565b925061187d82611821565b8060005b838110156118ae578151611895878261183a565b96506118a083611852565b925050600181019050611881565b505050505050565b6080820160008201516118cc600085018261185f565b5060208201516118df604085018261185f565b50505050565b60006118f183836118b6565b60808301905092915050565b6000602082019050919050565b6000611915826117df565b61191f81856117ea565b935061192a836117fb565b8060005b8381101561195b57815161194288826118e5565b975061194d836118fd565b92505060018101905061192e565b5085935050505092915050565b60006020820190508181036000830152611982818461190a565b905092915050565b6040820160008201516119a0600085018261182b565b5060208201516119b3602085018261182b565b50505050565b60006040820190506119ce600083018461198a565b92915050565b600080fd5b6119e2816117ab565b81146119ed57600080fd5b50565b6000813590506119ff816119d9565b92915050565b600060408284031215611a1b57611a1a6119d4565b5b611a256040611697565b90506000611a35848285016119f0565b6000830152506020611a49848285016119f0565b60208301525092915050565b600067ffffffffffffffff821115611a7057611a6f611637565b5b602082029050602081019050919050565b600080fd5b6000611a99611a9484611a55565b611697565b90508083825260208201905060408402830185811115611abc57611abb611a81565b5b835b81811015611ae55780611ad18882611a05565b845260208401935050604081019050611abe565b5050509392505050565b600082601f830112611b0457611b0361161c565b5b8135611b14848260208601611a86565b91505092915050565b600080600060808486031215611b3657611b35611612565b5b600084013567ffffffffffffffff811115611b5457611b53611617565b5b611b6086828701611734565b9350506020611b7186828701611a05565b925050606084013567ffffffffffffffff811115611b9257611b91611617565b5b611b9e86828701611aef565b9150509250925092565b600081519050919050565b600082825260208201905092915050565b6000819050602082019050919050565b604082016000820151611bea600085018261182b565b506020820151611bfd602085018261182b565b50505050565b6000611c0f8383611bd4565b60408301905092915050565b6000602082019050919050565b6000611c3382611ba8565b611c3d8185611bb3565b9350611c4883611bc4565b8060005b83811015611c79578151611c608882611c03565b9750611c6b83611c1b565b925050600181019050611c4c565b5085935050505092915050565b60006020820190508181036000830152611ca08184611c28565b905092915050565b600081519050919050565b600082825260208201905092915050565b6000819050602082019050919050565b6000602082019050919050565b6000611cec82611ca8565b611cf68185611cb3565b9350611d0183611cc4565b8060005b83811015611d32578151611d19888261183a565b9750611d2483611cd4565b925050600181019050611d05565b5085935050505092915050565b60006020820190508181036000830152611d598184611ce1565b905092915050565b608082016000820151611d77600085018261185f565b506020820151611d8a604085018261185f565b50505050565b6000608082019050611da56000830184611d61565b92915050565b600067ffffffffffffffff821115611dc657611dc5611637565b5b602082029050919050565b6000611de4611ddf84611dab565b611697565b90508060208402830185811115611dfe57611dfd611a81565b5b835b81811015611e275780611e1388826119f0565b845260208401935050602081019050611e00565b5050509392505050565b600082601f830112611e4657611e4561161c565b5b6002611e53848285611dd1565b91505092915050565b600060808284031215611e7257611e716119d4565b5b611e7c6040611697565b90506000611e8c84828501611e31565b6000830152506040611ea084828501611e31565b60208301525092915050565b600067ffffffffffffffff821115611ec757611ec6611637565b5b602082029050602081019050919050565b6000611eeb611ee684611eac565b611697565b90508083825260208201905060808402830185811115611f0e57611f0d611a81565b5b835b81811015611f375780611f238882611e5c565b845260208401935050608081019050611f10565b5050509392505050565b600082601f830112611f5657611f5561161c565b5b8135611f66848260208601611ed8565b91505092915050565b600067ffffffffffffffff821115611f8a57611f89611637565b5b602082029050602081019050919050565b6000611fae611fa984611f6f565b611697565b90508083825260208201905060208402830185811115611fd157611fd0611a81565b5b835b8181101561201857803567ffffffffffffffff811115611ff657611ff561161c565b5b8086016120038982611734565b85526020850194505050602081019050611fd3565b5050509392505050565b600082601f8301126120375761203661161c565b5b8135612047848260208601611f9b565b91505092915050565b600067ffffffffffffffff82111561206b5761206a611637565b5b602082029050602081019050919050565b600067ffffffffffffffff82111561209757612096611637565b5b602082029050602081019050919050565b60006120bb6120b68461207c565b611697565b905080838252602082019050602084028301858111156120de576120dd611a81565b5b835b8181101561210757806120f388826119f0565b8452602084019350506020810190506120e0565b5050509392505050565b600082601f8301126121265761212561161c565b5b81356121368482602086016120a8565b91505092915050565b600061215261214d84612050565b611697565b9050808382526020820190506020840283018581111561217557612174611a81565b5b835b818110156121bc57803567ffffffffffffffff81111561219a5761219961161c565b5b8086016121a78982612111565b85526020850194505050602081019050612177565b5050509392505050565b600082601f8301126121db576121da61161c565b5b81356121eb84826020860161213f565b91505092915050565b6000806000806000806000806000806101a08b8d03121561221857612217611612565b5b60008b013567ffffffffffffffff81111561223657612235611617565b5b6122428d828e01611734565b9a505060208b013567ffffffffffffffff81111561226357612262611617565b5b61226f8d828e01611aef565b99505060406122808d828e01611e5c565b98505060c08b013567ffffffffffffffff8111156122a1576122a0611617565b5b6122ad8d828e01611aef565b97505060e08b013567ffffffffffffffff8111156122ce576122cd611617565b5b6122da8d828e01611f41565b9650506101008b013567ffffffffffffffff8111156122fc576122fb611617565b5b6123088d828e01611f41565b9550506101208b013567ffffffffffffffff81111561232a57612329611617565b5b6123368d828e01611aef565b9450506101408b013567ffffffffffffffff81111561235857612357611617565b5b6123648d828e01612022565b9350506101608b013567ffffffffffffffff81111561238657612385611617565b5b6123928d828e016121c6565b9250506101808b013567ffffffffffffffff8111156123b4576123b3611617565b5b6123c08d828e01612111565b9150509295989b9194979a5092959850565b600080604083850312156123e9576123e8611612565b5b600083013567ffffffffffffffff81111561240757612406611617565b5b61241385828601611734565b925050602083013567ffffffffffffffff81111561243457612433611617565b5b61244085828601612022565b9150509250929050565b600081519050919050565b600082825260208201905092915050565b6000819050602082019050919050565b600082825260208201905092915050565b600061249282611ca8565b61249c8185612476565b93506124a783611cc4565b8060005b838110156124d85781516124bf888261183a565b97506124ca83611cd4565b9250506001810190506124ab565b5085935050505092915050565b60006124f18383612487565b905092915050565b6000602082019050919050565b60006125118261244a565b61251b8185612455565b93508360208202850161252d85612466565b8060005b85811015612569578484038952815161254a85826124e5565b9450612555836124f9565b925060208a01995050600181019050612531565b50829750879550505050505092915050565b600060208201905081810360008301526125958184612506565b905092915050565b600081519050919050565b600081905092915050565b60005b838110156125d15780820151818401526020810190506125b6565b838111156125e0576000848401525b50505050565b60006125f18261259d565b6125fb81856125a8565b935061260b8185602086016125b3565b80840191505092915050565b600061262382846125e6565b915081905092915050565b600082825260208201905092915050565b7f4e6f20737563682041432e000000000000000000000000000000000000000000600082015250565b6000612675600b8361262e565b91506126808261263f565b602082019050919050565b600060208201905081810360008301526126a481612668565b9050919050565b7f4e6f2073756368205454502e0000000000000000000000000000000000000000600082015250565b60006126e1600c8361262e565b91506126ec826126ab565b602082019050919050565b60006020820190508181036000830152612710816126d4565b9050919050565b7f545450206e616d6520616c7265616479206578697374732e0000000000000000600082015250565b600061274d60188361262e565b915061275882612717565b602082019050919050565b6000602082019050818103600083015261277c81612740565b9050919050565b7f4e487b7100000000000000000000000000000000000000000000000000000000600052603260045260246000fd5b7f4e487b7100000000000000000000000000000000000000000000000000000000600052601160045260246000fd5b60006127ec826117ab565b91507fffffffffffffffffffffffffffffffffffffffffffffffffffffffffffffffff820361281e5761281d6127b2565b5b600182019050919050565b7f4143206e616d6520616c7265616479206578697374732e000000000000000000600082015250565b600061285f60178361262e565b915061286a82612829565b602082019050919050565b6000602082019050818103600083015261288e81612852565b9050919050565b7f4e6f207375636820545450000000000000000000000000000000000000000000600082015250565b60006128cb600b8361262e565b91506128d682612895565b602082019050919050565b600060208201905081810360008301526128fa816128be565b9050919050565b600061290c826117ab565b9150612917836117ab565b9250827fffffffffffffffffffffffffffffffffffffffffffffffffffffffffffffffff0382111561294c5761294b6127b2565b5b82820190509291505056fea26469706673582212201f53e42c27604835b0e2b0ff98d5f7f7468432887cbaa11e5ef60488847eb0ed64736f6c634300080d0033",
  "immutableReferences": {},
  "source": "// SPDX-License-Identifier: GPL-3.0\npragma solidity >=0.7.0 <0.9.0;\npragma experimental ABIEncoderV2;\n\nimport {G} from \"../libraries/G.sol\";\n\ncontract Params {\n    \n    address private owner;  \n    constructor() {    \n        owner = msg.sender;\n    }\n\n    uint256 private credentialCount = 0;\n\n    mapping(string => uint256) private mapCredentials;\n    function setMapCredentials(string memory name) private {\n        credentialCount += 1;\n        mapCredentials[name] = credentialCount;  \n    }\n\n    function getMapCredentials(string memory name) public view returns (uint256) {\n        return mapCredentials[name];\n    }\n\n    mapping(uint256 => G.G2Point) private alpha;\n    mapping(uint256 => G.G1Point[]) private g1_beta;\n    mapping(uint256 => G.G2Point[]) private beta;\n    mapping(uint256 => G.G1Point[]) private hs;\n    mapping(uint256 => uint256[]) private public_m_encoding;\n    mapping(uint256 => G.G2Point[]) private opk;\n    mapping(uint256 => G.G1Point[]) private beaver_public_key;\n    mapping(uint256 =>  mapping(string => uint256[])) private include_indexes;\n   // mapping(uint256 => string[][]) private ttp_combinations;\n\n    uint256 private TTPCount = 0;\n    mapping(string => uint256) private mapTTPs;\n    function setMapTTPs(string memory name) private {\n        TTPCount += 1;\n        mapTTPs[name] = TTPCount;  \n    }\n\n    function getMapTTPs(string memory name) public view returns (uint256) {\n        return mapTTPs[name];\n    }\n\n    mapping(uint256 => G.G1Point[]) private ttp_hs;\n    mapping(uint256 => G.G1Point) private ttp_pk;\n\n    modifier onlyOwner {\n        require(msg.sender == owner);\n        _;\n    }\n    function set_params(string memory _name, G.G1Point[] memory _hs, G.G2Point memory _alpha, G.G1Point[] memory _g1_beta, G.G2Point[] memory _beta, G.G2Point[] memory _opk,G.G1Point[] memory abc, string[] memory _dependent_ttps, uint256[][] memory _include_indexes, uint256[] memory _public_m_encoding) public onlyOwner {\n        require (getMapCredentials(_name) == 0, \"AC name already exists.\");\n        setMapCredentials(_name);\n        uint256 id = getMapCredentials(_name);\n        for(uint256 i=0; i < _hs.length; i++) {\n            hs[id].push(_hs[i]);\n        }\n        public_m_encoding[id] = _public_m_encoding;\n        alpha[id] = _alpha;\n        for(uint256 i=0; i < _beta.length; i++) {\n            beta[id].push(_beta[i]);\n        }\n        for(uint256 i=0; i < _g1_beta.length; i++) {\n            g1_beta[id].push(_g1_beta[i]);\n        }\n        for(uint256 i=0; i < _opk.length; i++) {\n            opk[id].push(_opk[i]);\n        }\n        for(uint256 i=0; i < _include_indexes.length; i++) {\n            include_indexes[id][_dependent_ttps[i]] = _include_indexes[i];\n        }\n        for(uint256 i=0; i < abc.length; i++) {\n            beaver_public_key[id].push(abc[i]);\n        }\n        // for(uint256 i=0; i < _combinations.length; i++) {\n        //     ttp_combinations[id].push(_combinations[i]);\n        // }\n        \n    }\n\n    function set_ttp_params(string memory _name, G.G1Point memory _ttp_pk, G.G1Point[] memory _hs) public onlyOwner {\n        require (getMapTTPs(_name) == 0, \"TTP name already exists.\");\n        setMapTTPs(_name);\n        uint256 id = getMapTTPs(_name);\n        for(uint256 i=0; i < _hs.length; i++) {\n            ttp_hs[id].push(_hs[i]);\n        }\n        ttp_pk[id] = _ttp_pk;\n    }\n        \n    function get_hs(string memory _name) public view returns (G.G1Point[] memory) {\n        uint256 id = getMapCredentials(_name);\n        require(id != 0, \"No such AC.\");\n        return hs[id];\n    }\n\n    function get_public_m_encoding(string memory _name) public view returns (uint256[] memory) {\n        uint256 id = getMapCredentials(_name);\n        require(id != 0, \"No such AC.\");\n        return public_m_encoding[id];\n    }\n\n    function get_alpha(string memory _name) public view returns (G.G2Point memory) {\n        uint256 id = getMapCredentials(_name);\n        require(id != 0, \"No such AC.\");\n        return alpha[id];\n    }\n    \n    function get_beta(string memory _name) public view returns (G.G2Point[] memory) {\n        uint256 id = getMapCredentials(_name);\n        require(id != 0, \"No such AC.\");\n        return beta[id];\n    }\n\n    function get_g1_beta(string memory _name) public view returns (G.G1Point[] memory) {\n        uint256 id = getMapCredentials(_name);\n        require(id != 0, \"No such AC.\");\n        return g1_beta[id];\n    }\n    \n    function get_opk(string memory _name) public view returns (G.G2Point[] memory) {\n        uint256 id = getMapCredentials(_name);\n        require(id != 0, \"No such AC.\");\n        return opk[id];\n    }\n    function get_bpk(string memory _name) public view returns (G.G1Point[] memory) {\n        uint256 id = getMapCredentials(_name);\n        require(id != 0, \"No such AC.\");\n        return beaver_public_key[id];\n    }\n    // function checkCombination(uint256 id, string[] memory combination) public view returns(bool) {\n    //     string[][] memory all_combinations = ttp_combinations[id];\n    //     for(uint256 i = 0; i < all_combinations.length; i++ ) {\n    //         if(all_combinations[i].length == combination.length) {\n    //             uint256 j = 0;\n    //             for(j = 0; j < combination.length; j++ ) {\n    //                 if (keccak256(bytes(all_combinations[i][j])) != keccak256(bytes(combination[j]))) {\n    //                     break;\n    //                 }\n    //             }\n    //             if ( j == combination.length) {\n    //                 return true;\n    //             }\n    //         }\n    //     }\n    //     return false;\n    // }\n\n    function get_include_indexes(string memory _name, string[] memory combination) public view returns(uint256[][] memory) {\n        uint256 id = getMapCredentials(_name);\n        require(id != 0, \"No such AC.\");\n        //require(checkCombination(id, combination), \"Such a combination is not possible.\");\n        uint256[][] memory _include_indexes = new uint256[][](combination.length);\n        for(uint256 i = 0; i < combination.length; i++ ) {\n            _include_indexes[i] = new uint256[](include_indexes[id][combination[i]].length); \n            _include_indexes[i] = include_indexes[id][combination[i]];\n        }\n        return _include_indexes;\n    }\n\n    // function get_ttp_combinations(string memory _name) public view returns(string[][] memory) {\n    //     uint256 id = getMapCredentials(_name);\n    //     require(id != 0, \"No such AC.\");\n    //     return ttp_combinations[id];\n    // }\n\n    function get_ttpKeys(string memory _name) public view returns(G.G1Point memory) {\n        uint256 id = getMapTTPs(_name);\n        require(id != 0, \"No such TTP.\");\n        return ttp_pk[id];\n    }\n\n    function get_ttp_params(string memory _name) public view returns(G.G1Point[] memory) {\n        uint256 id = getMapTTPs(_name);\n        require(id != 0, \"No such TTP\");\n        return ttp_hs[id];\n    }\n\n}",
  "sourcePath": "/home/neel/acad/DTRAC/RAVC2/Admin/Blockchain/contracts/Params.sol",
  "compiler": {
    "name": "solc",
    "version": "0.8.13+commit.abaa5c0e.Emscripten.clang"
  },
  "schemaVersion": "3.4.13",
  "updatedAt": "2023-07-21T18:48:50.854Z",
  "networkType": "ethereum",
  "devdoc": {
    "kind": "dev",
    "methods": {},
    "version": 1
  },
  "userdoc": {
    "kind": "user",
    "methods": {},
    "version": 1
  }
}