{
  "contractName": "BN256G2",
  "abi": [
    {
      "inputs": [
        {
          "internalType": "uint256",
          "name": "pt1xx",
          "type": "uint256"
        },
        {
          "internalType": "uint256",
          "name": "pt1xy",
          "type": "uint256"
        },
        {
          "internalType": "uint256",
          "name": "pt1yx",
          "type": "uint256"
        },
        {
          "internalType": "uint256",
          "name": "pt1yy",
          "type": "uint256"
        },
        {
          "internalType": "uint256",
          "name": "pt2xx",
          "type": "uint256"
        },
        {
          "internalType": "uint256",
          "name": "pt2xy",
          "type": "uint256"
        },
        {
          "internalType": "uint256",
          "name": "pt2yx",
          "type": "uint256"
        },
        {
          "internalType": "uint256",
          "name": "pt2yy",
          "type": "uint256"
        }
      ],
      "name": "ECTwistAdd",
      "outputs": [
        {
          "internalType": "uint256",
          "name": "",
          "type": "uint256"
        },
        {
          "internalType": "uint256",
          "name": "",
          "type": "uint256"
        },
        {
          "internalType": "uint256",
          "name": "",
          "type": "uint256"
        },
        {
          "internalType": "uint256",
          "name": "",
          "type": "uint256"
        }
      ],
      "stateMutability": "view",
      "type": "function",
      "constant": true
    }
  ],
  "bytecode": "0x61129e610053600b82828239805160001a607314610046577f4e487b7100000000000000000000000000000000000000000000000000000000600052600060045260246000fd5b30600052607381538281f3fe73000000000000000000000000000000000000000030146080604052600436106100355760003560e01c806361a931ec1461003a575b600080fd5b610054600480360381019061004f919061106e565b61006d565b6040516100649493929190611133565b60405180910390f35b60008060008060008c148015610083575060008b145b801561008f575060008a145b801561009b5750600089145b156100f7576000881480156100b05750600087145b80156100bc5750600086145b80156100c85750600085145b6100e6576100d888888888610253565b6100e5576100e4611178565b5b5b878787879350935093509350610244565b6000881480156101075750600087145b80156101135750600086145b801561011f5750600085145b1561014e576101308c8c8c8c610253565b61013d5761013c611178565b5b8b8b8b8b9350935093509350610244565b61015a8c8c8c8c610253565b61016757610166611178565b5b61017388888888610253565b6101805761017f611178565b5b600061019a8d8d8d8d600160008f8f8f8f6001600061031c565b905061023a816000600681106101b3576101b26111a7565b5b6020020151826001600681106101cc576101cb6111a7565b5b6020020151836002600681106101e5576101e46111a7565b5b6020020151846003600681106101fe576101fd6111a7565b5b602002015185600460068110610217576102166111a7565b5b6020020151866005600681106102305761022f6111a7565b5b6020020151610a34565b9450945094509450505b98509850985098945050505050565b600080600080600061026787878989610a86565b809450819550505061027b89898b8b610a86565b809250819350505061028f82828b8b610a86565b80925081935050506102a384848484610bb7565b80945081955050506102f684847f2b149d40ceb8aaae81be18991be06ac3b5b4c5e559dbefa33267e6dc24a138e57e9713b03af0fed4cd2cafadeed8fdf4a74fa084e52d1852e4a2bd0685c315d2610bb7565b809450819550505060008414801561030e5750600083145b945050505050949350505050565b610324611011565b6000891480156103345750600088145b156103f25786868686868686600060068110610353576103526111a7565b5b602002018760016006811061036b5761036a6111a7565b5b6020020188600260068110610383576103826111a7565b5b602002018960036006811061039b5761039a6111a7565b5b602002018a6004600681106103b3576103b26111a7565b5b602002018b6005600681106103cb576103ca6111a7565b5b60200201868152508681525086815250868152508681525086815250505050505050610a24565b6000831480156104025750600082145b156104c0578c8c8c8c8c8c86600060068110610421576104206111a7565b5b6020020187600160068110610439576104386111a7565b5b6020020188600260068110610451576104506111a7565b5b6020020189600360068110610469576104686111a7565b5b602002018a600460068110610481576104806111a7565b5b602002018b600560068110610499576104986111a7565b5b60200201868152508681525086815250868152508681525086815250505050505050610a24565b6104cc85858b8b610a86565b80955081965050506104e08b8b8585610a86565b826002600681106104f4576104f36111a7565b5b602002018360036006811061050c5761050b6111a7565b5b602002018281525082815250505061052687878b8b610a86565b809750819850505061053a8d8d8585610a86565b8260046006811061054e5761054d6111a7565b5b6020020183600560068110610566576105656111a7565b5b602002018281525082815250505080600460068110610588576105876111a7565b5b6020020151871480156105b25750806005600681106105aa576105a96111a7565b5b602002015186145b1561077957806002600681106105cb576105ca6111a7565b5b6020020151851480156105f55750806003600681106105ed576105ec6111a7565b5b602002015184145b156106bb576106088d8d8d8d8d8d610c1d565b8660006006811061061c5761061b6111a7565b5b6020020187600160068110610634576106336111a7565b5b602002018860026006811061064c5761064b6111a7565b5b6020020189600360068110610664576106636111a7565b5b602002018a60046006811061067c5761067b6111a7565b5b602002018b600560068110610694576106936111a7565b5b60200201868152508681525086815250868152508681525086815250505050505050610a24565b6001600060016000806000866000600681106106da576106d96111a7565b5b60200201876001600681106106f2576106f16111a7565b5b602002018860026006811061070a576107096111a7565b5b6020020189600360068110610722576107216111a7565b5b602002018a60046006811061073a576107396111a7565b5b602002018b600560068110610752576107516111a7565b5b60200201868152508681525086815250868152508681525086815250505050505050610a24565b61078589898585610a86565b80935081945050506107c98585836002600681106107a6576107a56111a7565b5b6020020151846003600681106107bf576107be6111a7565b5b6020020151610bb7565b809d50819e50505061080d8787836004600681106107ea576107e96111a7565b5b602002015184600560068110610803576108026111a7565b5b6020020151610bb7565b809b50819c5050506108218b8b8d8d610a86565b809950819a505050610865898983600460068110610842576108416111a7565b5b60200201518460056006811061085b5761085a6111a7565b5b6020020151610a86565b809550819650505061087989898d8d610a86565b809950819a50505061088d89898585610a86565b826004600681106108a1576108a06111a7565b5b60200201836005600681106108b9576108b86111a7565b5b60200201828152508281525050506108d38d8d8f8f610a86565b80975081985050506108e787878585610a86565b80975081985050506108fb87878b8b610bb7565b809750819850505061090f85856002610dc5565b809350819450505061092387878585610bb7565b80975081985050506109378b8b8989610a86565b8260006006811061094b5761094a6111a7565b5b6020020183600160068110610963576109626111a7565b5b602002018281525082815250505061097d85858989610bb7565b809b50819c5050506109918d8d8d8d610a86565b809b50819c5050506109d58989836002600681106109b2576109b16111a7565b5b6020020151846003600681106109cb576109ca6111a7565b5b6020020151610a86565b809d50819e5050506109e98b8b8f8f610bb7565b826002600681106109fd576109fc6111a7565b5b6020020183600360068110610a1557610a146111a7565b5b60200201828152508281525050505b9c9b505050505050505050505050565b600080600080600080610a478888610e38565b8092508193505050610a5b8c8c8484610a86565b8096508197505050610a6f8a8a8484610a86565b809450819550505050509650965096509692505050565b600080610b167f30644e72e131a029b85045b68181585d97816a916871ca8d3c208c16d87cfd4780610abb57610aba6111d6565b5b8588097f30644e72e131a029b85045b68181585d97816a916871ca8d3c208c16d87cfd4780610aed57610aec6111d6565b5b8588097f30644e72e131a029b85045b68181585d97816a916871ca8d3c208c16d87cfd47610f97565b7f30644e72e131a029b85045b68181585d97816a916871ca8d3c208c16d87cfd4780610b4557610b446111d6565b5b7f30644e72e131a029b85045b68181585d97816a916871ca8d3c208c16d87cfd4780610b7457610b736111d6565b5b8688097f30644e72e131a029b85045b68181585d97816a916871ca8d3c208c16d87cfd4780610ba657610ba56111d6565b5b868a09089150915094509492505050565b600080610be586857f30644e72e131a029b85045b68181585d97816a916871ca8d3c208c16d87cfd47610f97565b610c1086857f30644e72e131a029b85045b68181585d97816a916871ca8d3c208c16d87cfd47610f97565b9150915094509492505050565b600080600080600080610c328c8c6003610dc5565b8096508197505050610c4686868e8e610a86565b8096508197505050610c5a8a8a8a8a610a86565b8098508199505050610c6e8c8c8c8c610a86565b8094508195505050610c8284848a8a610a86565b8094508195505050610c9686868888610a86565b809c50819d505050610caa84846008610dc5565b8092508193505050610cbe8c8c8484610bb7565b809c50819d505050610cd288888a8a610a86565b8092508193505050610ce684846004610dc5565b8094508195505050610cfa84848e8e610bb7565b8094508195505050610d0e84848888610a86565b8094508195505050610d228a8a6008610dc5565b8096508197505050610d3686868c8c610a86565b8096508197505050610d4a86868484610a86565b8096508197505050610d5e84848888610bb7565b8094508195505050610d728c8c6002610dc5565b8096508197505050610d8686868a8a610a86565b8096508197505050610d9a88888484610a86565b8092508193505050610dae82826008610dc5565b809250819350505096509650965096509650969050565b6000807f30644e72e131a029b85045b68181585d97816a916871ca8d3c208c16d87cfd4780610df757610df66111d6565b5b8386097f30644e72e131a029b85045b68181585d97816a916871ca8d3c208c16d87cfd4780610e2957610e286111d6565b5b84860991509150935093915050565b6000806000610efa7f30644e72e131a029b85045b68181585d97816a916871ca8d3c208c16d87cfd4780610e6f57610e6e6111d6565b5b7f30644e72e131a029b85045b68181585d97816a916871ca8d3c208c16d87cfd4780610e9e57610e9d6111d6565b5b8788097f30644e72e131a029b85045b68181585d97816a916871ca8d3c208c16d87cfd4780610ed057610ecf6111d6565b5b878809087f30644e72e131a029b85045b68181585d97816a916871ca8d3c208c16d87cfd47610fbf565b90507f30644e72e131a029b85045b68181585d97816a916871ca8d3c208c16d87cfd4780610f2b57610f2a6111d6565b5b8186097f30644e72e131a029b85045b68181585d97816a916871ca8d3c208c16d87cfd4780610f5d57610f5c6111d6565b5b8286097f30644e72e131a029b85045b68181585d97816a916871ca8d3c208c16d87cfd47610f8b9190611234565b92509250509250929050565b60008180610fa857610fa76111d6565b5b8383610fb49190611234565b850890509392505050565b60008060405160208152602080820152602060408201528460608201526002840360808201528360a082015260208160c08360056107d05a03fa915080519250508061100a57600080fd5b5092915050565b6040518060c00160405280600690602082028036833780820191505090505090565b600080fd5b6000819050919050565b61104b81611038565b811461105657600080fd5b50565b60008135905061106881611042565b92915050565b600080600080600080600080610100898b03121561108f5761108e611033565b5b600061109d8b828c01611059565b98505060206110ae8b828c01611059565b97505060406110bf8b828c01611059565b96505060606110d08b828c01611059565b95505060806110e18b828c01611059565b94505060a06110f28b828c01611059565b93505060c06111038b828c01611059565b92505060e06111148b828c01611059565b9150509295985092959890939650565b61112d81611038565b82525050565b60006080820190506111486000830187611124565b6111556020830186611124565b6111626040830185611124565b61116f6060830184611124565b95945050505050565b7f4e487b7100000000000000000000000000000000000000000000000000000000600052600160045260246000fd5b7f4e487b7100000000000000000000000000000000000000000000000000000000600052603260045260246000fd5b7f4e487b7100000000000000000000000000000000000000000000000000000000600052601260045260246000fd5b7f4e487b7100000000000000000000000000000000000000000000000000000000600052601160045260246000fd5b600061123f82611038565b915061124a83611038565b92508282101561125d5761125c611205565b5b82820390509291505056fea26469706673582212204ecd435e74c88442efb0c0815ce3d8fd9fdb18b767ae2ffb2380f76e3d162e3c64736f6c634300080d0033",
  "immutableReferences": {},
  "source": "// SPDX-License-Identifier: GPL-3.0\npragma solidity >=0.7.0 <0.9.0;\n\n\nlibrary BN256G2 {\n    uint256 internal constant FIELD_MODULUS = 0x30644e72e131a029b85045b68181585d97816a916871ca8d3c208c16d87cfd47;\n    uint256 internal constant TWISTBX = 0x2b149d40ceb8aaae81be18991be06ac3b5b4c5e559dbefa33267e6dc24a138e5;\n    uint256 internal constant TWISTBY = 0x9713b03af0fed4cd2cafadeed8fdf4a74fa084e52d1852e4a2bd0685c315d2;\n    uint internal constant PTXX = 0;\n    uint internal constant PTXY = 1;\n    uint internal constant PTYX = 2;\n    uint internal constant PTYY = 3;\n    uint internal constant PTZX = 4;\n    uint internal constant PTZY = 5;\n\n    /**\n     * @notice Add two twist points\n     * @param pt1xx Coefficient 1 of x on point 1\n     * @param pt1xy Coefficient 2 of x on point 1\n     * @param pt1yx Coefficient 1 of y on point 1\n     * @param pt1yy Coefficient 2 of y on point 1\n     * @param pt2xx Coefficient 1 of x on point 2\n     * @param pt2xy Coefficient 2 of x on point 2\n     * @param pt2yx Coefficient 1 of y on point 2\n     * @param pt2yy Coefficient 2 of y on point 2\n     * @return (pt3xx, pt3xy, pt3yx, pt3yy)\n     */\n    function ECTwistAdd(\n        uint256 pt1xx, uint256 pt1xy,\n        uint256 pt1yx, uint256 pt1yy,\n        uint256 pt2xx, uint256 pt2xy,\n        uint256 pt2yx, uint256 pt2yy\n    ) public view returns (\n        uint256, uint256,\n        uint256, uint256\n    ) {\n        if (\n            pt1xx == 0 && pt1xy == 0 &&\n            pt1yx == 0 && pt1yy == 0\n        ) {\n            if (!(\n                pt2xx == 0 && pt2xy == 0 &&\n                pt2yx == 0 && pt2yy == 0\n            )) {\n                assert(_isOnCurve(\n                    pt2xx, pt2xy,\n                    pt2yx, pt2yy\n                ));\n            }\n            return (\n                pt2xx, pt2xy,\n                pt2yx, pt2yy\n            );\n        } else if (\n            pt2xx == 0 && pt2xy == 0 &&\n            pt2yx == 0 && pt2yy == 0\n        ) {\n            assert(_isOnCurve(\n                pt1xx, pt1xy,\n                pt1yx, pt1yy\n            ));\n            return (\n                pt1xx, pt1xy,\n                pt1yx, pt1yy\n            );\n        }\n\n        assert(_isOnCurve(\n            pt1xx, pt1xy,\n            pt1yx, pt1yy\n        ));\n        assert(_isOnCurve(\n            pt2xx, pt2xy,\n            pt2yx, pt2yy\n        ));\n\n        uint256[6] memory pt3 = _ECTwistAddJacobian(\n            pt1xx, pt1xy,\n            pt1yx, pt1yy,\n            1,     0,\n            pt2xx, pt2xy,\n            pt2yx, pt2yy,\n            1,     0\n        );\n\n        return _fromJacobian(\n            pt3[PTXX], pt3[PTXY],\n            pt3[PTYX], pt3[PTYY],\n            pt3[PTZX], pt3[PTZY]\n        );\n    }\n\n    /**\n     * @notice Get the field modulus\n     * @return The field modulus\n     */\n\n    function submod(uint256 a, uint256 b, uint256 n) internal pure returns (uint256) {\n        return addmod(a, n - b, n);\n    }\n\n    function _FQ2Mul(\n        uint256 xx, uint256 xy,\n        uint256 yx, uint256 yy\n    ) internal pure returns (uint256, uint256) {\n        return (\n            submod(mulmod(xx, yx, FIELD_MODULUS), mulmod(xy, yy, FIELD_MODULUS), FIELD_MODULUS),\n            addmod(mulmod(xx, yy, FIELD_MODULUS), mulmod(xy, yx, FIELD_MODULUS), FIELD_MODULUS)\n        );\n    }\n\n    function _FQ2Muc(\n        uint256 xx, uint256 xy,\n        uint256 c\n    ) internal pure returns (uint256, uint256) {\n        return (\n            mulmod(xx, c, FIELD_MODULUS),\n            mulmod(xy, c, FIELD_MODULUS)\n        );\n    }\n\n    function _FQ2Sub(\n        uint256 xx, uint256 xy,\n        uint256 yx, uint256 yy\n    ) internal pure returns (uint256 rx, uint256 ry) {\n        return (\n            submod(xx, yx, FIELD_MODULUS),\n            submod(xy, yy, FIELD_MODULUS)\n        );\n    }\n\n    function _FQ2Inv(uint256 x, uint256 y) internal view returns (uint256, uint256) {\n        uint256 inv = _modInv(addmod(mulmod(y, y, FIELD_MODULUS), mulmod(x, x, FIELD_MODULUS), FIELD_MODULUS), FIELD_MODULUS);\n        return (\n            mulmod(x, inv, FIELD_MODULUS),\n            FIELD_MODULUS - mulmod(y, inv, FIELD_MODULUS)\n        );\n    }\n\n    function _isOnCurve(\n        uint256 xx, uint256 xy,\n        uint256 yx, uint256 yy\n    ) internal pure returns (bool) {\n        uint256 yyx;\n        uint256 yyy;\n        uint256 xxxx;\n        uint256 xxxy;\n        (yyx, yyy) = _FQ2Mul(yx, yy, yx, yy);\n        (xxxx, xxxy) = _FQ2Mul(xx, xy, xx, xy);\n        (xxxx, xxxy) = _FQ2Mul(xxxx, xxxy, xx, xy);\n        (yyx, yyy) = _FQ2Sub(yyx, yyy, xxxx, xxxy);\n        (yyx, yyy) = _FQ2Sub(yyx, yyy, TWISTBX, TWISTBY);\n        return yyx == 0 && yyy == 0;\n    }\n\n    function _modInv(uint256 a, uint256 n) internal view returns (uint256 result) {\n        bool success;\n        assembly {\n            let freemem := mload(0x40)\n            mstore(freemem, 0x20)\n            mstore(add(freemem,0x20), 0x20)\n            mstore(add(freemem,0x40), 0x20)\n            mstore(add(freemem,0x60), a)\n            mstore(add(freemem,0x80), sub(n, 2))\n            mstore(add(freemem,0xA0), n)\n            success := staticcall(sub(gas(), 2000), 5, freemem, 0xC0, freemem, 0x20)\n            result := mload(freemem)\n        }\n        require(success);\n    }\n\n    function _fromJacobian(\n        uint256 pt1xx, uint256 pt1xy,\n        uint256 pt1yx, uint256 pt1yy,\n        uint256 pt1zx, uint256 pt1zy\n    ) internal view returns (\n        uint256 pt2xx, uint256 pt2xy,\n        uint256 pt2yx, uint256 pt2yy\n    ) {\n        uint256 invzx;\n        uint256 invzy;\n        (invzx, invzy) = _FQ2Inv(pt1zx, pt1zy);\n        (pt2xx, pt2xy) = _FQ2Mul(pt1xx, pt1xy, invzx, invzy);\n        (pt2yx, pt2yy) = _FQ2Mul(pt1yx, pt1yy, invzx, invzy);\n    }\n\n    function _ECTwistAddJacobian(\n        uint256 pt1xx, uint256 pt1xy,\n        uint256 pt1yx, uint256 pt1yy,\n        uint256 pt1zx, uint256 pt1zy,\n        uint256 pt2xx, uint256 pt2xy,\n        uint256 pt2yx, uint256 pt2yy,\n        uint256 pt2zx, uint256 pt2zy) internal pure returns (uint256[6] memory pt3) {\n            if (pt1zx == 0 && pt1zy == 0) {\n                (\n                    pt3[PTXX], pt3[PTXY],\n                    pt3[PTYX], pt3[PTYY],\n                    pt3[PTZX], pt3[PTZY]\n                ) = (\n                    pt2xx, pt2xy,\n                    pt2yx, pt2yy,\n                    pt2zx, pt2zy\n                );\n                return pt3;\n            } else if (pt2zx == 0 && pt2zy == 0) {\n                (\n                    pt3[PTXX], pt3[PTXY],\n                    pt3[PTYX], pt3[PTYY],\n                    pt3[PTZX], pt3[PTZY]\n                ) = (\n                    pt1xx, pt1xy,\n                    pt1yx, pt1yy,\n                    pt1zx, pt1zy\n                );\n                return pt3;\n            }\n\n            (pt2yx,     pt2yy)     = _FQ2Mul(pt2yx, pt2yy, pt1zx, pt1zy); // U1 = y2 * z1\n            (pt3[PTYX], pt3[PTYY]) = _FQ2Mul(pt1yx, pt1yy, pt2zx, pt2zy); // U2 = y1 * z2\n            (pt2xx,     pt2xy)     = _FQ2Mul(pt2xx, pt2xy, pt1zx, pt1zy); // V1 = x2 * z1\n            (pt3[PTZX], pt3[PTZY]) = _FQ2Mul(pt1xx, pt1xy, pt2zx, pt2zy); // V2 = x1 * z2\n\n            if (pt2xx == pt3[PTZX] && pt2xy == pt3[PTZY]) {\n                if (pt2yx == pt3[PTYX] && pt2yy == pt3[PTYY]) {\n                    (\n                        pt3[PTXX], pt3[PTXY],\n                        pt3[PTYX], pt3[PTYY],\n                        pt3[PTZX], pt3[PTZY]\n                    ) = _ECTwistDoubleJacobian(pt1xx, pt1xy, pt1yx, pt1yy, pt1zx, pt1zy);\n                    return pt3;\n                }\n                (\n                    pt3[PTXX], pt3[PTXY],\n                    pt3[PTYX], pt3[PTYY],\n                    pt3[PTZX], pt3[PTZY]\n                ) = (\n                    1, 0,\n                    1, 0,\n                    0, 0\n                );\n                return pt3;\n            }\n\n            (pt2zx,     pt2zy)     = _FQ2Mul(pt1zx, pt1zy, pt2zx,     pt2zy);     // W = z1 * z2\n            (pt1xx,     pt1xy)     = _FQ2Sub(pt2yx, pt2yy, pt3[PTYX], pt3[PTYY]); // U = U1 - U2\n            (pt1yx,     pt1yy)     = _FQ2Sub(pt2xx, pt2xy, pt3[PTZX], pt3[PTZY]); // V = V1 - V2\n            (pt1zx,     pt1zy)     = _FQ2Mul(pt1yx, pt1yy, pt1yx,     pt1yy);     // V_squared = V * V\n            (pt2yx,     pt2yy)     = _FQ2Mul(pt1zx, pt1zy, pt3[PTZX], pt3[PTZY]); // V_squared_times_V2 = V_squared * V2\n            (pt1zx,     pt1zy)     = _FQ2Mul(pt1zx, pt1zy, pt1yx,     pt1yy);     // V_cubed = V * V_squared\n            (pt3[PTZX], pt3[PTZY]) = _FQ2Mul(pt1zx, pt1zy, pt2zx,     pt2zy);     // newz = V_cubed * W\n            (pt2xx,     pt2xy)     = _FQ2Mul(pt1xx, pt1xy, pt1xx,     pt1xy);     // U * U\n            (pt2xx,     pt2xy)     = _FQ2Mul(pt2xx, pt2xy, pt2zx,     pt2zy);     // U * U * W\n            (pt2xx,     pt2xy)     = _FQ2Sub(pt2xx, pt2xy, pt1zx,     pt1zy);     // U * U * W - V_cubed\n            (pt2zx,     pt2zy)     = _FQ2Muc(pt2yx, pt2yy, 2);                    // 2 * V_squared_times_V2\n            (pt2xx,     pt2xy)     = _FQ2Sub(pt2xx, pt2xy, pt2zx,     pt2zy);     // A = U * U * W - V_cubed - 2 * V_squared_times_V2\n            (pt3[PTXX], pt3[PTXY]) = _FQ2Mul(pt1yx, pt1yy, pt2xx,     pt2xy);     // newx = V * A\n            (pt1yx,     pt1yy)     = _FQ2Sub(pt2yx, pt2yy, pt2xx,     pt2xy);     // V_squared_times_V2 - A\n            (pt1yx,     pt1yy)     = _FQ2Mul(pt1xx, pt1xy, pt1yx,     pt1yy);     // U * (V_squared_times_V2 - A)\n            (pt1xx,     pt1xy)     = _FQ2Mul(pt1zx, pt1zy, pt3[PTYX], pt3[PTYY]); // V_cubed * U2\n            (pt3[PTYX], pt3[PTYY]) = _FQ2Sub(pt1yx, pt1yy, pt1xx,     pt1xy);     // newy = U * (V_squared_times_V2 - A) - V_cubed * U2\n    }\n\n    function _ECTwistDoubleJacobian(\n        uint256 pt1xx, uint256 pt1xy,\n        uint256 pt1yx, uint256 pt1yy,\n        uint256 pt1zx, uint256 pt1zy\n    ) internal pure returns (\n        uint256 pt2xx, uint256 pt2xy,\n        uint256 pt2yx, uint256 pt2yy,\n        uint256 pt2zx, uint256 pt2zy\n    ) {\n        (pt2xx, pt2xy) = _FQ2Muc(pt1xx, pt1xy, 3);            // 3 * x\n        (pt2xx, pt2xy) = _FQ2Mul(pt2xx, pt2xy, pt1xx, pt1xy); // W = 3 * x * x\n        (pt1zx, pt1zy) = _FQ2Mul(pt1yx, pt1yy, pt1zx, pt1zy); // S = y * z\n        (pt2yx, pt2yy) = _FQ2Mul(pt1xx, pt1xy, pt1yx, pt1yy); // x * y\n        (pt2yx, pt2yy) = _FQ2Mul(pt2yx, pt2yy, pt1zx, pt1zy); // B = x * y * S\n        (pt1xx, pt1xy) = _FQ2Mul(pt2xx, pt2xy, pt2xx, pt2xy); // W * W\n        (pt2zx, pt2zy) = _FQ2Muc(pt2yx, pt2yy, 8);            // 8 * B\n        (pt1xx, pt1xy) = _FQ2Sub(pt1xx, pt1xy, pt2zx, pt2zy); // H = W * W - 8 * B\n        (pt2zx, pt2zy) = _FQ2Mul(pt1zx, pt1zy, pt1zx, pt1zy); // S_squared = S * S\n        (pt2yx, pt2yy) = _FQ2Muc(pt2yx, pt2yy, 4);            // 4 * B\n        (pt2yx, pt2yy) = _FQ2Sub(pt2yx, pt2yy, pt1xx, pt1xy); // 4 * B - H\n        (pt2yx, pt2yy) = _FQ2Mul(pt2yx, pt2yy, pt2xx, pt2xy); // W * (4 * B - H)\n        (pt2xx, pt2xy) = _FQ2Muc(pt1yx, pt1yy, 8);            // 8 * y\n        (pt2xx, pt2xy) = _FQ2Mul(pt2xx, pt2xy, pt1yx, pt1yy); // 8 * y * y\n        (pt2xx, pt2xy) = _FQ2Mul(pt2xx, pt2xy, pt2zx, pt2zy); // 8 * y * y * S_squared\n        (pt2yx, pt2yy) = _FQ2Sub(pt2yx, pt2yy, pt2xx, pt2xy); // newy = W * (4 * B - H) - 8 * y * y * S_squared\n        (pt2xx, pt2xy) = _FQ2Muc(pt1xx, pt1xy, 2);            // 2 * H\n        (pt2xx, pt2xy) = _FQ2Mul(pt2xx, pt2xy, pt1zx, pt1zy); // newx = 2 * H * S\n        (pt2zx, pt2zy) = _FQ2Mul(pt1zx, pt1zy, pt2zx, pt2zy); // S * S_squared\n        (pt2zx, pt2zy) = _FQ2Muc(pt2zx, pt2zy, 8);            // newz = 8 * S * S_squared\n    }\n}",
  "sourcePath": "/home/neel/acad/DTRAC/RAVC2/Admin/Blockchain/libraries/BN256G2.sol",
  "compiler": {
    "name": "solc",
    "version": "0.8.13+commit.abaa5c0e.Emscripten.clang"
  },
  "schemaVersion": "3.4.13",
  "updatedAt": "2023-08-11T04:09:35.673Z",
  "networkType": "ethereum",
  "devdoc": {
    "kind": "dev",
    "methods": {
      "ECTwistAdd(uint256,uint256,uint256,uint256,uint256,uint256,uint256,uint256)": {
        "params": {
          "pt1xx": "Coefficient 1 of x on point 1",
          "pt1xy": "Coefficient 2 of x on point 1",
          "pt1yx": "Coefficient 1 of y on point 1",
          "pt1yy": "Coefficient 2 of y on point 1",
          "pt2xx": "Coefficient 1 of x on point 2",
          "pt2xy": "Coefficient 2 of x on point 2",
          "pt2yx": "Coefficient 1 of y on point 2",
          "pt2yy": "Coefficient 2 of y on point 2"
        },
        "returns": {
          "_0": "(pt3xx, pt3xy, pt3yx, pt3yy)"
        }
      }
    },
    "version": 1
  },
  "userdoc": {
    "kind": "user",
    "methods": {
      "ECTwistAdd(uint256,uint256,uint256,uint256,uint256,uint256,uint256,uint256)": {
        "notice": "Add two twist points"
      }
    },
    "version": 1
  }
}