{
  "contractName": "Request",
  "abi": [
    {
      "inputs": [
        {
          "internalType": "contract Params",
          "name": "_params",
          "type": "address"
        },
        {
          "internalType": "contract Accumulator",
          "name": "_acc",
          "type": "address"
        }
      ],
      "stateMutability": "nonpayable",
      "type": "constructor"
    },
    {
      "anonymous": false,
      "inputs": [
        {
          "indexed": true,
          "internalType": "uint256",
          "name": "id",
          "type": "uint256"
        },
        {
          "indexed": false,
          "internalType": "address",
          "name": "sender",
          "type": "address"
        },
        {
          "indexed": false,
          "internalType": "uint256[4][]",
          "name": "vcerts",
          "type": "uint256[4][]"
        },
        {
          "indexed": false,
          "internalType": "uint256[2]",
          "name": "cm",
          "type": "uint256[2]"
        },
        {
          "indexed": false,
          "internalType": "uint256[2][]",
          "name": "commitments",
          "type": "uint256[2][]"
        },
        {
          "indexed": false,
          "internalType": "uint256[8][]",
          "name": "ciphershares",
          "type": "uint256[8][]"
        },
        {
          "indexed": false,
          "internalType": "string[]",
          "name": "public_m",
          "type": "string[]"
        },
        {
          "indexed": false,
          "internalType": "string[]",
          "name": "combination",
          "type": "string[]"
        },
        {
          "indexed": false,
          "internalType": "uint256[]",
          "name": "validator_shares",
          "type": "uint256[]"
        },
        {
          "indexed": false,
          "internalType": "uint256[]",
          "name": "opener_shares",
          "type": "uint256[]"
        }
      ],
      "name": "emitRequest",
      "type": "event"
    },
    {
      "inputs": [
        {
          "internalType": "address",
          "name": "addr",
          "type": "address"
        }
      ],
      "name": "set_params",
      "outputs": [],
      "stateMutability": "nonpayable",
      "type": "function"
    },
    {
      "inputs": [
        {
          "internalType": "string",
          "name": "name",
          "type": "string"
        },
        {
          "components": [
            {
              "components": [
                {
                  "internalType": "uint256",
                  "name": "X",
                  "type": "uint256"
                },
                {
                  "internalType": "uint256",
                  "name": "Y",
                  "type": "uint256"
                }
              ],
              "internalType": "struct G.G1Point",
              "name": "commit",
              "type": "tuple"
            },
            {
              "internalType": "uint256[2]",
              "name": "signature",
              "type": "uint256[2]"
            }
          ],
          "internalType": "struct Request.Vcert[]",
          "name": "vcerts",
          "type": "tuple[]"
        },
        {
          "components": [
            {
              "internalType": "uint256",
              "name": "X",
              "type": "uint256"
            },
            {
              "internalType": "uint256",
              "name": "Y",
              "type": "uint256"
            }
          ],
          "internalType": "struct G.G1Point",
          "name": "cm",
          "type": "tuple"
        },
        {
          "components": [
            {
              "components": [
                {
                  "internalType": "uint256",
                  "name": "X",
                  "type": "uint256"
                },
                {
                  "internalType": "uint256",
                  "name": "Y",
                  "type": "uint256"
                }
              ],
              "internalType": "struct G.G1Point[]",
              "name": "commitments",
              "type": "tuple[]"
            },
            {
              "components": [
                {
                  "components": [
                    {
                      "internalType": "uint256[2]",
                      "name": "X",
                      "type": "uint256[2]"
                    },
                    {
                      "internalType": "uint256[2]",
                      "name": "Y",
                      "type": "uint256[2]"
                    }
                  ],
                  "internalType": "struct G.G2Point[2]",
                  "name": "X",
                  "type": "tuple[2]"
                }
              ],
              "internalType": "struct Request.Ciphershare[]",
              "name": "ciphershares",
              "type": "tuple[]"
            }
          ],
          "internalType": "struct Request.Compresser",
          "name": "compressed_params",
          "type": "tuple"
        },
        {
          "components": [
            {
              "internalType": "uint256",
              "name": "X",
              "type": "uint256"
            },
            {
              "internalType": "uint256",
              "name": "Y",
              "type": "uint256"
            }
          ],
          "internalType": "struct G.G1Point[][]",
          "name": "hidden_p",
          "type": "tuple[][]"
        },
        {
          "components": [
            {
              "internalType": "uint256",
              "name": "X",
              "type": "uint256"
            },
            {
              "internalType": "uint256",
              "name": "Y",
              "type": "uint256"
            }
          ],
          "internalType": "struct G.G1Point[]",
          "name": "hr",
          "type": "tuple[]"
        },
        {
          "components": [
            {
              "internalType": "uint256[2]",
              "name": "X",
              "type": "uint256[2]"
            },
            {
              "internalType": "uint256[2]",
              "name": "Y",
              "type": "uint256[2]"
            }
          ],
          "internalType": "struct G.G2Point[]",
          "name": "bo",
          "type": "tuple[]"
        },
        {
          "components": [
            {
              "internalType": "uint256",
              "name": "c",
              "type": "uint256"
            },
            {
              "internalType": "uint256",
              "name": "rr",
              "type": "uint256"
            },
            {
              "internalType": "uint256[]",
              "name": "ros",
              "type": "uint256[]"
            },
            {
              "internalType": "uint256[][]",
              "name": "total_rm",
              "type": "uint256[][]"
            },
            {
              "internalType": "string[]",
              "name": "combination",
              "type": "string[]"
            }
          ],
          "internalType": "struct Request.IssueProof",
          "name": "iproof",
          "type": "tuple"
        },
        {
          "components": [
            {
              "internalType": "uint256[]",
              "name": "c",
              "type": "uint256[]"
            },
            {
              "internalType": "uint256[]",
              "name": "rr",
              "type": "uint256[]"
            },
            {
              "internalType": "uint256[][]",
              "name": "rs",
              "type": "uint256[][]"
            }
          ],
          "internalType": "struct Request.OpenProof",
          "name": "oproof",
          "type": "tuple"
        },
        {
          "components": [
            {
              "components": [
                {
                  "internalType": "uint256[2]",
                  "name": "X",
                  "type": "uint256[2]"
                },
                {
                  "internalType": "uint256[2]",
                  "name": "Y",
                  "type": "uint256[2]"
                }
              ],
              "internalType": "struct G.G2Point[]",
              "name": "Dw",
              "type": "tuple[]"
            },
            {
              "components": [
                {
                  "internalType": "uint256[2]",
                  "name": "X",
                  "type": "uint256[2]"
                },
                {
                  "internalType": "uint256[2]",
                  "name": "Y",
                  "type": "uint256[2]"
                }
              ],
              "internalType": "struct G.G2Point[]",
              "name": "Ew",
              "type": "tuple[]"
            }
          ],
          "internalType": "struct Request.G2PointCompresser",
          "name": "compressedG2points",
          "type": "tuple"
        },
        {
          "internalType": "string[]",
          "name": "public_m",
          "type": "string[]"
        }
      ],
      "name": "RequestCred",
      "outputs": [],
      "stateMutability": "nonpayable",
      "type": "function"
    }
  ],
  "bytecode": "0x60806040523480156200001157600080fd5b5060405162004e1838038062004e1883398101604081905262000034916200008a565b600180546001600160a01b03199081163317909155600080546001600160a01b0394851690831617905560028054929093169116179055620000c9565b6001600160a01b03811681146200008757600080fd5b50565b600080604083850312156200009e57600080fd5b8251620000ab8162000071565b6020840151909250620000be8162000071565b809150509250929050565b614d3f80620000d96000396000f3fe608060405234801561001057600080fd5b50600436106100365760003560e01c80631f667ea81461003b57806385b7937a14610050575b600080fd5b61004e61004936600461425e565b610063565b005b61004e61005e366004614408565b610246565b61006e8b8b8661027f565b6100d25760405162461bcd60e51b815260206004820152602a60248201527f56657269666961626c65206365727469666963617465207665726966696361746044820152691a5bdb8819985a5b195960b21b60648201526084015b60405180910390fd5b6100df8b858b8b8e6104e4565b6101365760405162461bcd60e51b815260206004820152602260248201527f69737375616e6365205a4b506f4b20766572696669636174696f6e206661696c604482015261195960f21b60648201526084016100c9565b6101468b848b8b868c8c8c6105d8565b61019c5760405162461bcd60e51b815260206004820152602160248201527f4f70656e696e67205a4b506f4b20766572696669636174696f6e206661696c656044820152601960fa1b60648201526084016100c9565b600254604051639162c47d60e01b81528a51600482015260208b0151602482015260009182916001600160a01b0390911690639162c47d906044016000604051808303816000875af11580156101f6573d6000803e3d6000fd5b505050506040513d6000823e601f3d908101601f1916820160405261021e919081019061448c565b915091506102378d338e8e8e888c608001518989610767565b50505050505050505050505050565b6001546001600160a01b0316331461025d57600080fd5b600080546001600160a01b0319166001600160a01b0392909216919091179055565b60008060008360800151905080518551146102cf5760405162461bcd60e51b815260206004820152601060248201526f2130b21031b7b6b134b730ba34b7b71760811b60448201526064016100c9565b6000805460405163144323a760e31b81526001600160a01b039091169063a2191d3890610300908a9060040161454b565b602060405180830381865afa15801561031d573d6000803e3d6000fd5b505050506040513d601f19601f82011682018060405250810190610341919061455e565b9050806000036103635760405162461bcd60e51b81526004016100c990614577565b60005b86518110156104715761044b8782815181106103845761038461459c565b60200260200101516000015160008054906101000a90046001600160a01b03166001600160a01b0316637e1b39bf8685815181106103c4576103c461459c565b60200260200101516040518263ffffffff1660e01b81526004016103e8919061454b565b6040805180830381865afa158015610404573d6000803e3d6000fd5b505050506040513d601f19601f8201168201806040525081019061042891906145e2565b89848151811061043a5761043a61459c565b602002602001015160200151610efb565b93508361045f5760009450505050506104dd565b8061046981614614565b915050610366565b5061047b85610f9a565b6104d55760405162461bcd60e51b815260206004820152602560248201527f6d617374657220736563726574206b657920766572696669636174696f6e2066604482015264185a5b195960da1b60648201526084016100c9565b600193505050505b9392505050565b6000806104fc8787608001518660000151888a611052565b90506000610510888860800151888a61142c565b905060006105238860800151868a6117e4565b90506105c68761053a6105358a611a5a565b611ba2565b8460008054906101000a90046001600160a01b03166001600160a01b03166394dee9cc8e6040518263ffffffff1660e01b815260040161057a919061454b565b600060405180830381865afa158015610597573d6000803e3d6000fd5b505050506040513d6000823e601f3d908101601f191682016040526105bf919081019061462d565b8786611c25565b88511493505050505b95945050505050565b60006105ed856000015187602001518a61214f565b6105f9576105f96146bd565b610612898660200151886000015189602001518c612347565b61061e5761061e6146bd565b600061062c61053589611a5a565b60008054604051632537ba7360e21b815292935090916001600160a01b03909116906394dee9cc90610662908e9060040161454b565b600060405180830381865afa15801561067f573d6000803e3d6000fd5b505050506040513d6000823e601f3d908101601f191682016040526106a7919081019061462d565b905060005b8a602001515181101561073e576106ff83896000015183815181106106d3576106d361459c565b60200260200101518a6020015184815181106106f1576106f161459c565b60200260200101518561276b565b8b518051839081106107135761071361459c565b60200260200101511461072c576000935050505061075b565b8061073681614614565b9150506106ac565b506107568b89600001518a60200151858a8a8a612ac9565b925050505b98975050505050505050565b600087516001600160401b0381111561078257610782613a2e565b6040519080825280602002602001820160405280156107bb57816020015b6107a861393a565b8152602001906001900390816107a05790505b50905060005b8851811015610954578881815181106107dc576107dc61459c565b602002602001015160000151600001518282815181106107fe576107fe61459c565b60200260200101516000600481106108185761081861459c565b602002015288518990829081106108315761083161459c565b602002602001015160000151602001518282815181106108535761085361459c565b602002602001015160016004811061086d5761086d61459c565b602002015288518990829081106108865761088661459c565b6020026020010151602001516000600281106108a4576108a461459c565b60200201518282815181106108bb576108bb61459c565b60200260200101516002600481106108d5576108d561459c565b602002015288518990829081106108ee576108ee61459c565b60200260200101516020015160016002811061090c5761090c61459c565b60200201518282815181106109235761092361459c565b602002602001015160036004811061093d5761093d61459c565b60200201528061094c81614614565b9150506107c1565b506040805180820190915287518152602080890151908201528651516000906001600160401b0381111561098a5761098a613a2e565b6040519080825280602002602001820160405280156109c357816020015b6109b0613958565b8152602001906001900390816109a85790505b50905060005b885151811015610a875788518051829081106109e7576109e761459c565b602002602001015160000151828281518110610a0557610a0561459c565b6020026020010151600060028110610a1f57610a1f61459c565b60200201528851805182908110610a3857610a3861459c565b602002602001015160200151828281518110610a5657610a5661459c565b6020026020010151600160028110610a7057610a7061459c565b602002015280610a7f81614614565b9150506109c9565b5060008860200151516001600160401b03811115610aa757610aa7613a2e565b604051908082528060200260200182016040528015610ae057816020015b610acd613976565b815260200190600190039081610ac55790505b50905060005b896020015151811015610dfd5789602001518181518110610b0957610b0961459c565b6020908102919091010151515151518251839083908110610b2c57610b2c61459c565b6020026020010151600060088110610b4657610b4661459c565b60200201818152505089602001518181518110610b6557610b6561459c565b60209081029190910181015151515101518251839083908110610b8a57610b8a61459c565b6020026020010151600160088110610ba457610ba461459c565b60200201818152505089602001518181518110610bc357610bc361459c565b60209081029190910181015151510151518251839083908110610be857610be861459c565b6020026020010151600260088110610c0257610c0261459c565b60200201818152505089602001518181518110610c2157610c2161459c565b6020908102919091018101515151015160016020020151828281518110610c4a57610c4a61459c565b6020026020010151600360088110610c6457610c6461459c565b60200201818152505089602001518181518110610c8357610c8361459c565b60209081029190910181015151015151518251839083908110610ca857610ca861459c565b6020026020010151600460088110610cc257610cc261459c565b60200201818152505089602001518181518110610ce157610ce161459c565b602090810291909101810151518101515101518251839083908110610d0857610d0861459c565b6020026020010151600560088110610d2257610d2261459c565b60200201818152505089602001518181518110610d4157610d4161459c565b602090810291909101810151518101510151518251839083908110610d6857610d6861459c565b6020026020010151600660088110610d8257610d8261459c565b60200201818152505089602001518181518110610da157610da161459c565b60209081029190910181015151810151015160016020020151828281518110610dcc57610dcc61459c565b6020026020010151600760088110610de657610de661459c565b602002015280610df581614614565b915050610ae6565b5060008060009054906101000a90046001600160a01b03166001600160a01b031663a2191d388f6040518263ffffffff1660e01b8152600401610e40919061454b565b602060405180830381865afa158015610e5d573d6000803e3d6000fd5b505050506040513d601f19601f82011682018060405250810190610e81919061455e565b905080600003610ea35760405162461bcd60e51b81526004016100c990614577565b807f166d59876189083e188f08515e0b0492caeeddceebcdc9e16151f5f8b9dbfe318e878787878f8f8f8f604051610ee399989796959493929190614822565b60405180910390a25050505050505050505050505050565b600080610f0785611a5a565b90506000610f238460016020020151610f1e612f73565b612f85565b90506000610f2f612f73565b80610f3c57610f3c61492b565b82840990506000610f4b612f73565b80610f5857610f5861492b565b865184900990506000610f72610f6c612fd6565b84612ff7565b9050610f8781610f828a85612ff7565b613049565b9651965190961498975050505050505050565b600060015b6001836060015151610fb19190614941565b8110156110495782606001518181518110610fce57610fce61459c565b6020026020010151600081518110610fe857610fe861459c565b602002602001015183606001516000815181106110075761100761459c565b60200260200101516000815181106110215761102161459c565b6020026020010151146110375750600092915050565b8061104181614614565b915050610f9f565b50600192915050565b6060600082604001519050600081516001600160401b0381111561107857611078613a2e565b6040519080825280602002602001820160405280156110b157816020015b61109e613995565b8152602001906001900390816110965790505b509050600084606001519050600081600183516110ce9190614941565b815181106110de576110de61459c565b6020026020010151518660400151516110f79190614958565b6001600160401b0381111561110e5761110e613a2e565b604051908082528060200260200182016040528015611137578160200160208202803683370190505b506000805460405163fcd3c13160e01b8152929350909182916001600160a01b03169063fcd3c13190611170908f908f90600401614970565b600060405180830381865afa15801561118d573d6000803e3d6000fd5b505050506040513d6000823e601f3d908101601f191682016040526111b59190810190614995565b905060005b600185516111c89190614941565b8110156112b15760005b8582815181106111e4576111e461459c565b60200260200101515181101561129e578282815181106112065761120661459c565b6020026020010151818151811061121f5761121f61459c565b602002602001015160010361128c578582815181106112405761124061459c565b602002602001015181815181106112595761125961459c565b60200260200101518585815181106112735761127361459c565b6020908102919091010152611289846001614958565b93505b8061129681614614565b9150506111d2565b50806112a981614614565b9150506111ba565b5060005b84600186516112c49190614941565b815181106112d4576112d461459c565b6020026020010151518110156113605784600186516112f39190614941565b815181106113035761130361459c565b6020026020010151818151811061131c5761131c61459c565b60200260200101518484815181106113365761133661459c565b602090810291909101015261134c836001614958565b92508061135881614614565b9150506112b5565b50600061136f6105358b611a5a565b905060005b875181101561141a576113ea6113a78d83815181106113955761139561459c565b60200260200101518c60000151612ff7565b610f826113d46113b5612fd6565b8c86815181106113c7576113c761459c565b6020026020010151612ff7565b610f82868a87815181106113c7576113c761459c565b8782815181106113fc576113fc61459c565b6020026020010181905250808061141290614614565b915050611374565b50949c9b505050505050505050505050565b611434613995565b8151602083015160608401518051600090829061145390600190614941565b815181106114635761146361459c565b60200260200101515186604001515161147c9190614958565b6001600160401b0381111561149357611493613a2e565b6040519080825280602002602001820160405280156114bc578160200160208202803683370190505b506000805460405163fcd3c13160e01b8152929350909182916001600160a01b03169063fcd3c131906114f5908e908e90600401614970565b600060405180830381865afa158015611512573d6000803e3d6000fd5b505050506040513d6000823e601f3d908101601f1916820160405261153a9190810190614995565b905060005b6001855161154d9190614941565b8110156116365760005b8582815181106115695761156961459c565b6020026020010151518110156116235782828151811061158b5761158b61459c565b602002602001015181815181106115a4576115a461459c565b6020026020010151600103611611578582815181106115c5576115c561459c565b602002602001015181815181106115de576115de61459c565b60200260200101518585815181106115f8576115f861459c565b602090810291909101015261160e846001614958565b93505b8061161b81614614565b915050611557565b508061162e81614614565b91505061153f565b5060005b84600186516116499190614941565b815181106116595761165961459c565b6020026020010151518110156116e55784600186516116789190614941565b815181106116885761168861459c565b602002602001015181815181106116a1576116a161459c565b60200260200101518484815181106116bb576116bb61459c565b60209081029190910101526116d1836001614958565b9250806116dd81614614565b91505061163a565b5060008054604051632537ba7360e21b81526001600160a01b03909116906394dee9cc90611717908f9060040161454b565b600060405180830381865afa158015611734573d6000803e3d6000fd5b505050506040513d6000823e601f3d908101601f1916820160405261175c919081019061462d565b9050600061177e61176d8c8a612ff7565b610f82611778612fd6565b8a612ff7565b905060005b85518110156117d3576117bf82610f828584815181106117a5576117a561459c565b60200260200101518985815181106113c7576113c761459c565b9150806117cb81614614565b915050611783565b509c9b505050505050505050505050565b606081810151825181516000906117fd90600190614941565b6001600160401b0381111561181457611814613a2e565b60405190808252806020026020018201604052801561184d57816020015b61183a613995565b8152602001906001900390816118325790505b50905060005b600184516118619190614941565b811015611a4f576000805489516001600160a01b039091169063fe79cc8c908b90859081106118925761189261459c565b60200260200101516040518263ffffffff1660e01b81526004016118b6919061454b565b600060405180830381865afa1580156118d3573d6000803e3d6000fd5b505050506040513d6000823e601f3d908101601f191682016040526118fb919081019061462d565b905060006119268984815181106119145761191461459c565b60200260200101516000015186612ff7565b905061198881610f82611937612fd6565b8987815181106119495761194961459c565b602002602001015160018b89815181106119655761196561459c565b6020026020010151516119789190614941565b815181106113c7576113c761459c565b905060005b60018785815181106119a1576119a161459c565b6020026020010151516119b49190614941565b811015611a1b57611a0782610f828584815181106119d4576119d461459c565b60200260200101518a88815181106119ee576119ee61459c565b602002602001015185815181106113c7576113c761459c565b915080611a1381614614565b91505061198d565b5080848481518110611a2f57611a2f61459c565b602002602001018190525050508080611a4790614614565b915050611853565b509695505050505050565b805160208083015160408051818152606081018252600094938592908201818036833701905050905060005b6020811015611ae057838160208110611aa157611aa161459c565b1a60f81b828281518110611ab757611ab761459c565b60200101906001600160f81b031916908160001a90535080611ad881614614565b915050611a86565b5060005b6020811015611b4857828160208110611aff57611aff61459c565b1a60f81b82611b0f836020614958565b81518110611b1f57611b1f61459c565b60200101906001600160f81b031916908160001a90535080611b4081614614565b915050611ae4565b600282604051611b589190614a45565b602060405180830381855afa158015611b75573d6000803e3d6000fd5b5050506040513d601f19601f82011682018060405250810190611b98919061455e565b9695505050505050565b611baa613995565b60008080611bc6600080516020614cea83398151915286614a61565b90505b611bd281613093565b9093509150600080516020614cca8339815191528283098303611c0b576040805180820190915290815260208101919091529392505050565b600080516020614cca833981519152600182089050611bc9565b600080825184518651611c389190614958565b611c429190614958565b611c4d906020614a83565b611c589060a0614958565b6001600160401b03811115611c6f57611c6f613a2e565b6040519080825280601f01601f191660200182016040528015611c99576020820181803683370190505b5090506000611cae611ca9612fd6565b611a5a565b905060005b6020811015611d0d57818160208110611cce57611cce61459c565b1a60f81b838281518110611ce457611ce461459c565b60200101906001600160f81b031916908160001a90535080611d0581614614565b915050611cb3565b50611d1e611d19613115565b6131d5565b905060005b6020811015611d8757818160208110611d3e57611d3e61459c565b1a60f81b83611d4e836020614958565b81518110611d5e57611d5e61459c565b60200101906001600160f81b031916908160001a90535080611d7f81614614565b915050611d23565b50611d9189611a5a565b905060005b6020811015611dfa57818160208110611db157611db161459c565b1a60f81b83611dc1836040614958565b81518110611dd157611dd161459c565b60200101906001600160f81b031916908160001a90535080611df281614614565b915050611d96565b50611e0488611a5a565b905060005b6020811015611e6d57818160208110611e2457611e2461459c565b1a60f81b83611e34836060614958565b81518110611e4457611e4461459c565b60200101906001600160f81b031916908160001a90535080611e6581614614565b915050611e09565b50611e7787611a5a565b905060005b6020811015611ee057818160208110611e9757611e9761459c565b1a60f81b83611ea7836080614958565b81518110611eb757611eb761459c565b60200101906001600160f81b031916908160001a90535080611ed881614614565b915050611e7c565b5060a060005b8751811015611f9957611f11888281518110611f0457611f0461459c565b6020026020010151611a5a565b925060005b6020811015611f7957838160208110611f3157611f3161459c565b1a60f81b85611f408584614958565b81518110611f5057611f5061459c565b60200101906001600160f81b031916908160001a90535080611f7181614614565b915050611f16565b50611f85826020614958565b915080611f9181614614565b915050611ee6565b5060005b865181101561204357611fbb878281518110611f0457611f0461459c565b925060005b602081101561202357838160208110611fdb57611fdb61459c565b1a60f81b85611fea8584614958565b81518110611ffa57611ffa61459c565b60200101906001600160f81b031916908160001a9053508061201b81614614565b915050611fc0565b5061202f826020614958565b91508061203b81614614565b915050611f9d565b5060005b85518110156120ed57612065868281518110611f0457611f0461459c565b925060005b60208110156120cd578381602081106120855761208561459c565b1a60f81b856120948584614958565b815181106120a4576120a461459c565b60200101906001600160f81b031916908160001a905350806120c581614614565b91505061206a565b506120d9826020614958565b9150806120e581614614565b915050612047565b5060006002846040516121009190614a45565b602060405180830381855afa15801561211d573d6000803e3d6000fd5b5050506040513d601f19601f82011682018060405250810190612140919061455e565b9b9a5050505050505050505050565b60408051600380825260808201909252600091829190816020015b612172613995565b81526020019060019003908161216a5750506040805160038082526080820190925291925060009190602082015b6121a86139af565b8152602001906001900390816121a057905050905060005b865181101561233a576121e86121d4612fd6565b86518051849081106113c7576113c761459c565b836000815181106121fb576121fb61459c565b6020026020010181905250612227612211612fd6565b866020015183815181106113c7576113c761459c565b8360018151811061223a5761223a61459c565b6020026020010181905250612255612250612fd6565b6133fa565b836002815181106122685761226861459c565b60200260200101819052508581815181106122855761228561459c565b60209081029190910101515151825183906000906122a5576122a561459c565b60200260200101819052506122b8613115565b826001815181106122cb576122cb61459c565b60200260200101819052508681815181106122e8576122e861459c565b6020026020010151826002815181106123035761230361459c565b6020026020010181905250612318838361347b565b61232857600093505050506104dd565b8061233281614614565b9150506121c0565b5060019695505050505050565b600080845160036123589190614958565b6001600160401b0381111561236f5761236f613a2e565b6040519080825280602002602001820160405280156123a857816020015b612395613995565b81526020019060019003908161238d5790505b5090506000855160036123bb9190614958565b6001600160401b038111156123d2576123d2613a2e565b60405190808252806020026020018201604052801561240b57816020015b6123f86139af565b8152602001906001900390816123f05790505b506000805460405163730163bf60e01b815292935090916001600160a01b039091169063730163bf90612442908c9060040161454b565b600060405180830381865afa15801561245f573d6000803e3d6000fd5b505050506040513d6000823e601f3d908101601f191682016040526124879190810190614ae7565b60008054604051630d97465960e31b815292935090916001600160a01b0390911690636cba32c8906124bd908d9060040161454b565b600060405180830381865afa1580156124da573d6000803e3d6000fd5b505050506040513d6000823e601f3d908101601f191682016040526125029190810190614ae7565b905060005b895181101561275a5761251b612250612fd6565b8560008151811061252e5761252e61459c565b602002602001018190525089818151811061254b5761254b61459c565b6020026020010151846000815181106125665761256661459c565b602002602001018190525061259261257c612fd6565b886020015183815181106113c7576113c761459c565b856001815181106125a5576125a561459c565b60200260200101819052508181815181106125c2576125c261459c565b6020026020010151846001815181106125dd576125dd61459c565b60200260200101819052506126076125f3612fd6565b88518051849081106113c7576113c761459c565b8560028151811061261a5761261a61459c565b60200260200101819052508781815181106126375761263761459c565b602090810291909101015151600160200201518460028151811061265d5761265d61459c565b602002602001018190525060005b895181101561272b576126ae61267f612fd6565b896040015184815181106126955761269561459c565b602002602001015183815181106113c7576113c761459c565b866126ba836003614958565b815181106126ca576126ca61459c565b60200260200101819052508381815181106126e7576126e761459c565b6020026020010151858260036126fd9190614958565b8151811061270d5761270d61459c565b6020026020010181905250808061272390614614565b91505061266b565b50612736858561347b565b612748576000955050505050506105cf565b8061275281614614565b915050612507565b5060019a9950505050505050505050565b6000808251602061277c9190614a83565b6127879060a0614958565b6001600160401b0381111561279e5761279e613a2e565b6040519080825280601f01601f1916602001820160405280156127c8576020820181803683370190505b50905060006127d8611ca9612fd6565b905060005b6020811015612837578181602081106127f8576127f861459c565b1a60f81b83828151811061280e5761280e61459c565b60200101906001600160f81b031916908160001a9053508061282f81614614565b9150506127dd565b612842611d19613115565b9150600090505b60208110156128ad578181602081106128645761286461459c565b1a60f81b83612874836020614958565b815181106128845761288461459c565b60200101906001600160f81b031916908160001a905350806128a581614614565b915050612849565b6128b688611a5a565b9150600090505b6020811015612921578181602081106128d8576128d861459c565b1a60f81b836128e8836040614958565b815181106128f8576128f861459c565b60200101906001600160f81b031916908160001a9053508061291981614614565b9150506128bd565b61292a876131d5565b9150600090505b60208110156129955781816020811061294c5761294c61459c565b1a60f81b8361295c836060614958565b8151811061296c5761296c61459c565b60200101906001600160f81b031916908160001a9053508061298d81614614565b915050612931565b61299e866131d5565b9150600090505b6020811015612a09578181602081106129c0576129c061459c565b1a60f81b836129d0836080614958565b815181106129e0576129e061459c565b60200101906001600160f81b031916908160001a90535080612a0181614614565b9150506129a5565b50600060a0815b8651831015612ab757612a2e878481518110611f0457611f0461459c565b9350600090505b6020811015612a9857838160208110612a5057612a5061459c565b1a60f81b85612a5f8484614958565b81518110612a6f57612a6f61459c565b60200101906001600160f81b031916908160001a90535080612a9081614614565b915050612a35565b612aa3826020614958565b915082612aaf81614614565b935050612a10565b60006002866040516121009190614a45565b60008087516003612ada9190614958565b6001600160401b03811115612af157612af1613a2e565b604051908082528060200260200182016040528015612b2a57816020015b612b17613995565b815260200190600190039081612b0f5790505b509050600088516003612b3d9190614958565b6001600160401b03811115612b5457612b54613a2e565b604051908082528060200260200182016040528015612b8d57816020015b612b7a6139af565b815260200190600190039081612b725790505b506000805460405163730163bf60e01b815292935090916001600160a01b039091169063730163bf90612bc4908e9060040161454b565b600060405180830381865afa158015612be1573d6000803e3d6000fd5b505050506040513d6000823e601f3d908101601f19168201604052612c099190810190614ae7565b60008054604051630d97465960e31b815292935090916001600160a01b0390911690636cba32c890612c3f908f9060040161454b565b600060405180830381865afa158015612c5c573d6000803e3d6000fd5b505050506040513d6000823e601f3d908101601f19168201604052612c849190810190614ae7565b905060005b8751811015612f5e5760005b8751811015612de657604080518082019091526000808252602082015260015b8b8381518110612cc757612cc761459c565b6020026020010151516001612cdc9190614958565b811015612d5a57612d4682610f828e8681518110612cfc57612cfc61459c565b6020026020010151600185612d119190614941565b81518110612d2157612d2161459c565b602002602001015184886001612d379190614958565b612d419190614c87565b612ff7565b915080612d5281614614565b915050612cb5565b50612d7e8e8381518110612d7057612d7061459c565b602002602001015182613049565b878381518110612d9057612d9061459c565b6020026020010181905250848281518110612dad57612dad61459c565b6020026020010151868381518110612dc757612dc761459c565b6020026020010181905250508080612dde90614614565b915050612c95565b888281518110612df857612df861459c565b6020026020010151868281518110612e1257612e1261459c565b6020026020010181905250612e268b6133fa565b86612e32836001614958565b81518110612e4257612e4261459c565b6020026020010181905250612e58612250612fd6565b86612e64836002614958565b81518110612e7457612e7461459c565b6020026020010181905250828281518110612e9157612e9161459c565b6020026020010151858281518110612eab57612eab61459c565b60200260200101819052508b8281518110612ec857612ec861459c565b60209081029190910181015151015185612ee3836001614958565b81518110612ef357612ef361459c565b6020026020010181905250612f078861375d565b85612f13836002614958565b81518110612f2357612f2361459c565b6020026020010181905250612f38868661347b565b612f4b5760009650505050505050612f68565b5080612f5681614614565b915050612c89565b5060019450505050505b979650505050505050565b600080516020614cea83398151915290565b60008060405160208152602080820152602060408201528460608201526002840360808201528360a082015260208160c08360056107d05a03fa90519250905080612fcf57600080fd5b5092915050565b612fde613995565b5060408051808201909152600181526002602082015290565b612fff613995565b6130076139d4565b835181526020808501519082015260408101839052600060608360808460076107d05a03fa9050808061303657fe5b508061304157600080fd5b505092915050565b613051613995565b61305961393a565b8351815260208085015181830152835160408301528301516060808301919091526000908360c08460066107d05a03fa9050808061303657fe5b60008080600080516020614cca8339815191526003600080516020614cca83398151915286600080516020614cca833981519152888909090890506000613109827f0c19139cb84c680a6e14116da060561765e05aa45a1c72a34f082305b61f3f52600080516020614cca8339815191526137db565b91959194509092505050565b61311d6139af565b50604080516080810182527f198e9393920d483a7260bfb731fb5d25f1aa493335a9e71297e485b7aef312c28183019081527f1800deef121f1e76426a00665e5c4479674322d4f75edadd46debd5cd992f6ed6060830152815281518083019092527f090689d0585ff075ec9e99ad690c3395bc4b313370b38ef355acdadcd122975b82527f12c85ea5db8c6deb4aab71808dcb408fe3d1e7690c43d37b4ce6cc0166fa7daa60208381019190915281019190915290565b60408051608080825260a082019092526000918291906020820181803683370190505083516020015190915060005b602081101561325e5781816020811061321f5761321f61459c565b1a60f81b8382815181106132355761323561459c565b60200101906001600160f81b031916908160001a9053508061325681614614565b915050613204565b505082515160005b60208110156132ca578181602081106132815761328161459c565b1a60f81b83613291836020614958565b815181106132a1576132a161459c565b60200101906001600160f81b031916908160001a905350806132c281614614565b915050613266565b5050602083810151015160005b602081101561333b578181602081106132f2576132f261459c565b1a60f81b83613302836040614958565b815181106133125761331261459c565b60200101906001600160f81b031916908160001a9053508061333381614614565b9150506132d7565b505060208301515160005b60208110156133aa578181602081106133615761336161459c565b1a60f81b83613371836060614958565b815181106133815761338161459c565b60200101906001600160f81b031916908160001a905350806133a281614614565b915050613346565b6002836040516133ba9190614a45565b602060405180830381855afa1580156133d7573d6000803e3d6000fd5b5050506040513d601f19601f820116820180604052508101906105cf919061455e565b613402613995565b8151600080516020614cca8339815191529015801561342357506020830151155b156134435750506040805180820190915260008082526020820152919050565b6040518060400160405280846000015181526020018285602001516134689190614a61565b6134729084614941565b90529392505050565b6000815183511461348b57600080fd5b8251600061349a826006614a83565b90506000816001600160401b038111156134b6576134b6613a2e565b6040519080825280602002602001820160405280156134df578160200160208202803683370190505b50905060005b8381101561371a578681815181106134ff576134ff61459c565b602002602001015160000151828260066135199190614a83565b613524906000614958565b815181106135345761353461459c565b6020026020010181815250508681815181106135525761355261459c565b6020026020010151602001518282600661356c9190614a83565b613577906001614958565b815181106135875761358761459c565b6020026020010181815250508581815181106135a5576135a561459c565b60209081029190910101515151826135be836006614a83565b6135c9906002614958565b815181106135d9576135d961459c565b6020026020010181815250508581815181106135f7576135f761459c565b60209081029190910181015151015182613612836006614a83565b61361d906003614958565b8151811061362d5761362d61459c565b60200260200101818152505085818151811061364b5761364b61459c565b6020026020010151602001516000600281106136695761366961459c565b60200201518261367a836006614a83565b613685906004614958565b815181106136955761369561459c565b6020026020010181815250508581815181106136b3576136b361459c565b6020026020010151602001516001600281106136d1576136d161459c565b6020020151826136e2836006614a83565b6136ed906005614958565b815181106136fd576136fd61459c565b60209081029190910101528061371281614614565b9150506134e5565b506137236139f2565b6000602082602086026020860160086107d05a03fa9050808061374257fe5b508061374d57600080fd5b5051151593505050505b92915050565b6137656139af565b60408051608081018252600081830181815260608301829052825282518084019093528083526020838101829052820192909252905b8351811015612fcf576137c7828583815181106137ba576137ba61459c565b6020026020010151613841565b9150806137d381614614565b91505061379b565b6000806137e66139f2565b6137ee613a10565b602080825281810181905260408201819052606082018890526080820187905260a082018690528260c08360056107d05a03fa9250828061382b57fe5b508261383657600080fd5b505195945050505050565b6138496139af565b82516020808201519151818601518083015190518651808501519051888601519586015195516040805163186a4c7b60e21b81526004810199909952602489019690965260448801949094526064870192909252608486015260a485015260c484019290925260e48301919091525173__BN256G2_______________________________916361a931ec916101048083019260809291908290030181865af41580156138f9573d6000803e3d6000fd5b505050506040513d601f19601f8201168201806040525081019061391d9190614c93565b845160208087015192835291820192909252918152015292915050565b60405180608001604052806004906020820280368337509192915050565b60405180604001604052806002906020820280368337509192915050565b6040518061010001604052806008906020820280368337509192915050565b604051806040016040528060008152602001600081525090565b60405180604001604052806139c2613958565b81526020016139cf613958565b905290565b60405180606001604052806003906020820280368337509192915050565b60405180602001604052806001906020820280368337509192915050565b6040518060c001604052806006906020820280368337509192915050565b634e487b7160e01b600052604160045260246000fd5b604080519081016001600160401b0381118282101715613a6657613a66613a2e565b60405290565b604051602081016001600160401b0381118282101715613a6657613a66613a2e565b60405160a081016001600160401b0381118282101715613a6657613a66613a2e565b604051601f8201601f191681016001600160401b0381118282101715613ad857613ad8613a2e565b604052919050565b600082601f830112613af157600080fd5b81356001600160401b03811115613b0a57613b0a613a2e565b613b1d601f8201601f1916602001613ab0565b818152846020838601011115613b3257600080fd5b816020850160208301376000918101602001919091529392505050565b60006001600160401b03821115613b6857613b68613a2e565b5060051b60200190565b600060408284031215613b8457600080fd5b613b8c613a44565b9050813581526020820135602082015292915050565b600082601f830112613bb357600080fd5b613bbb613a44565b806040840185811115613bcd57600080fd5b845b81811015613be7578035845260209384019301613bcf565b509095945050505050565b600082601f830112613c0357600080fd5b81356020613c18613c1383613b4f565b613ab0565b82815260079290921b84018101918181019086841115613c3757600080fd5b8286015b84811015611a4f5760808189031215613c545760008081fd5b613c5c613a44565b613c668983613b72565b8152613c758960408401613ba2565b81860152835291830191608001613c3b565b600082601f830112613c9857600080fd5b81356020613ca8613c1383613b4f565b82815260069290921b84018101918181019086841115613cc757600080fd5b8286015b84811015611a4f57613cdd8882613b72565b835291830191604001613ccb565b600060808284031215613cfd57600080fd5b613d05613a44565b9050613d118383613ba2565b8152613d208360408401613ba2565b602082015292915050565b600060408284031215613d3d57600080fd5b613d45613a44565b905081356001600160401b0380821115613d5e57600080fd5b613d6a85838601613c87565b8352602091508184013581811115613d8157600080fd5b84019050601f8082018613613d9557600080fd5b8135613da3613c1382613b4f565b81815260089190911b83018401908481019088831115613dc257600080fd5b938501935b82851015613e4e5761010080868b031215613de25760008081fd5b613dea613a6c565b8a86880112613df95760008081fd5b613e01613a44565b91870191808c841115613e145760008081fd5b885b84811015613e3657613e288e82613ceb565b8352918a0191608001613e16565b50825250835250610100949094019390850190613dc7565b808688015250505050505092915050565b600082601f830112613e7057600080fd5b81356020613e80613c1383613b4f565b82815260059290921b84018101918181019086841115613e9f57600080fd5b8286015b84811015611a4f5780356001600160401b03811115613ec25760008081fd5b613ed08986838b0101613c87565b845250918301918301613ea3565b600082601f830112613eef57600080fd5b81356020613eff613c1383613b4f565b82815260079290921b84018101918181019086841115613f1e57600080fd5b8286015b84811015611a4f57613f348882613ceb565b835291830191608001613f22565b600082601f830112613f5357600080fd5b81356020613f63613c1383613b4f565b82815260059290921b84018101918181019086841115613f8257600080fd5b8286015b84811015611a4f5780358352918301918301613f86565b600082601f830112613fae57600080fd5b81356020613fbe613c1383613b4f565b82815260059290921b84018101918181019086841115613fdd57600080fd5b8286015b84811015611a4f5780356001600160401b038111156140005760008081fd5b61400e8986838b0101613f42565b845250918301918301613fe1565b600082601f83011261402d57600080fd5b8135602061403d613c1383613b4f565b82815260059290921b8401810191818101908684111561405c57600080fd5b8286015b84811015611a4f5780356001600160401b0381111561407f5760008081fd5b61408d8986838b0101613ae0565b845250918301918301614060565b600060a082840312156140ad57600080fd5b6140b5613a8e565b8235815260208084013590820152905060408201356001600160401b03808211156140df57600080fd5b6140eb85838601613f42565b6040840152606084013591508082111561410457600080fd5b61411085838601613f9d565b6060840152608084013591508082111561412957600080fd5b506141368482850161401c565b60808301525092915050565b60006060828403121561415457600080fd5b604051606081016001600160401b03808211838310171561417757614177613a2e565b81604052829350843591508082111561418f57600080fd5b61419b86838701613f42565b835260208501359150808211156141b157600080fd5b6141bd86838701613f42565b602084015260408501359150808211156141d657600080fd5b506141e385828601613f9d565b6040830152505092915050565b60006040828403121561420257600080fd5b61420a613a44565b905081356001600160401b038082111561422357600080fd5b61422f85838601613ede565b8352602084013591508082111561424557600080fd5b5061425284828501613ede565b60208301525092915050565b60008060008060008060008060008060006101808c8e03121561428057600080fd5b6001600160401b038c3581101561429657600080fd5b6142a38e8e358f01613ae0565b9b508060208e013511156142b657600080fd5b6142c68e60208f01358f01613bf2565b9a506142d58e60408f01613b72565b99508060808e013511156142e857600080fd5b6142f88e60808f01358f01613d2b565b98508060a08e0135111561430b57600080fd5b61431b8e60a08f01358f01613e5f565b97508060c08e0135111561432e57600080fd5b61433e8e60c08f01358f01613c87565b96508060e08e0135111561435157600080fd5b6143618e60e08f01358f01613ede565b9550806101008e0135111561437557600080fd5b6143868e6101008f01358f0161409b565b9450806101208e0135111561439a57600080fd5b6143ab8e6101208f01358f01614142565b9350806101408e013511156143bf57600080fd5b6143d08e6101408f01358f016141f0565b9250806101608e013511156143e457600080fd5b506143f68d6101608e01358e0161401c565b90509295989b509295989b9093969950565b60006020828403121561441a57600080fd5b81356001600160a01b03811681146104dd57600080fd5b600082601f83011261444257600080fd5b81516020614452613c1383613b4f565b82815260059290921b8401810191818101908684111561447157600080fd5b8286015b84811015611a4f5780518352918301918301614475565b6000806040838503121561449f57600080fd5b82516001600160401b03808211156144b657600080fd5b6144c286838701614431565b935060208501519150808211156144d857600080fd5b506144e585828601614431565b9150509250929050565b60005b8381101561450a5781810151838201526020016144f2565b83811115614519576000848401525b50505050565b600081518084526145378160208601602086016144ef565b601f01601f19169290920160200192915050565b6020815260006104dd602083018461451f565b60006020828403121561457057600080fd5b5051919050565b6020808252600b908201526a27379039bab1b41020a19760a91b604082015260600190565b634e487b7160e01b600052603260045260246000fd5b6000604082840312156145c457600080fd5b6145cc613a44565b9050815181526020820151602082015292915050565b6000604082840312156145f457600080fd5b6104dd83836145b2565b634e487b7160e01b600052601160045260246000fd5b600060018201614626576146266145fe565b5060010190565b6000602080838503121561464057600080fd5b82516001600160401b0381111561465657600080fd5b8301601f8101851361466757600080fd5b8051614675613c1382613b4f565b81815260069190911b8201830190838101908783111561469457600080fd5b928401925b82841015612f68576146ab88856145b2565b82528482019150604084019350614699565b634e487b7160e01b600052600160045260246000fd5b8060005b60028110156145195781518452602093840193909101906001016146d7565b600081518084526020808501945080840160005b838110156147305761471d8783516146d3565b604096909601959082019060010161470a565b509495945050505050565b60008151808452602080850194508084016000805b8481101561479157825188835b600881101561477a5782518252918601919086019060010161475d565b505050610100979097019691830191600101614750565b50959695505050505050565b600081518084526020808501808196508360051b8101915082860160005b858110156147e55782840389526147d384835161451f565b988501989350908401906001016147bb565b5091979650505050505050565b600081518084526020808501945080840160005b8381101561473057815187529582019590820190600101614806565b6001600160a01b038a16815261014060208083018290528a519183018290526000916101608401918c81019184805b8281101561489157845186835b600481101561487b5782518252918601919086019060010161485e565b5050506080959095019493830193600101614851565b50505050506148a3604084018b6146d3565b82810360808401526148b5818a6146f6565b905082810360a08401526148c9818961473b565b905082810360c08401526148dd818861479d565b905082810360e08401526148f1818761479d565b905082810361010084015261490681866147f2565b905082810361012084015261491b81856147f2565b9c9b505050505050505050505050565b634e487b7160e01b600052601260045260246000fd5b600082821015614953576149536145fe565b500390565b6000821982111561496b5761496b6145fe565b500190565b604081526000614983604083018561451f565b82810360208401526105cf818561479d565b600060208083850312156149a857600080fd5b82516001600160401b03808211156149bf57600080fd5b818501915085601f8301126149d357600080fd5b81516149e1613c1382613b4f565b81815260059190911b83018401908481019088831115614a0057600080fd5b8585015b83811015614a3857805185811115614a1c5760008081fd5b614a2a8b89838a0101614431565b845250918601918601614a04565b5098975050505050505050565b60008251614a578184602087016144ef565b9190910192915050565b600082614a7e57634e487b7160e01b600052601260045260246000fd5b500690565b6000816000190483118215151615614a9d57614a9d6145fe565b500290565b600082601f830112614ab357600080fd5b614abb613a44565b806040840185811115614acd57600080fd5b845b81811015613be7578051845260209384019301614acf565b60006020808385031215614afa57600080fd5b82516001600160401b03811115614b1057600080fd5b8301601f81018513614b2157600080fd5b8051614b2f613c1382613b4f565b81815260079190911b82018301908381019087831115614b4e57600080fd5b928401925b82841015612f685760808489031215614b6c5760008081fd5b614b74613a44565b614b7e8986614aa2565b8152614b8d8960408701614aa2565b8187015282526080939093019290840190614b53565b600181815b80851115614bde578160001904821115614bc457614bc46145fe565b80851615614bd157918102915b93841c9390800290614ba8565b509250929050565b600082614bf557506001613757565b81614c0257506000613757565b8160018114614c185760028114614c2257614c3e565b6001915050613757565b60ff841115614c3357614c336145fe565b50506001821b613757565b5060208310610133831016604e8410600b8410161715614c61575081810a613757565b614c6b8383614ba3565b8060001904821115614c7f57614c7f6145fe565b029392505050565b60006104dd8383614be6565b60008060008060808587031215614ca957600080fd5b50508251602084015160408501516060909501519196909550909250905056fe30644e72e131a029b85045b68181585d97816a916871ca8d3c208c16d87cfd4730644e72e131a029b85045b68181585d2833e84879b9709143e1f593f0000001a264697066735822122039a14073937e69d404a9f3f130594aec5b439cac85c3ada026589cc81514c44764736f6c634300080d0033",
  "immutableReferences": {},
  "source": "// SPDX-License-Identifier: GPL-3.0\npragma solidity >=0.7.0 <0.9.0;\npragma experimental ABIEncoderV2;\n\nimport { G } from \"../libraries/G.sol\";\nimport {Params} from \"./Params.sol\";\nimport {Accumulator} from \"./Accumulator.sol\";\n\ncontract Request {\n    Params private params;\n    address private owner;\n    Accumulator private acc;\n\n    constructor(Params _params, Accumulator _acc) {\n        owner = msg.sender;\n        params = _params;\n        acc = _acc;\n    }\n\n    modifier onlyOwner {\n        require(msg.sender == owner);\n        _;\n    }\n\n    function set_params(address addr) public onlyOwner {\n        params = Params(addr);\n    }\n    \n    struct Ciphershare {\n        G.G2Point[2] X;\n    }\n  \n    struct Compresser{\n        G.G1Point[] commitments;\n        Ciphershare[] ciphershares;\n    }\n\n    struct G2PointCompresser {\n        G.G2Point[] Dw;\n        G.G2Point[] Ew;\n    }\n\n    struct IssueProof {\n        uint256 c;\n        uint256 rr;\n        uint256[] ros;\n        uint256[][] total_rm;\n        string[] combination;\n    }\n\n    struct OpenProof {\n        uint256[] c;\n        uint256[] rr;\n        uint256[][] rs;  \n    }\n    \n    struct Vcert {\n        G.G1Point commit;\n        uint256[2] signature;\n    }\n    \n    event emitRequest(uint256 indexed id, address sender, uint256[4][] vcerts, uint256[2] cm, uint256[2][] commitments, uint256[8][] ciphershares, string[] public_m, string[] combination,uint256[] validator_shares,uint256[] opener_shares);\n\n    function check_hr_bo(string memory name, G.G1Point[] memory commitments, Ciphershare[] memory ciphershares, G.G1Point memory h, G.G1Point[][] memory hidden_p, G.G1Point[] memory hr, G.G2Point[] memory bo) private view returns(bool) {\n        G.G1Point[] memory p_X = new G.G1Point[](commitments.length + 3);\n        G.G2Point[] memory p_Y = new G.G2Point[](commitments.length + 3);\n        G.G2Point[] memory beta =  params.get_beta(name);\n        G.G2Point[] memory opk =  params.get_opk(name);\n        for(uint256 i = 0; i< hr.length; i++) {\n            uint256 j = 0;\n            for(j=0; j< bo.length; j++) {\n                G.G1Point memory tmp = G.G1Point(0,0); //= G.g1mul(hidden_p[j][0], (i+1));\n                for(uint256 l=1; l < 1+hidden_p[j].length; l++) {\n                    tmp = G.g1add(tmp, G.g1mul(hidden_p[j][l-1], (i+1) ** l));\n                }\n                p_X[j] = G.g1add(commitments[j], tmp);\n                p_Y[j] = beta[j];\n            }\n            p_X[j] = hr[i];\n            p_X[j+1] = G.g1neg(h);\n            p_X[j+2] = G.g1neg(G.P1());\n            \n            p_Y[j] = opk[i];\n            p_Y[j+1] = ciphershares[i].X[1];\n            p_Y[j+2] = G.ec_sum(bo);\n            \n            if(!G.pairing(p_X, p_Y)) {\n                return false;\n            }\n        }\n        return true;\n    }\n\n    function check_open_proof(string memory name, OpenProof memory proof, G.G1Point memory cm, Compresser memory compressed_params,  G2PointCompresser memory compressedG2points, G.G1Point[][] memory hidden_p, G.G1Point[] memory hr, G.G2Point[] memory bo) private view returns (bool) {\n        assert(verify_Dw(compressedG2points.Dw, compressed_params.ciphershares, proof));\n        assert(verify_Ew(name, compressedG2points.Ew, compressed_params.commitments, compressed_params.ciphershares, proof));\n        G.G1Point memory h = G.HashToPoint(uint256(G.G1_to_binary256(cm)));\n        G.G1Point[] memory hs = params.get_hs(name);\n        for(uint256 i=0; i<proof.rr.length; i++) {\n            if(proof.c[i] != ToChallengeOpen(h, compressedG2points.Dw[i], compressedG2points.Ew[i], hs)) {\n                return false;\n            }\n        }\n        return (check_hr_bo(name, compressed_params.commitments, compressed_params.ciphershares, h, hidden_p, hr, bo));\n    }\n\n    function check_issue_proof(string memory name, IssueProof memory proof, G.G1Point memory cm, Compresser memory compressed_params, Vcert[] memory vcerts) private view returns (bool) {\n        G.G1Point[] memory Aw = calculate_Aw(name, proof.combination, compressed_params.commitments, cm, proof);\n        G.G1Point memory Bw = calculate_Bw(name, proof.combination, cm, proof);\n        G.G1Point[] memory Cw = calculate_Cw(proof.combination, vcerts, proof); \n        return (proof.c == ToChallengeIssue(cm, G.HashToPoint(uint256(G.G1_to_binary256(cm))), Bw, params.get_hs(name), Aw, Cw));\n    }\n\n    function check_Vcerts(string memory name, Vcert[] memory vcerts, IssueProof memory iproof) private view returns(bool) {\n        // require(isRequested(name, vcerts[0]), \"Verifiable certificate already used.\");\n        bool evaluated;\n        string[] memory combination = iproof.combination;\n        require (vcerts.length == combination.length, \"Bad combination.\");\n        uint256 id = params.getMapCredentials(name);\n        require(id != 0, \"No such AC.\");\n        //require(params.checkCombination(id, combination), \"Bad combination.\");\n        for (uint256 i = 0; i < vcerts.length; i++) {//each Vcert is done ECC verification\n            evaluated = G.do_ecdsa_verify(vcerts[i].commit, params.get_ttpKeys(combination[i]), vcerts[i].signature);\n            if(!evaluated) {\n                return false;\n            }\n        }\n        require(check_sk(iproof), \"master secret key verification failed\");\n        return true;\n    }\n\n    function check_sk(IssueProof memory proof) private pure returns(bool) {\n        for (uint256 i=1; i < proof.total_rm.length-1; i++) {  // both private and public attributes proof is included.\n            if(proof.total_rm[0][0] != proof.total_rm[i][0]) {\n                return false;\n            }\n        }\n        return true;\n    }\n\n    function RequestCred(string memory name, Vcert[] memory vcerts, G.G1Point memory cm, Compresser memory compressed_params, G.G1Point[][] memory hidden_p, G.G1Point[] memory hr, G.G2Point[] memory bo, IssueProof memory iproof, OpenProof memory oproof, G2PointCompresser memory compressedG2points, string[] memory public_m) public {\n        //Below 3 checks must be made local\n        require(check_Vcerts(name, vcerts, iproof), \"Verifiable certificate verification failed\");//Vcert verification\n        require(check_issue_proof(name, iproof, cm, compressed_params, vcerts), \"issuance ZKPoK verification failed\");//Issuance verification\n        require(check_open_proof(name, oproof, cm, compressed_params, compressedG2points, hidden_p, hr, bo), \"Opening ZKPoK verification failed\");//Opening Verification\n        (uint256[] memory validator_shares, uint256[] memory opener_shares) = acc.generate_kr_shares(cm);\n        logging(name, msg.sender, vcerts, cm, compressed_params, public_m, iproof.combination, validator_shares, opener_shares);\n        //Need to send iproof, oproof, compressedG2points, hidden_p, hr, bo also to Validator\n        //Can do Opener verification at opener itself. Then, get true from all and then perform logging.\n        //\"hidden_p\": product of hash of commitment and m polynomials that hide private attributes\n        //\"hr\": product of hash of commitment and random number\n        //\"bo\": product of aggregated validator key and random number array \"os\"\n    }\n\n    function logging(string memory name, address sender, Vcert[] memory certs, G.G1Point memory cm, Compresser memory compressed_params, string[] memory public_m, string[] memory combination,uint256[] memory validator_shares,uint256[] memory opener_shares) private {\n        uint256[4][] memory vcerts = new uint256[4][](certs.length); // [cert.commit.X, cert.commit.Y, cert.signature[0], cert.signature[1]];\n        for (uint256 i=0;i<certs.length;i++) {\n            vcerts[i][0] = certs[i].commit.X;\n            vcerts[i][1] = certs[i].commit.Y;\n            vcerts[i][2] = certs[i].signature[0];\n            vcerts[i][3] = certs[i].signature[1];\n        }\n        uint256[2] memory commitment = [cm.X, cm.Y];\n        uint256[2][] memory X = new uint256[2][](compressed_params.commitments.length);\n        for (uint256 i=0;i<compressed_params.commitments.length;i++) {\n            X[i][0] = compressed_params.commitments[i].X;\n            X[i][1] = compressed_params.commitments[i].Y;\n        }\n        uint256[8][] memory Y = new uint256[8][](compressed_params.ciphershares.length);\n        for(uint256 i=0; i<compressed_params.ciphershares.length;i++){\n            Y[i][0] = compressed_params.ciphershares[i].X[0].X[0];\n            Y[i][1] = compressed_params.ciphershares[i].X[0].X[1];\n            Y[i][2] = compressed_params.ciphershares[i].X[0].Y[0];\n            Y[i][3] = compressed_params.ciphershares[i].X[0].Y[1];\n            Y[i][4] = compressed_params.ciphershares[i].X[1].X[0];\n            Y[i][5] = compressed_params.ciphershares[i].X[1].X[1];\n            Y[i][6] = compressed_params.ciphershares[i].X[1].Y[0];\n            Y[i][7] = compressed_params.ciphershares[i].X[1].Y[1];\n        }\n        uint256 id = params.getMapCredentials(name);\n        require(id != 0, \"No such AC.\");\n\n        // Requested[id][cert.commit.X][cert.commit.Y] = true;\n        emit emitRequest(id, sender, vcerts, commitment, X, Y, public_m, combination, validator_shares,opener_shares);\n    }\n\n    function calculate_Aw(string memory name, string[] memory combination, G.G1Point[] memory commitments, G.G1Point memory cm, IssueProof memory proof) private view returns (G.G1Point[] memory) {\n        uint256[] memory ros = proof.ros;\n        G.G1Point[] memory Aw = new G.G1Point[](ros.length);\n        uint256[][] memory total_rm = proof.total_rm;\n        uint256[] memory rm = new uint256[](proof.ros.length + total_rm[total_rm.length-1].length);\n        uint256 k = 0;\n        uint256[][] memory include_indexes = params.get_include_indexes(name, combination);\n        for (uint256 i = 0; i < total_rm.length - 1; i++) {\n            for (uint256 j = 0; j < total_rm[i].length; j++) {\n                if (include_indexes[i][j] == 1){\n                    rm[k] = total_rm[i][j];\n                    k = k+1;\n                }\n            }\n        }\n        for (uint256 i=0; i< total_rm[total_rm.length-1].length; i++) {\n            rm[k] =  total_rm[total_rm.length-1][i];\n            k = k+1;\n        } \n        G.G1Point memory h = G.HashToPoint(uint256(G.G1_to_binary256(cm)));\n        for(uint256 i=0; i < ros.length; i++) {\n            Aw[i] = G.g1add(G.g1mul(commitments[i], proof.c), G.g1add(G.g1mul(G.P1(), ros[i]), G.g1mul(h, rm[i])));\n        }\n        return Aw;\n    }\n\n    function calculate_Bw(string memory name, string[] memory combination, G.G1Point memory cm, IssueProof memory proof) private view returns (G.G1Point memory) {\n        uint256 c = proof.c;\n        uint256 rr = proof.rr;\n        uint256[][] memory total_rm = proof.total_rm;\n        uint256[] memory rm = new uint256[](proof.ros.length + total_rm[total_rm.length-1].length);\n        uint256 k = 0;\n        uint256[][] memory include_indexes = params.get_include_indexes(name, combination);\n        for (uint256 i = 0; i < total_rm.length - 1; i++) {\n            for (uint256 j = 0; j < total_rm[i].length; j++) {\n                if (include_indexes[i][j] == 1){\n                    rm[k] = total_rm[i][j];\n                    k = k+1;\n                }\n            }\n        }\n        for (uint256 i=0; i< total_rm[total_rm.length-1].length; i++) {\n            rm[k] =  total_rm[total_rm.length-1][i];\n            k = k+1;\n        }\n        G.G1Point[] memory hs = params.get_hs(name);\n        G.G1Point memory Bw = G.g1add(G.g1mul(cm, c), G.g1mul(G.P1(), rr));\n        for(uint256 i=0; i< rm.length; i++) {\n            Bw = G.g1add(Bw, G.g1mul(hs[i], rm[i]));\n        }\n        return Bw;\n    }\n\n    function verify_Dw(G.G2Point[] memory Dw, Ciphershare[] memory ciphershares, OpenProof memory proof) private view returns(bool) {\n        // Dw and rr should be same length\n        G.G1Point[] memory AA = new G.G1Point[](3);\n        G.G2Point[] memory AB = new G.G2Point[](3);\n        for(uint256 i=0; i< Dw.length; i++) {\n            AA[0] = G.g1mul(G.P1(), proof.c[i]);\n            AA[1] = G.g1mul(G.P1(), proof.rr[i]);\n            AA[2] = G.g1neg(G.P1());\n            AB[0] = ciphershares[i].X[0];\n            AB[1] = G.P2();\n            AB[2] = Dw[i];\n            if (!G.pairing(AA, AB)) {\n                return false;\n            }\n        }\n        return true;\n    }\n\n    function verify_Ew(string memory name, G.G2Point[] memory Ew, G.G1Point[] memory commitments, Ciphershare[] memory ciphershares, OpenProof memory proof) private view returns(bool) {\n        G.G1Point[] memory AA = new G.G1Point[](3 + commitments.length);\n        G.G2Point[] memory AB = new G.G2Point[](3 + commitments.length);\n        G.G2Point[] memory beta =  params.get_beta(name); // Name of AC.\n        G.G2Point[] memory opk =  params.get_opk(name);\n        for(uint256 i=0; i< Ew.length; i++) {\n            AA[0] = G.g1neg(G.P1());\n            AB[0] = Ew[i];\n            AA[1] = G.g1mul(G.P1(), proof.rr[i]);\n            AB[1] = opk[i];\n            AA[2] = G.g1mul(G.P1(), proof.c[i]);\n            AB[2] = ciphershares[i].X[1];\n            for(uint256 j=0; j < commitments.length; j++) {\n                AA[j+3] = G.g1mul(G.P1(), proof.rs[i][j]);\n                AB[j+3] = beta[j]; \n            }\n            if (!G.pairing(AA, AB)) {\n                return false;\n            }\n        }\n        return true;\n    }\n\n    function calculate_Cw(string[] memory combination, Vcert[] memory vcerts, IssueProof memory proof) private view returns(G.G1Point[] memory){\n        uint256[][] memory total_rm = proof.total_rm;\n        uint256 c = proof.c;\n        G.G1Point[] memory Cw = new G.G1Point[](total_rm.length - 1);\n        for (uint256 i = 0;  i < total_rm.length - 1; i++) {\n            G.G1Point[] memory hs = params.get_ttp_params(combination[i]);\n            G.G1Point memory tmp = G.g1mul(vcerts[i].commit, c);\n            tmp = G.g1add(tmp, G.g1mul(G.P1(), total_rm[i][total_rm[i].length-1]));\n            for (uint256 j = 0; j < total_rm[i].length - 1; j++) {\n                tmp = G.g1add(tmp, G.g1mul(hs[j], total_rm[i][j]));\n            }\n            Cw[i] = tmp;\n        }\n        return Cw;\n    }\n\n    function ToChallengeIssue(G.G1Point memory cm, G.G1Point memory h, G.G1Point memory Bw, G.G1Point[] memory hs, G.G1Point[] memory Aw, G.G1Point[] memory Cw)\n                                        internal pure returns (uint256) {\n        bytes memory Cstring = new bytes(160 + (hs.length + Aw.length + Cw.length) * 32);\n        bytes32 X = G.G1_to_binary256(G.P1());\n        for (uint256 i=0; i < 32 ; i++) {\n            Cstring[i] = X[i];\n        }\n        X = G.G2_to_binary256(G.P2());\n        for (uint256 i=0; i < 32 ; i++) {\n            Cstring[i+32] = X[i];\n        }\n        X = G.G1_to_binary256(cm);\n        for (uint256 i=0; i < 32 ; i++) {\n            Cstring[i+64] = X[i];\n        }\n        X = G.G1_to_binary256(h);\n        for (uint256 i=0; i < 32 ; i++) {\n            Cstring[i+96] = X[i];\n        }\n        X = G.G1_to_binary256(Bw);\n        for (uint256 i=0; i < 32 ; i++) {\n            Cstring[i+128] = X[i];\n        }\n        \n        uint256 location = 160;\n        for(uint256 i=0; i < hs.length; i++) {\n            X = G.G1_to_binary256(hs[i]);\n            for (uint256 j=0; j < 32 ; j++) {\n                Cstring[j+location] = X[j];\n            }\n            location = location + 32;\n        }\n        for(uint256 i=0; i< Aw.length; i++){\n            X = G.G1_to_binary256(Aw[i]);\n            for (uint256 j=0; j < 32 ; j++) {\n                Cstring[j+location] = X[j];\n            }\n            location = location + 32;\n        }\n        for(uint256 i=0; i< Cw.length; i++){\n            X = G.G1_to_binary256(Cw[i]);\n            for (uint256 j=0; j < 32 ; j++) {\n                Cstring[j+location] = X[j];\n            }\n            location = location + 32;\n        }\n\n        bytes32 Chash =  sha256(Cstring);\n        return uint256(Chash);\n    }\n\n\n    function ToChallengeOpen(G.G1Point memory h, G.G2Point memory Aw, G.G2Point memory Bw, G.G1Point[] memory hs)\n                                        internal pure returns (uint256) {\n        bytes memory Cstring = new bytes(160 + (hs.length) * 32);\n        bytes32 X = G.G1_to_binary256(G.P1());\n        uint256 i = 0;\n        for (i=0; i< 32 ; i++) {\n            Cstring[i] = X[i];\n        }\n        X = G.G2_to_binary256(G.P2());\n        for (i=0; i< 32 ; i++) {\n            Cstring[i+32] = X[i];\n        }\n        X = G.G1_to_binary256(h);\n        for (i=0; i< 32 ; i++) {\n            Cstring[i+64] = X[i];\n        }\n        X = G.G2_to_binary256(Aw);\n        for (i=0; i< 32 ; i++) {\n            Cstring[i+96] = X[i];\n        }\n        X = G.G2_to_binary256(Bw);\n        for (i=0; i< 32 ; i++) {\n            Cstring[i+128] = X[i];\n        }\n        \n        uint256 location = 160;\n        uint256 j = 0;\n        for(i=0; i < hs.length; i++) {\n            X = G.G1_to_binary256(hs[i]);\n            for (j=0; j< 32 ; j++) {\n                Cstring[j+location] = X[j];\n            }\n            location = location + 32;\n        }\n        bytes32 Chash =  sha256(Cstring);\n        return uint256(Chash);\n    }\n}",
  "sourcePath": "/home/neel/acad/DTRAC/RAVC2/Admin/Blockchain/contracts/Request.sol",
  "compiler": {
    "name": "solc",
    "version": "0.8.13+commit.abaa5c0e.Emscripten.clang"
  },
  "schemaVersion": "3.4.13",
  "updatedAt": "2023-08-09T19:10:52.451Z",
  "networkType": "ethereum",
  "devdoc": {
    "kind": "dev",
    "methods": {},
    "version": 1
  },
  "userdoc": {
    "kind": "user",
    "methods": {},
    "version": 1
  }
}