{
  "contractName": "Verify",
  "abi": [
    {
      "inputs": [
        {
          "internalType": "contract Params",
          "name": "_params",
          "type": "address"
        }
      ],
      "stateMutability": "nonpayable",
      "type": "constructor"
    },
    {
      "anonymous": false,
      "inputs": [
        {
          "indexed": true,
          "internalType": "uint256",
          "name": "id",
          "type": "uint256"
        },
        {
          "indexed": false,
          "internalType": "uint256[4]",
          "name": "credential",
          "type": "uint256[4]"
        },
        {
          "indexed": false,
          "internalType": "string[]",
          "name": "public_m",
          "type": "string[]"
        },
        {
          "indexed": false,
          "internalType": "uint256[]",
          "name": "disclosed_indexes",
          "type": "uint256[]"
        },
        {
          "indexed": false,
          "internalType": "string[]",
          "name": "disclosed_attributes",
          "type": "string[]"
        }
      ],
      "name": "emitVerify",
      "type": "event"
    },
    {
      "inputs": [
        {
          "internalType": "address",
          "name": "addr",
          "type": "address"
        }
      ],
      "name": "set_params",
      "outputs": [],
      "stateMutability": "nonpayable",
      "type": "function"
    },
    {
      "inputs": [
        {
          "internalType": "string",
          "name": "name",
          "type": "string"
        },
        {
          "internalType": "uint256",
          "name": "policy_id",
          "type": "uint256"
        }
      ],
      "name": "getPolicy",
      "outputs": [
        {
          "internalType": "uint256[]",
          "name": "",
          "type": "uint256[]"
        }
      ],
      "stateMutability": "view",
      "type": "function",
      "constant": true
    },
    {
      "inputs": [
        {
          "internalType": "string",
          "name": "name",
          "type": "string"
        },
        {
          "internalType": "uint256[][]",
          "name": "_policy",
          "type": "uint256[][]"
        }
      ],
      "name": "setPolicy",
      "outputs": [],
      "stateMutability": "nonpayable",
      "type": "function"
    },
    {
      "inputs": [
        {
          "internalType": "string",
          "name": "name",
          "type": "string"
        }
      ],
      "name": "gettotalPolicies",
      "outputs": [
        {
          "internalType": "uint256",
          "name": "",
          "type": "uint256"
        }
      ],
      "stateMutability": "view",
      "type": "function",
      "constant": true
    },
    {
      "inputs": [
        {
          "internalType": "string",
          "name": "name",
          "type": "string"
        },
        {
          "components": [
            {
              "components": [
                {
                  "internalType": "uint256[2]",
                  "name": "X",
                  "type": "uint256[2]"
                },
                {
                  "internalType": "uint256[2]",
                  "name": "Y",
                  "type": "uint256[2]"
                }
              ],
              "internalType": "struct G.G2Point",
              "name": "kappa",
              "type": "tuple"
            },
            {
              "components": [
                {
                  "internalType": "uint256",
                  "name": "X",
                  "type": "uint256"
                },
                {
                  "internalType": "uint256",
                  "name": "Y",
                  "type": "uint256"
                }
              ],
              "internalType": "struct G.G1Point",
              "name": "nu",
              "type": "tuple"
            },
            {
              "components": [
                {
                  "internalType": "uint256",
                  "name": "X",
                  "type": "uint256"
                },
                {
                  "internalType": "uint256",
                  "name": "Y",
                  "type": "uint256"
                }
              ],
              "internalType": "struct G.G1Point[2]",
              "name": "sigma",
              "type": "tuple[2]"
            },
            {
              "components": [
                {
                  "internalType": "uint256",
                  "name": "c",
                  "type": "uint256"
                },
                {
                  "internalType": "uint256[]",
                  "name": "rm",
                  "type": "uint256[]"
                },
                {
                  "internalType": "uint256",
                  "name": "rt",
                  "type": "uint256"
                }
              ],
              "internalType": "struct Verify.Proof",
              "name": "proof",
              "type": "tuple"
            }
          ],
          "internalType": "struct Verify.Theta",
          "name": "theta",
          "type": "tuple"
        },
        {
          "internalType": "string[]",
          "name": "public_m",
          "type": "string[]"
        },
        {
          "components": [
            {
              "internalType": "uint256[2]",
              "name": "X",
              "type": "uint256[2]"
            },
            {
              "internalType": "uint256[2]",
              "name": "Y",
              "type": "uint256[2]"
            }
          ],
          "internalType": "struct G.G2Point",
          "name": "Aw",
          "type": "tuple"
        },
        {
          "components": [
            {
              "internalType": "uint256[2]",
              "name": "X",
              "type": "uint256[2]"
            },
            {
              "internalType": "uint256[2]",
              "name": "Y",
              "type": "uint256[2]"
            }
          ],
          "internalType": "struct G.G2Point",
          "name": "aggr",
          "type": "tuple"
        },
        {
          "internalType": "uint256[]",
          "name": "disclose_index",
          "type": "uint256[]"
        },
        {
          "internalType": "string[]",
          "name": "disclose_attr",
          "type": "string[]"
        },
        {
          "internalType": "uint256[]",
          "name": "disclose_attr_enc",
          "type": "uint256[]"
        },
        {
          "internalType": "uint256",
          "name": "_timestamp",
          "type": "uint256"
        }
      ],
      "name": "VerifyCred",
      "outputs": [],
      "stateMutability": "nonpayable",
      "type": "function"
    }
  ],
  "bytecode": "0x60806040523480156200001157600080fd5b506040516200482a3803806200482a83398181016040528101906200003791906200013d565b33600160006101000a81548173ffffffffffffffffffffffffffffffffffffffff021916908373ffffffffffffffffffffffffffffffffffffffff160217905550806000806101000a81548173ffffffffffffffffffffffffffffffffffffffff021916908373ffffffffffffffffffffffffffffffffffffffff160217905550506200016f565b600080fd5b600073ffffffffffffffffffffffffffffffffffffffff82169050919050565b6000620000f182620000c4565b9050919050565b60006200010582620000e4565b9050919050565b6200011781620000f8565b81146200012357600080fd5b50565b60008151905062000137816200010c565b92915050565b600060208284031215620001565762000155620000bf565b5b6000620001668482850162000126565b91505092915050565b6146ab806200017f6000396000f3fe608060405234801561001057600080fd5b50600436106100575760003560e01c80633a72e0f01461005c5780635d13b04614610078578063753dfa25146100a857806385b7937a146100d8578063d3b1efe1146100f4575b600080fd5b61007660048036038101906100719190613598565b610110565b005b610092600480360381019061008d919061370d565b61054c565b60405161009f9190613827565b60405180910390f35b6100c260048036038101906100bd9190613849565b61070e565b6040516100cf91906138a1565b60405180910390f35b6100f260048036038101906100ed919061391a565b61080c565b005b61010e60048036038101906101099190613a28565b6108a9565b005b61012c8161011e9190613acf565b42101580156101395750610258816101369190613b03565b42105b61014257600080fd5b60008060009054906101000a900473ffffffffffffffffffffffffffffffffffffffff1673ffffffffffffffffffffffffffffffffffffffff1663730163bf8b6040518263ffffffff1660e01b815260040161019e9190613be1565b600060405180830381865afa1580156101bb573d6000803e3d6000fd5b505050506040513d6000823e3d601f19601f820116820180604052508101906101e49190613db6565b9050805184518a6060015160200151518a516102009190613b03565b61020a9190613b03565b111561021557600080fd5b6102768a60405180604001604052808c6040015160006002811061023c5761023b613dff565b5b602002015181526020018c6020015181525060405180604001604052808b81526020018d600001518152508c606001518589898c8a610ab3565b61027f57600080fd5b60008060009054906101000a900473ffffffffffffffffffffffffffffffffffffffff1673ffffffffffffffffffffffffffffffffffffffff1663a794c77f8c6040518263ffffffff1660e01b81526004016102db9190613be1565b600060405180830381865afa1580156102f8573d6000803e3d6000fd5b505050506040513d6000823e3d601f19601f820116820180604052508101906103219190613ec5565b905060008951146103585761034e8982898589518f6060015160200151516103499190613b03565b610dc0565b61035757600080fd5b5b6000600267ffffffffffffffff81111561037557610374612f6c565b5b6040519080825280602002602001820160405280156103ae57816020015b61039b612e0b565b8152602001906001900390816103935790505b5090506000600267ffffffffffffffff8111156103ce576103cd612f6c565b5b60405190808252806020026020018201604052801561040757816020015b6103f4612e25565b8152602001906001900390816103ec5790505b50905061042f8c6040015160006002811061042557610424613dff565b5b6020020151611140565b8260008151811061044357610442613dff565b5b60200260200101819052506104788c6040015160016002811061046957610468613dff565b5b60200201518d602001516111e5565b8260018151811061048c5761048b613dff565b5b60200260200101819052506104a58c600001518a6112ad565b816000815181106104b9576104b8613dff565b5b60200260200101819052506104cc6114a5565b816001815181106104e0576104df613dff565b5b60200260200101819052506105108c6040015160006002811061050657610505613dff565b5b602002015161156f565b158015610523575061052282826115a0565b5b61052c57600080fd5b61053d8d8d604001518d8b8b6118f6565b50505050505050505050505050565b606060008060009054906101000a900473ffffffffffffffffffffffffffffffffffffffff1673ffffffffffffffffffffffffffffffffffffffff1663a2191d38856040518263ffffffff1660e01b81526004016105aa9190613be1565b602060405180830381865afa1580156105c7573d6000803e3d6000fd5b505050506040513d601f19601f820116820180604052508101906105eb9190613f0e565b905060008103610630576040517f08c379a000000000000000000000000000000000000000000000000000000000815260040161062790613f87565b60405180910390fd5b600083118015610653575060036000828152602001908152602001600020548311155b610692576040517f08c379a000000000000000000000000000000000000000000000000000000000815260040161068990613ff3565b60405180910390fd5b60026000828152602001908152602001600020600084815260200190815260200160002080548060200260200160405190810160405280929190818152602001828054801561070057602002820191906000526020600020905b8154815260200190600101908083116106ec575b505050505091505092915050565b60008060008054906101000a900473ffffffffffffffffffffffffffffffffffffffff1673ffffffffffffffffffffffffffffffffffffffff1663a2191d38846040518263ffffffff1660e01b815260040161076a9190613be1565b602060405180830381865afa158015610787573d6000803e3d6000fd5b505050506040513d601f19601f820116820180604052508101906107ab9190613f0e565b9050600081036107f0576040517f08c379a00000000000000000000000000000000000000000000000000000000081526004016107e790613f87565b60405180910390fd5b6003600082815260200190815260200160002054915050919050565b600160009054906101000a900473ffffffffffffffffffffffffffffffffffffffff1673ffffffffffffffffffffffffffffffffffffffff163373ffffffffffffffffffffffffffffffffffffffff161461086657600080fd5b806000806101000a81548173ffffffffffffffffffffffffffffffffffffffff021916908373ffffffffffffffffffffffffffffffffffffffff16021790555050565b600160009054906101000a900473ffffffffffffffffffffffffffffffffffffffff1673ffffffffffffffffffffffffffffffffffffffff163373ffffffffffffffffffffffffffffffffffffffff161461090357600080fd5b60008060009054906101000a900473ffffffffffffffffffffffffffffffffffffffff1673ffffffffffffffffffffffffffffffffffffffff1663a2191d38846040518263ffffffff1660e01b815260040161095f9190613be1565b602060405180830381865afa15801561097c573d6000803e3d6000fd5b505050506040513d601f19601f820116820180604052508101906109a09190613f0e565b9050600081036109e5576040517f08c379a00000000000000000000000000000000000000000000000000000000081526004016109dc90613f87565b60405180910390fd5b60005b8251811015610aad57828181518110610a0457610a03613dff565b5b602002602001015160026000848152602001908152602001600020600060036000868152602001908152602001600020546001610a419190613b03565b81526020019081526020016000209080519060200190610a62929190612e4b565b5060016003600084815260200190815260200160002054610a839190613b03565b60036000848152602001908152602001600020819055508080610aa590614013565b9150506109e8565b50505050565b60008060008054906101000a900473ffffffffffffffffffffffffffffffffffffffff1673ffffffffffffffffffffffffffffffffffffffff1663d30f2bc38c6040518263ffffffff1660e01b8152600401610b0f9190613be1565b608060405180830381865afa158015610b2c573d6000803e3d6000fd5b505050506040513d601f19601f82011682018060405250810190610b50919061405b565b90506000865167ffffffffffffffff811115610b6f57610b6e612f6c565b5b604051908082528060200260200182016040528015610b9d5781602001602082028036833780820191505090505b50905060005b8751811015610cc7576001878281518110610bc157610bc0613dff565b5b602002602001015103610c7157610bd6611ab4565b6002898381518110610beb57610bea613dff565b5b6020026020010151604051610c0091906140cf565b602060405180830381855afa158015610c1d573d6000803e3d6000fd5b5050506040513d601f19601f82011682018060405250810190610c40919061411c565b60001c610c4d9190614178565b828281518110610c6057610c5f613dff565b5b602002602001018181525050610cb4565b610c94888281518110610c8757610c86613dff565b5b6020026020010151611adc565b828281518110610ca757610ca6613dff565b5b6020026020010181815250505b8080610cbf90614013565b915050610ba3565b50610cd68a8a848b858a611b7b565b610ce557600092505050610db3565b6000610cf18c8b61203a565b905060008060009054906101000a900473ffffffffffffffffffffffffffffffffffffffff1673ffffffffffffffffffffffffffffffffffffffff166394dee9cc8f6040518263ffffffff1660e01b8152600401610d4f9190613be1565b600060405180830381865afa158015610d6c573d6000803e3d6000fd5b505050506040513d6000823e3d601f19601f82011682018060405250810190610d9591906142bc565b9050610da6848d84848e888c61209e565b8b60000151149450505050505b9998505050505050505050565b60008060018751610dd19190613b03565b67ffffffffffffffff811115610dea57610de9612f6c565b5b604051908082528060200260200182016040528015610e2357816020015b610e10612e0b565b815260200190600190039081610e085790505b509050600060018851610e369190613b03565b67ffffffffffffffff811115610e4f57610e4e612f6c565b5b604051908082528060200260200182016040528015610e8857816020015b610e75612e25565b815260200190600190039081610e6d5790505b509050610e9b610e96612840565b611140565b82600081518110610eaf57610eae613dff565b5b60200260200101819052508581600081518110610ecf57610ece613dff565b5b60200260200101819052506000885167ffffffffffffffff811115610ef757610ef6612f6c565b5b604051908082528060200260200182016040528015610f255781602001602082028036833780820191505090505b50905060005b895181101561104f576001898281518110610f4957610f48613dff565b5b602002602001015103610ff957610f5e611ab4565b60028b8381518110610f7357610f72613dff565b5b6020026020010151604051610f8891906140cf565b602060405180830381855afa158015610fa5573d6000803e3d6000fd5b5050506040513d601f19601f82011682018060405250810190610fc8919061411c565b60001c610fd59190614178565b828281518110610fe857610fe7613dff565b5b60200260200101818152505061103c565b61101c8a828151811061100f5761100e613dff565b5b6020026020010151611adc565b82828151811061102f5761102e613dff565b5b6020026020010181815250505b808061104790614013565b915050610f2b565b5060005b895181101561111457611087611067612840565b83838151811061107a57611079613dff565b5b6020026020010151612864565b846001836110959190613b03565b815181106110a6576110a5613dff565b5b60200260200101819052508681876110be9190613b03565b815181106110cf576110ce613dff565b5b6020026020010151836001836110e59190613b03565b815181106110f6576110f5613dff565b5b6020026020010181905250808061110c90614013565b915050611053565b5061111f83836115a0565b61112f5760009350505050611137565b600193505050505b95945050505050565b611148612e0b565b60007f30644e72e131a029b85045b68181585d97816a916871ca8d3c208c16d87cfd47905060008360000151148015611185575060008360200151145b156111a95760405180604001604052806000815260200160008152509150506111e0565b6040518060400160405280846000015181526020018285602001516111ce9190614178565b836111d99190613acf565b8152509150505b919050565b6111ed612e0b565b6111f5612e98565b83600001518160006004811061120e5761120d613dff565b5b6020020181815250508360200151816001600481106112305761122f613dff565b5b60200201818152505082600001518160026004811061125257611251613dff565b5b60200201818152505082602001518160036004811061127457611273613dff565b5b602002018181525050600060608360c08460066107d05a03fa9050806000810361129a57fe5b50806112a557600080fd5b505092915050565b6112b5612e25565b73__BN256G2_______________________________6361a931ec84600001516001600281106112e7576112e6613dff565b5b6020020151856000015160006002811061130457611303613dff565b5b6020020151866020015160016002811061132157611320613dff565b5b6020020151876020015160006002811061133e5761133d613dff565b5b6020020151876000015160016002811061135b5761135a613dff565b5b6020020151886000015160006002811061137857611377613dff565b5b6020020151896020015160016002811061139557611394613dff565b5b60200201518a602001516000600281106113b2576113b1613dff565b5b60200201516040518963ffffffff1660e01b81526004016113da989796959493929190614314565b608060405180830381865af41580156113f7573d6000803e3d6000fd5b505050506040513d601f19601f8201168201806040525081019061141b9190614392565b846000015160016002811061143357611432613dff565b5b60200201856000015160006002811061144f5761144e613dff565b5b60200201866020015160016002811061146b5761146a613dff565b5b60200201876020015160006002811061148757611486613dff565b5b60200201848152508481525084815250848152505050505092915050565b6114ad612e25565b604051806040016040528060405180604001604052807f198e9393920d483a7260bfb731fb5d25f1aa493335a9e71297e485b7aef312c281526020017f1800deef121f1e76426a00665e5c4479674322d4f75edadd46debd5cd992f6ed815250815260200160405180604001604052807f090689d0585ff075ec9e99ad690c3395bc4b313370b38ef355acdadcd122975b81526020017f12c85ea5db8c6deb4aab71808dcb408fe3d1e7690c43d37b4ce6cc0166fa7daa815250815250905090565b6000808260000151148015611588575060008260200151145b15611596576001905061159b565b600090505b919050565b600081518351146115b057600080fd5b60008351905060006006826115c591906143f9565b905060008167ffffffffffffffff8111156115e3576115e2612f6c565b5b6040519080825280602002602001820160405280156116115781602001602082028036833780820191505090505b50905060005b838110156118965786818151811061163257611631613dff565b5b60200260200101516000015182600060068461164e91906143f9565b6116589190613b03565b8151811061166957611668613dff565b5b60200260200101818152505086818151811061168857611687613dff565b5b6020026020010151602001518260016006846116a491906143f9565b6116ae9190613b03565b815181106116bf576116be613dff565b5b6020026020010181815250508581815181106116de576116dd613dff565b5b6020026020010151600001516000600281106116fd576116fc613dff565b5b602002015182600260068461171291906143f9565b61171c9190613b03565b8151811061172d5761172c613dff565b5b60200260200101818152505085818151811061174c5761174b613dff565b5b60200260200101516000015160016002811061176b5761176a613dff565b5b602002015182600360068461178091906143f9565b61178a9190613b03565b8151811061179b5761179a613dff565b5b6020026020010181815250508581815181106117ba576117b9613dff565b5b6020026020010151602001516000600281106117d9576117d8613dff565b5b60200201518260046006846117ee91906143f9565b6117f89190613b03565b8151811061180957611808613dff565b5b60200260200101818152505085818151811061182857611827613dff565b5b60200260200101516020015160016002811061184757611846613dff565b5b602002015182600560068461185c91906143f9565b6118669190613b03565b8151811061187757611876613dff565b5b602002602001018181525050808061188e90614013565b915050611617565b5061189f612eba565b6000602082602086026020860160086107d05a03fa905080600081036118c157fe5b50806118cc57600080fd5b6000826000600181106118e2576118e1613dff565b5b602002015114159550505050505092915050565b60008060009054906101000a900473ffffffffffffffffffffffffffffffffffffffff1673ffffffffffffffffffffffffffffffffffffffff1663a2191d38876040518263ffffffff1660e01b81526004016119529190613be1565b602060405180830381865afa15801561196f573d6000803e3d6000fd5b505050506040513d601f19601f820116820180604052508101906119939190613f0e565b9050600081036119d8576040517f08c379a00000000000000000000000000000000000000000000000000000000081526004016119cf90613f87565b60405180910390fd5b60006040518060800160405280876000600281106119f9576119f8613dff565b5b602002015160000151815260200187600060028110611a1b57611a1a613dff565b5b602002015160200151815260200187600160028110611a3d57611a3c613dff565b5b602002015160000151815260200187600160028110611a5f57611a5e613dff565b5b6020020151602001518152509050817f25e663d9fde5182920aaea8c429579db3cf23647e596aea912d464030204c7f282878787604051611aa394939291906145e3565b60405180910390a250505050505050565b60007f30644e72e131a029b85045b68181585d2833e84879b9709143e1f593f0000001905090565b6000808290506000915060005b81518161ffff161015611b74576000828261ffff1681518110611b0f57611b0e613dff565b5b602001015160f81c60f81b60f81c60ff16905060308110158015611b34575060398111155b15611b6057603081611b469190613acf565b600a85611b5391906143f9565b611b5d9190613b03565b93505b508080611b6c9061464b565b915050611ae9565b5050919050565b60008060058451886020015151611b929190613b03565b611b9c9190613b03565b67ffffffffffffffff811115611bb557611bb4612f6c565b5b604051908082528060200260200182016040528015611bee57816020015b611bdb612e0b565b815260200190600190039081611bd35790505b509050600060058551896020015151611c079190613b03565b611c119190613b03565b67ffffffffffffffff811115611c2a57611c29612f6c565b5b604051908082528060200260200182016040528015611c6357816020015b611c50612e25565b815260200190600190039081611c485790505b509050611c76611c71612840565b611140565b82600081518110611c8a57611c89613dff565b5b6020026020010181905250611c9d612840565b82600181518110611cb157611cb0613dff565b5b6020026020010181905250611cd9611cd4611cca612840565b8a60000151612864565b611140565b82600281518110611ced57611cec613dff565b5b6020026020010181905250611d0d611d03612840565b8960400151612864565b82600381518110611d2157611d20613dff565b5b6020026020010181905250611d41611d37612840565b8960000151612864565b82600481518110611d5557611d54613dff565b5b602002602001018190525088600060028110611d7457611d73613dff565b5b602002015181600081518110611d8d57611d8c613dff565b5b60200260200101819052508681600181518110611dad57611dac613dff565b5b60200260200101819052508681600281518110611dcd57611dcc613dff565b5b6020026020010181905250611de06114a5565b81600381518110611df457611df3613dff565b5b602002602001018190525088600160028110611e1357611e12613dff565b5b602002015181600481518110611e2c57611e2b613dff565b5b602002602001018190525060008060005b87518b6020015151611e4f9190613b03565b81101561200b576001878281518110611e6b57611e6a613dff565b5b602002602001015103611f4a57611ec7611ec2611e86612840565b611e8e611ab4565b80611e9c57611e9b614149565b5b8b8781518110611eaf57611eae613dff565b5b60200260200101518f6000015109612864565b611140565b85600583611ed59190613b03565b81518110611ee657611ee5613dff565b5b6020026020010181905250888181518110611f0457611f03613dff565b5b602002602001015184600583611f1a9190613b03565b81518110611f2b57611f2a613dff565b5b6020026020010181905250600183611f439190613b03565b9250611ff8565b611f79611f55612840565b8c602001518481518110611f6c57611f6b613dff565b5b6020026020010151612864565b85600583611f879190613b03565b81518110611f9857611f97613dff565b5b6020026020010181905250888181518110611fb657611fb5613dff565b5b602002602001015184600583611fcc9190613b03565b81518110611fdd57611fdc613dff565b5b6020026020010181905250600182611ff59190613b03565b91505b808061200390614013565b915050611e3d565b5061201684846115a0565b612027576000945050505050612030565b60019450505050505b9695505050505050565b612042612e0b565b61209661206b8460016002811061205c5761205b613dff565b5b60200201518460000151612864565b6120918560006002811061208257612081613dff565b5b60200201518560400151612864565b6111e5565b905092915050565b60008060208451865188516120b39190613b03565b6120bd9190613b03565b6120c791906143f9565b60e06120d39190613b03565b67ffffffffffffffff8111156120ec576120eb612f6c565b5b6040519080825280601f01601f19166020018201604052801561211e5781602001600182028036833780820191505090505b509050600061213361212e612840565b612906565b905060005b60208110156121ad5781816020811061215457612153613dff565b5b1a60f81b83828151811061216b5761216a613dff565b5b60200101907effffffffffffffffffffffffffffffffffffffffffffffffffffffffffffff1916908160001a90535080806121a590614013565b915050612138565b506121be6121b96114a5565b612aca565b905060005b6020811015612244578181602081106121df576121de613dff565b5b1a60f81b836020836121f19190613b03565b8151811061220257612201613dff565b5b60200101907effffffffffffffffffffffffffffffffffffffffffffffffffffffffffffff1916908160001a905350808061223c90614013565b9150506121c3565b5061224e8a612aca565b905060005b60208110156122d45781816020811061226f5761226e613dff565b5b1a60f81b836040836122819190613b03565b8151811061229257612291613dff565b5b60200101907effffffffffffffffffffffffffffffffffffffffffffffffffffffffffffff1916908160001a90535080806122cc90614013565b915050612253565b506122f6896000600281106122ec576122eb613dff565b5b6020020151612aca565b905060005b602081101561237c5781816020811061231757612316613dff565b5b1a60f81b836060836123299190613b03565b8151811061233a57612339613dff565b5b60200101907effffffffffffffffffffffffffffffffffffffffffffffffffffffffffffff1916908160001a905350808061237490614013565b9150506122fb565b5061238688612906565b905060005b602081101561240c578181602081106123a7576123a6613dff565b5b1a60f81b836080836123b99190613b03565b815181106123ca576123c9613dff565b5b60200101907effffffffffffffffffffffffffffffffffffffffffffffffffffffffffffff1916908160001a905350808061240490614013565b91505061238b565b5061242e8960016002811061242457612423613dff565b5b6020020151612aca565b905060005b60208110156124b45781816020811061244f5761244e613dff565b5b1a60f81b8360a0836124619190613b03565b8151811061247257612471613dff565b5b60200101907effffffffffffffffffffffffffffffffffffffffffffffffffffffffffffff1916908160001a90535080806124ac90614013565b915050612433565b50600060c0905060005b8851811015612592576124ea8982815181106124dd576124dc613dff565b5b6020026020010151612906565b925060005b602081101561256f5783816020811061250b5761250a613dff565b5b1a60f81b85848361251c9190613b03565b8151811061252d5761252c613dff565b5b60200101907effffffffffffffffffffffffffffffffffffffffffffffffffffffffffffff1916908160001a905350808061256790614013565b9150506124ef565b5060208261257d9190613b03565b9150808061258a90614013565b9150506124be565b5060005b875181101561266a576125c28882815181106125b5576125b4613dff565b5b6020026020010151612aca565b925060005b6020811015612647578381602081106125e3576125e2613dff565b5b1a60f81b8584836125f49190613b03565b8151811061260557612604613dff565b5b60200101907effffffffffffffffffffffffffffffffffffffffffffffffffffffffffffff1916908160001a905350808061263f90614013565b9150506125c7565b506020826126559190613b03565b9150808061266290614013565b915050612596565b5060005b865181101561273d5786818151811061268a57612689613dff565b5b602002602001015160001b925060005b602081101561271a578381602081106126b6576126b5613dff565b5b1a60f81b8584836126c79190613b03565b815181106126d8576126d7613dff565b5b60200101907effffffffffffffffffffffffffffffffffffffffffffffffffffffffffffff1916908160001a905350808061271290614013565b91505061269a565b506020826127289190613b03565b9150808061273590614013565b91505061266e565b508460001b915060005b60208110156127c75782816020811061276357612762613dff565b5b1a60f81b8483836127749190613b03565b8151811061278557612784613dff565b5b60200101907effffffffffffffffffffffffffffffffffffffffffffffffffffffffffffff1916908160001a90535080806127bf90614013565b915050612747565b506020816127d59190613b03565b905060006002846040516127e991906140cf565b602060405180830381855afa158015612806573d6000803e3d6000fd5b5050506040513d601f19601f82011682018060405250810190612829919061411c565b90508060001c945050505050979650505050505050565b612848612e0b565b6040518060400160405280600181526020016002815250905090565b61286c612e0b565b612874612edc565b83600001518160006003811061288d5761288c613dff565b5b6020020181815250508360200151816001600381106128af576128ae613dff565b5b60200201818152505082816002600381106128cd576128cc613dff565b5b602002018181525050600060608360808460076107d05a03fa905080600081036128f357fe5b50806128fe57600080fd5b505092915050565b600080826000015160001b90506000836020015160001b90506000604067ffffffffffffffff81111561293c5761293b612f6c565b5b6040519080825280601f01601f19166020018201604052801561296e5781602001600182028036833780820191505090505b50905060005b60208110156129e9578381602081106129905761298f613dff565b5b1a60f81b8282815181106129a7576129a6613dff565b5b60200101907effffffffffffffffffffffffffffffffffffffffffffffffffffffffffffff1916908160001a90535080806129e190614013565b915050612974565b600090505b6020811015612a6f57828160208110612a0a57612a09613dff565b5b1a60f81b82826020612a1c9190613b03565b81518110612a2d57612a2c613dff565b5b60200101907effffffffffffffffffffffffffffffffffffffffffffffffffffffffffffff1916908160001a9053508080612a6790614013565b9150506129ee565b600282604051612a7f91906140cf565b602060405180830381855afa158015612a9c573d6000803e3d6000fd5b5050506040513d601f19601f82011682018060405250810190612abf919061411c565b945050505050919050565b600080608067ffffffffffffffff811115612ae857612ae7612f6c565b5b6040519080825280601f01601f191660200182016040528015612b1a5781602001600182028036833780820191505090505b50905060008360000151600160028110612b3757612b36613dff565b5b602002015160001b905060005b6020811015612bb957818160208110612b6057612b5f613dff565b5b1a60f81b838281518110612b7757612b76613dff565b5b60200101907effffffffffffffffffffffffffffffffffffffffffffffffffffffffffffff1916908160001a9053508080612bb190614013565b915050612b44565b8460000151600060028110612bd157612bd0613dff565b5b602002015160001b9150600090505b6020811015612c6157818160208110612bfc57612bfb613dff565b5b1a60f81b83826020612c0e9190613b03565b81518110612c1f57612c1e613dff565b5b60200101907effffffffffffffffffffffffffffffffffffffffffffffffffffffffffffff1916908160001a9053508080612c5990614013565b915050612be0565b8460200151600160028110612c7957612c78613dff565b5b602002015160001b9150600090505b6020811015612d0957818160208110612ca457612ca3613dff565b5b1a60f81b83826040612cb69190613b03565b81518110612cc757612cc6613dff565b5b60200101907effffffffffffffffffffffffffffffffffffffffffffffffffffffffffffff1916908160001a9053508080612d0190614013565b915050612c88565b8460200151600060028110612d2157612d20613dff565b5b602002015160001b9150600090505b6020811015612db157818160208110612d4c57612d4b613dff565b5b1a60f81b83826060612d5e9190613b03565b81518110612d6f57612d6e613dff565b5b60200101907effffffffffffffffffffffffffffffffffffffffffffffffffffffffffffff1916908160001a9053508080612da990614013565b915050612d30565b600283604051612dc191906140cf565b602060405180830381855afa158015612dde573d6000803e3d6000fd5b5050506040513d601f19601f82011682018060405250810190612e01919061411c565b9350505050919050565b604051806040016040528060008152602001600081525090565b6040518060400160405280612e38612efe565b8152602001612e45612efe565b81525090565b828054828255906000526020600020908101928215612e87579160200282015b82811115612e86578251825591602001919060010190612e6b565b5b509050612e949190612f20565b5090565b6040518060800160405280600490602082028036833780820191505090505090565b6040518060200160405280600190602082028036833780820191505090505090565b6040518060600160405280600390602082028036833780820191505090505090565b6040518060400160405280600290602082028036833780820191505090505090565b5b80821115612f39576000816000905550600101612f21565b5090565b6000604051905090565b600080fd5b600080fd5b600080fd5b600080fd5b6000601f19601f8301169050919050565b7f4e487b7100000000000000000000000000000000000000000000000000000000600052604160045260246000fd5b612fa482612f5b565b810181811067ffffffffffffffff82111715612fc357612fc2612f6c565b5b80604052505050565b6000612fd6612f3d565b9050612fe28282612f9b565b919050565b600067ffffffffffffffff82111561300257613001612f6c565b5b61300b82612f5b565b9050602081019050919050565b82818337600083830152505050565b600061303a61303584612fe7565b612fcc565b90508281526020810184848401111561305657613055612f56565b5b613061848285613018565b509392505050565b600082601f83011261307e5761307d612f51565b5b813561308e848260208601613027565b91505092915050565b600080fd5b600080fd5b600067ffffffffffffffff8211156130bc576130bb612f6c565b5b602082029050919050565b600080fd5b6000819050919050565b6130df816130cc565b81146130ea57600080fd5b50565b6000813590506130fc816130d6565b92915050565b6000613115613110846130a1565b612fcc565b9050806020840283018581111561312f5761312e6130c7565b5b835b81811015613158578061314488826130ed565b845260208401935050602081019050613131565b5050509392505050565b600082601f83011261317757613176612f51565b5b6002613184848285613102565b91505092915050565b6000608082840312156131a3576131a2613097565b5b6131ad6040612fcc565b905060006131bd84828501613162565b60008301525060406131d184828501613162565b60208301525092915050565b6000604082840312156131f3576131f2613097565b5b6131fd6040612fcc565b9050600061320d848285016130ed565b6000830152506020613221848285016130ed565b60208301525092915050565b600067ffffffffffffffff82111561324857613247612f6c565b5b602082029050919050565b60006132666132618461322d565b612fcc565b905080604084028301858111156132805761327f6130c7565b5b835b818110156132a9578061329588826131dd565b845260208401935050604081019050613282565b5050509392505050565b600082601f8301126132c8576132c7612f51565b5b60026132d5848285613253565b91505092915050565b600067ffffffffffffffff8211156132f9576132f8612f6c565b5b602082029050602081019050919050565b600061331d613318846132de565b612fcc565b905080838252602082019050602084028301858111156133405761333f6130c7565b5b835b81811015613369578061335588826130ed565b845260208401935050602081019050613342565b5050509392505050565b600082601f83011261338857613387612f51565b5b813561339884826020860161330a565b91505092915050565b6000606082840312156133b7576133b6613097565b5b6133c16060612fcc565b905060006133d1848285016130ed565b600083015250602082013567ffffffffffffffff8111156133f5576133f461309c565b5b61340184828501613373565b6020830152506040613415848285016130ed565b60408301525092915050565b6000610160828403121561343857613437613097565b5b6134426080612fcc565b905060006134528482850161318d565b6000830152506080613466848285016131dd565b60208301525060c061347a848285016132b3565b60408301525061014082013567ffffffffffffffff81111561349f5761349e61309c565b5b6134ab848285016133a1565b60608301525092915050565b600067ffffffffffffffff8211156134d2576134d1612f6c565b5b602082029050602081019050919050565b60006134f66134f1846134b7565b612fcc565b90508083825260208201905060208402830185811115613519576135186130c7565b5b835b8181101561356057803567ffffffffffffffff81111561353e5761353d612f51565b5b80860161354b8982613069565b8552602085019450505060208101905061351b565b5050509392505050565b600082601f83011261357f5761357e612f51565b5b813561358f8482602086016134e3565b91505092915050565b60008060008060008060008060006101e08a8c0312156135bb576135ba612f47565b5b60008a013567ffffffffffffffff8111156135d9576135d8612f4c565b5b6135e58c828d01613069565b99505060208a013567ffffffffffffffff81111561360657613605612f4c565b5b6136128c828d01613421565b98505060408a013567ffffffffffffffff81111561363357613632612f4c565b5b61363f8c828d0161356a565b97505060606136508c828d0161318d565b96505060e06136618c828d0161318d565b9550506101608a013567ffffffffffffffff81111561368357613682612f4c565b5b61368f8c828d01613373565b9450506101808a013567ffffffffffffffff8111156136b1576136b0612f4c565b5b6136bd8c828d0161356a565b9350506101a08a013567ffffffffffffffff8111156136df576136de612f4c565b5b6136eb8c828d01613373565b9250506101c06136fd8c828d016130ed565b9150509295985092959850929598565b6000806040838503121561372457613723612f47565b5b600083013567ffffffffffffffff81111561374257613741612f4c565b5b61374e85828601613069565b925050602061375f858286016130ed565b9150509250929050565b600081519050919050565b600082825260208201905092915050565b6000819050602082019050919050565b61379e816130cc565b82525050565b60006137b08383613795565b60208301905092915050565b6000602082019050919050565b60006137d482613769565b6137de8185613774565b93506137e983613785565b8060005b8381101561381a57815161380188826137a4565b975061380c836137bc565b9250506001810190506137ed565b5085935050505092915050565b6000602082019050818103600083015261384181846137c9565b905092915050565b60006020828403121561385f5761385e612f47565b5b600082013567ffffffffffffffff81111561387d5761387c612f4c565b5b61388984828501613069565b91505092915050565b61389b816130cc565b82525050565b60006020820190506138b66000830184613892565b92915050565b600073ffffffffffffffffffffffffffffffffffffffff82169050919050565b60006138e7826138bc565b9050919050565b6138f7816138dc565b811461390257600080fd5b50565b600081359050613914816138ee565b92915050565b6000602082840312156139305761392f612f47565b5b600061393e84828501613905565b91505092915050565b600067ffffffffffffffff82111561396257613961612f6c565b5b602082029050602081019050919050565b600061398661398184613947565b612fcc565b905080838252602082019050602084028301858111156139a9576139a86130c7565b5b835b818110156139f057803567ffffffffffffffff8111156139ce576139cd612f51565b5b8086016139db8982613373565b855260208501945050506020810190506139ab565b5050509392505050565b600082601f830112613a0f57613a0e612f51565b5b8135613a1f848260208601613973565b91505092915050565b60008060408385031215613a3f57613a3e612f47565b5b600083013567ffffffffffffffff811115613a5d57613a5c612f4c565b5b613a6985828601613069565b925050602083013567ffffffffffffffff811115613a8a57613a89612f4c565b5b613a96858286016139fa565b9150509250929050565b7f4e487b7100000000000000000000000000000000000000000000000000000000600052601160045260246000fd5b6000613ada826130cc565b9150613ae5836130cc565b925082821015613af857613af7613aa0565b5b828203905092915050565b6000613b0e826130cc565b9150613b19836130cc565b9250827fffffffffffffffffffffffffffffffffffffffffffffffffffffffffffffffff03821115613b4e57613b4d613aa0565b5b828201905092915050565b600081519050919050565b600082825260208201905092915050565b60005b83811015613b93578082015181840152602081019050613b78565b83811115613ba2576000848401525b50505050565b6000613bb382613b59565b613bbd8185613b64565b9350613bcd818560208601613b75565b613bd681612f5b565b840191505092915050565b60006020820190508181036000830152613bfb8184613ba8565b905092915050565b600067ffffffffffffffff821115613c1e57613c1d612f6c565b5b602082029050602081019050919050565b600081519050613c3e816130d6565b92915050565b6000613c57613c52846130a1565b612fcc565b90508060208402830185811115613c7157613c706130c7565b5b835b81811015613c9a5780613c868882613c2f565b845260208401935050602081019050613c73565b5050509392505050565b600082601f830112613cb957613cb8612f51565b5b6002613cc6848285613c44565b91505092915050565b600060808284031215613ce557613ce4613097565b5b613cef6040612fcc565b90506000613cff84828501613ca4565b6000830152506040613d1384828501613ca4565b60208301525092915050565b6000613d32613d2d84613c03565b612fcc565b90508083825260208201905060808402830185811115613d5557613d546130c7565b5b835b81811015613d7e5780613d6a8882613ccf565b845260208401935050608081019050613d57565b5050509392505050565b600082601f830112613d9d57613d9c612f51565b5b8151613dad848260208601613d1f565b91505092915050565b600060208284031215613dcc57613dcb612f47565b5b600082015167ffffffffffffffff811115613dea57613de9612f4c565b5b613df684828501613d88565b91505092915050565b7f4e487b7100000000000000000000000000000000000000000000000000000000600052603260045260246000fd5b6000613e41613e3c846132de565b612fcc565b90508083825260208201905060208402830185811115613e6457613e636130c7565b5b835b81811015613e8d5780613e798882613c2f565b845260208401935050602081019050613e66565b5050509392505050565b600082601f830112613eac57613eab612f51565b5b8151613ebc848260208601613e2e565b91505092915050565b600060208284031215613edb57613eda612f47565b5b600082015167ffffffffffffffff811115613ef957613ef8612f4c565b5b613f0584828501613e97565b91505092915050565b600060208284031215613f2457613f23612f47565b5b6000613f3284828501613c2f565b91505092915050565b7f4e6f20737563682041432e000000000000000000000000000000000000000000600082015250565b6000613f71600b83613b64565b9150613f7c82613f3b565b602082019050919050565b60006020820190508181036000830152613fa081613f64565b9050919050565b7f4e6f207375636820706f6c696379206964000000000000000000000000000000600082015250565b6000613fdd601183613b64565b9150613fe882613fa7565b602082019050919050565b6000602082019050818103600083015261400c81613fd0565b9050919050565b600061401e826130cc565b91507fffffffffffffffffffffffffffffffffffffffffffffffffffffffffffffffff82036140505761404f613aa0565b5b600182019050919050565b60006080828403121561407157614070612f47565b5b600061407f84828501613ccf565b91505092915050565b600081519050919050565b600081905092915050565b60006140a982614088565b6140b38185614093565b93506140c3818560208601613b75565b80840191505092915050565b60006140db828461409e565b915081905092915050565b6000819050919050565b6140f9816140e6565b811461410457600080fd5b50565b600081519050614116816140f0565b92915050565b60006020828403121561413257614131612f47565b5b600061414084828501614107565b91505092915050565b7f4e487b7100000000000000000000000000000000000000000000000000000000600052601260045260246000fd5b6000614183826130cc565b915061418e836130cc565b92508261419e5761419d614149565b5b828206905092915050565b600067ffffffffffffffff8211156141c4576141c3612f6c565b5b602082029050602081019050919050565b6000604082840312156141eb576141ea613097565b5b6141f56040612fcc565b9050600061420584828501613c2f565b600083015250602061421984828501613c2f565b60208301525092915050565b6000614238614233846141a9565b612fcc565b9050808382526020820190506040840283018581111561425b5761425a6130c7565b5b835b81811015614284578061427088826141d5565b84526020840193505060408101905061425d565b5050509392505050565b600082601f8301126142a3576142a2612f51565b5b81516142b3848260208601614225565b91505092915050565b6000602082840312156142d2576142d1612f47565b5b600082015167ffffffffffffffff8111156142f0576142ef612f4c565b5b6142fc8482850161428e565b91505092915050565b61430e816130cc565b82525050565b60006101008201905061432a600083018b614305565b614337602083018a614305565b6143446040830189614305565b6143516060830188614305565b61435e6080830187614305565b61436b60a0830186614305565b61437860c0830185614305565b61438560e0830184614305565b9998505050505050505050565b600080600080608085870312156143ac576143ab612f47565b5b60006143ba87828801613c2f565b94505060206143cb87828801613c2f565b93505060406143dc87828801613c2f565b92505060606143ed87828801613c2f565b91505092959194509250565b6000614404826130cc565b915061440f836130cc565b9250817fffffffffffffffffffffffffffffffffffffffffffffffffffffffffffffffff048311821515161561444857614447613aa0565b5b828202905092915050565b600060049050919050565b600081905092915050565b6000819050919050565b6000602082019050919050565b61448981614453565b614493818461445e565b925061449e82614469565b8060005b838110156144cf5781516144b687826137a4565b96506144c183614473565b9250506001810190506144a2565b505050505050565b600081519050919050565b600082825260208201905092915050565b6000819050602082019050919050565b600082825260208201905092915050565b600061451f82613b59565b6145298185614503565b9350614539818560208601613b75565b61454281612f5b565b840191505092915050565b60006145598383614514565b905092915050565b6000602082019050919050565b6000614579826144d7565b61458381856144e2565b935083602082028501614595856144f3565b8060005b858110156145d157848403895281516145b2858261454d565b94506145bd83614561565b925060208a01995050600181019050614599565b50829750879550505050505092915050565b600060e0820190506145f86000830187614480565b818103608083015261460a818661456e565b905081810360a083015261461e81856137c9565b905081810360c0830152614632818461456e565b905095945050505050565b600061ffff82169050919050565b60006146568261463d565b915061ffff820361466a57614669613aa0565b5b60018201905091905056fea2646970667358221220af3732cfcbcf851f44270b83e4d170037ba034c614f9deccb71481727a906bef64736f6c634300080d0033",
  "immutableReferences": {},
  "source": "// SPDX-License-Identifier: GPL-3.0\npragma solidity >=0.7.0 <0.9.0;\npragma experimental ABIEncoderV2;\n\nimport { G } from \"../libraries/G.sol\";\nimport {Params} from \"./Params.sol\";\n\ncontract Verify {\n\n  Params private params;\n  address private owner;\n\n    constructor(Params _params) {\n        owner = msg.sender;\n        params = _params;\n    }\n    modifier onlyOwner {\n        require(msg.sender == owner);\n        _;\n    }\n \n  function set_params(address addr) public onlyOwner {\n    params = Params(addr);\n  }\n\n  mapping(uint256 => mapping(uint256 => uint256[])) private policy;\n  mapping(uint256 => uint256) private policy_ids;\n  \n  function getPolicy(string memory name, uint256 policy_id) public view returns (uint256[] memory) {\n        uint256 id = params.getMapCredentials(name);\n        require(id != 0, \"No such AC.\");\n        require(policy_id > 0 && policy_id <= policy_ids[id], \"No such policy id\");\n        return policy[id][policy_id];\n    }\n\n  function setPolicy(string memory name, uint256[][] memory _policy) public onlyOwner {\n        uint256 id = params.getMapCredentials(name);\n        require(id != 0, \"No such AC.\");\n        for (uint256 i= 0; i <_policy.length; i++) {\n          policy[id][1+policy_ids[id]] = _policy[i];\n          policy_ids[id] = policy_ids[id] + 1; // total count of policy ids will be here for a title. then u can use what policy's are needed from getPolicy for that title.\n        }\n  }\n\n  function gettotalPolicies(string memory name) public view returns (uint256) {\n        uint256 id = params.getMapCredentials(name);\n        require(id != 0, \"No such AC.\");\n        return policy_ids[id];\n  }\n\n    struct Theta {\n        G.G2Point kappa;\n        G.G1Point nu;\n        G.G1Point[2] sigma;\n        Proof proof;\n    }\n   \n    struct Proof {\n        uint256 c;\n        uint256[] rm;\n        uint256 rt;\n    }\n\n  event emitVerify(uint256 indexed id, uint256[4] credential, string[] public_m, uint256[] disclosed_indexes, string[] disclosed_attributes);\n\n  function stringToUint256(string memory s) private pure returns (uint256 result) {\n    bytes memory b = bytes(s);\n    result = 0;\n    for (uint16 i = 0; i < b.length; i++) {\n      uint c = uint8(b[i]);\n      if (c >= 48 && c <= 57) {\n        result = result * 10 + (c - 48);\n      }\n    }\n  }\n    \n\n  function VerifyCred(string memory name, Theta memory theta, string[] memory public_m, G.G2Point memory Aw, G.G2Point memory aggr, uint256[] memory disclose_index, string[] memory disclose_attr, uint256[] memory disclose_attr_enc, uint256 _timestamp) public {\n    \n    require(block.timestamp >= _timestamp - 300 && block.timestamp < _timestamp + 600);\n    G.G2Point[] memory beta = params.get_beta(name);\n    require(public_m.length + theta.proof.rm.length + disclose_attr.length <= beta.length);\n    \n    require(verify_pi_v(name, [theta.sigma[0], theta.nu], [Aw, theta.kappa], theta.proof, beta, disclose_attr, disclose_attr_enc, disclose_index, _timestamp));\n    uint256[] memory public_m_enc = params.get_public_m_encoding(name);\n    if(public_m.length != 0) {\n      require(check_aggr(public_m, public_m_enc, aggr, beta, theta.proof.rm.length+disclose_attr.length));\n    }\n    \n    G.G1Point[] memory coord1 = new G.G1Point[](2);\n    G.G2Point[] memory coord2 = new G.G2Point[](2);\n    coord1[0] = G.g1neg(theta.sigma[0]);\n    coord1[1] = G.g1add(theta.sigma[1], theta.nu);\n    coord2[0] = G.g2add(theta.kappa, aggr);\n    coord2[1] = G.P2();\n    require(!G.isinf(theta.sigma[0]) && G.pairing(coord1, coord2));\n    logging(name, theta.sigma, public_m, disclose_index, disclose_attr);\n  }\n\n  function logging(string memory name, G.G1Point[2] memory sigma, string[] memory public_m, uint256[] memory disclose_index, string[] memory disclose_attr) private {\n    uint256 id = params.getMapCredentials(name);\n    require(id != 0, \"No such AC.\");\n    uint256[4] memory credential = [sigma[0].X, sigma[0].Y, sigma[1].X, sigma[1].Y];\n    emit emitVerify(id, credential, public_m, disclose_index, disclose_attr);\n  }\n \n  function check_aggr(string[] memory public_m, uint256[] memory public_m_enc, G.G2Point memory aggr, G.G2Point[] memory beta, uint256 priv_attr_len) view internal returns (bool) {\n    G.G1Point[] memory AA = new G.G1Point[](public_m.length+1);\n    G.G2Point[] memory AB = new G.G2Point[](public_m.length+1);\n    AA[0] = G.g1neg(G.P1());\n    AB[0] = aggr;\n    uint256[] memory uint_public_m = new uint256[](public_m.length);\n    for(uint256 i = 0; i < public_m.length; i++) {\n      if (public_m_enc[i] == 1) {\n        uint_public_m[i] = uint256(sha256(bytes(public_m[i])))%G.N();\n      }\n      else{\n        uint_public_m[i] = stringToUint256(public_m[i]);\n      }\n    }\n    for(uint256 i = 0; i < public_m.length; i++) {\n      AA[i+1] = G.g1mul(G.P1(), uint_public_m[i]);\n      AB[i+1] = beta[priv_attr_len + i];\n    }\n    if (!G.pairing(AA, AB)) {\n      return false;\n    }\n    return true;\n  }\n\n  function calculate_Bw(G.G1Point[2] memory h_nu, Proof memory proof) private view returns(G.G1Point memory) {\n    return (G.g1add(G.g1mul(h_nu[1], proof.c), G.g1mul(h_nu[0], proof.rt)));\n  }\n\n  function verify_pi_v(string memory name, G.G1Point[2] memory h_nu, G.G2Point[2] memory Aw_kappa, Proof memory proof, G.G2Point[] memory beta, string[] memory disclose_attr, uint256[] memory disclose_attr_enc, uint256[] memory disclose_index, uint256 _timestamp) internal view returns (bool) {\n    G.G2Point memory alpha = params.get_alpha(name);\n\n    uint256[] memory uint_disclose_attr = new uint256[](disclose_attr.length);\n    for(uint256 i = 0; i< disclose_attr.length; i++) {\n      if (disclose_attr_enc[i] == 1) {\n        uint_disclose_attr[i] = uint256(sha256(bytes(disclose_attr[i])))%G.N();\n      }\n      else{\n        uint_disclose_attr[i] = stringToUint256(disclose_attr[i]);\n      }\n    }\n\n    if(!check_Aw(Aw_kappa, proof, alpha, beta, uint_disclose_attr, disclose_index)) {\n      return false;\n    }\n\n    G.G1Point memory Bw = calculate_Bw(h_nu, proof);\n    G.G1Point[] memory hs = params.get_hs(name);\n    return proof.c == ToChallenge(alpha, Aw_kappa, Bw, hs, beta, uint_disclose_attr, _timestamp);\n  }\n  \n  function check_Aw(G.G2Point[2] memory Aw_kappa, Proof memory proof, G.G2Point memory alpha, G.G2Point[] memory beta, uint256[] memory disclose_attr, uint256[] memory disclose_index) private view returns(bool) {\n    G.G1Point[] memory AA = new G.G1Point[](proof.rm.length+disclose_attr.length+5);\n    G.G2Point[] memory AB = new G.G2Point[](proof.rm.length+disclose_attr.length+5);\n    AA[0] = G.g1neg(G.P1());\n    AA[1] = G.P1();\n    AA[2] = G.g1neg(G.g1mul(G.P1(), proof.c));\n    AA[3] = G.g1mul(G.P1(), proof.rt);\n    AA[4] = G.g1mul(G.P1(), proof.c);\n    AB[0] = Aw_kappa[0];\n    AB[1] = alpha;\n    AB[2] = alpha;\n    AB[3] = G.P2();\n    AB[4] = Aw_kappa[1];\n\n    uint256 k = 0;\n    uint256 j = 0;\n    for(uint256 i=0; i< proof.rm.length + disclose_attr.length; i++) {\n      if(disclose_index[i] == 1) {\n        AA[i+5] = G.g1neg(G.g1mul(G.P1(), mulmod(proof.c, disclose_attr[k], G.N())));\n        AB[i+5] = beta[i];\n        k = k +1;\n      }\n      else {\n        AA[i+5] = G.g1mul(G.P1(), proof.rm[j]);\n        AB[i+5] = beta[i];\n        j = j + 1;\n      }   \n    }\n    if (!G.pairing(AA, AB)) {\n      return false;\n    }\n    return true;\n  }\n\n  function ToChallenge(G.G2Point memory alpha, G.G2Point[2] memory Aw_kappa, G.G1Point memory Bw, G.G1Point[] memory _hs, G.G2Point[] memory beta, uint256[] memory disclose_attr, uint256 _timestamp) private pure returns (uint256) {\n    bytes memory result = new bytes(224 + (_hs.length + beta.length + disclose_attr.length) * 32);\n  \n    bytes32 X =  G.G1_to_binary256(G.P1());\n    for (uint256 i=0; i < 32 ; i++) {\n      result[i] = X[i];\n    }\n    X =  G.G2_to_binary256(G.P2());\n    for (uint256 i=0; i< 32 ; i++) {\n      result[i+32] = X[i];\n    }\n    X =  G.G2_to_binary256(alpha);\n    for (uint256 i=0; i< 32 ; i++) {\n      result[i+64] = X[i];\n    }\n    X =  G.G2_to_binary256(Aw_kappa[0]);\n    for (uint256 i=0; i< 32 ; i++) {\n      result[i+96] = X[i];\n    }\n    X =  G.G1_to_binary256(Bw);\n    for (uint256 i=0; i< 32 ; i++) {\n      result[i+128] = X[i];\n    }\n    X =  G.G2_to_binary256(Aw_kappa[1]);\n    for (uint256 i=0; i< 32 ; i++) {\n      result[i+160] = X[i];\n    }\n  \n    uint256 location = 192;\n    for(uint256 i=0; i< _hs.length; i++) {\n      X = G.G1_to_binary256(_hs[i]);\n      for (uint256 j=0; j< 32 ; j++) {\n        result[j+location] = X[j];\n      }\n      location = location + 32;\n    }\n    for(uint256 i = 0; i < beta.length; i++) {\n      X = G.G2_to_binary256(beta[i]);\n      for (uint256 j=0; j< 32 ; j++) {\n        result[j+location] = X[j];\n      }\n      location = location + 32;\n    }\n    for(uint256 i = 0; i < disclose_attr.length; i++) {\n      X = bytes32(disclose_attr[i]);\n      for (uint256 j=0; j< 32 ; j++) {\n        result[j+location] = X[j];\n      }\n      location = location + 32;\n    }\n    X = bytes32(_timestamp);\n    for(uint256 i = 0; i < 32; i++) {\n      result[i+location] = X[i];\n    }\n    location = location + 32;\n\n    bytes32 Chash =  sha256(result);\n    return uint256(Chash);\n  }\n}\n",
  "sourcePath": "/home/neel/acad/DTRAC/RAVC2/Admin/Blockchain/contracts/Verify.sol",
  "compiler": {
    "name": "solc",
    "version": "0.8.13+commit.abaa5c0e.Emscripten.clang"
  },
  "schemaVersion": "3.4.13",
  "updatedAt": "2023-08-09T19:10:52.474Z",
  "networkType": "ethereum",
  "devdoc": {
    "kind": "dev",
    "methods": {},
    "version": 1
  },
  "userdoc": {
    "kind": "user",
    "methods": {},
    "version": 1
  }
}