{
  "contractName": "Opening",
  "abi": [
    {
      "inputs": [
        {
          "internalType": "contract Params",
          "name": "_params",
          "type": "address"
        }
      ],
      "stateMutability": "nonpayable",
      "type": "constructor"
    },
    {
      "anonymous": false,
      "inputs": [
        {
          "indexed": true,
          "internalType": "uint256",
          "name": "id",
          "type": "uint256"
        },
        {
          "indexed": false,
          "internalType": "uint256",
          "name": "opening_session_id",
          "type": "uint256"
        },
        {
          "indexed": false,
          "internalType": "address",
          "name": "opener_address",
          "type": "address"
        },
        {
          "indexed": false,
          "internalType": "uint256[13][]",
          "name": "openingshares",
          "type": "uint256[13][]"
        }
      ],
      "name": "emitOpening",
      "type": "event"
    },
    {
      "inputs": [
        {
          "internalType": "address",
          "name": "addr",
          "type": "address"
        }
      ],
      "name": "set_params",
      "outputs": [],
      "stateMutability": "nonpayable",
      "type": "function"
    },
    {
      "inputs": [
        {
          "internalType": "address",
          "name": "opener_address",
          "type": "address"
        }
      ],
      "name": "addOpener",
      "outputs": [],
      "stateMutability": "nonpayable",
      "type": "function"
    },
    {
      "inputs": [
        {
          "internalType": "address",
          "name": "opener_address",
          "type": "address"
        }
      ],
      "name": "removeOpener",
      "outputs": [],
      "stateMutability": "nonpayable",
      "type": "function"
    },
    {
      "inputs": [
        {
          "internalType": "string",
          "name": "name",
          "type": "string"
        },
        {
          "internalType": "uint256",
          "name": "opening_session_id",
          "type": "uint256"
        },
        {
          "internalType": "uint256[13][]",
          "name": "openingshares",
          "type": "uint256[13][]"
        }
      ],
      "name": "SendOpeningInfo",
      "outputs": [],
      "stateMutability": "nonpayable",
      "type": "function"
    }
  ],
  "bytecode": "0x608060405234801561001057600080fd5b50604051610d12380380610d128339818101604052810190610032919061012e565b33600160006101000a81548173ffffffffffffffffffffffffffffffffffffffff021916908373ffffffffffffffffffffffffffffffffffffffff160217905550806000806101000a81548173ffffffffffffffffffffffffffffffffffffffff021916908373ffffffffffffffffffffffffffffffffffffffff1602179055505061015b565b600080fd5b600073ffffffffffffffffffffffffffffffffffffffff82169050919050565b60006100e9826100be565b9050919050565b60006100fb826100de565b9050919050565b61010b816100f0565b811461011657600080fd5b50565b60008151905061012881610102565b92915050565b600060208284031215610144576101436100b9565b5b600061015284828501610119565b91505092915050565b610ba88061016a6000396000f3fe608060405234801561001057600080fd5b506004361061004c5760003560e01c8063705b9454146100515780637d226b351461006d57806385b7937a14610089578063b36516cf146100a5575b600080fd5b61006b6004803603810190610066919061074d565b6100c1565b005b61008760048036038101906100829190610836565b61023b565b005b6100a3600480360381019061009e9190610836565b6102f0565b005b6100bf60048036038101906100ba9190610836565b61038d565b005b600260003373ffffffffffffffffffffffffffffffffffffffff1673ffffffffffffffffffffffffffffffffffffffff16815260200190815260200160002060009054906101000a900460ff1661011757600080fd5b60008060009054906101000a900473ffffffffffffffffffffffffffffffffffffffff1673ffffffffffffffffffffffffffffffffffffffff1663a2191d38856040518263ffffffff1660e01b815260040161017391906108eb565b602060405180830381865afa158015610190573d6000803e3d6000fd5b505050506040513d601f19601f820116820180604052508101906101b49190610922565b9050600081036101f9576040517f08c379a00000000000000000000000000000000000000000000000000000000081526004016101f09061099b565b60405180910390fd5b807f7ce550f8928939fc23557cf255aa5c4ac2c3f3c6ac39f96c9bd7084c3b2d3d7784338560405161022d93929190610b34565b60405180910390a250505050565b600160009054906101000a900473ffffffffffffffffffffffffffffffffffffffff1673ffffffffffffffffffffffffffffffffffffffff163373ffffffffffffffffffffffffffffffffffffffff161461029557600080fd5b6000600260008373ffffffffffffffffffffffffffffffffffffffff1673ffffffffffffffffffffffffffffffffffffffff16815260200190815260200160002060006101000a81548160ff02191690831515021790555050565b600160009054906101000a900473ffffffffffffffffffffffffffffffffffffffff1673ffffffffffffffffffffffffffffffffffffffff163373ffffffffffffffffffffffffffffffffffffffff161461034a57600080fd5b806000806101000a81548173ffffffffffffffffffffffffffffffffffffffff021916908373ffffffffffffffffffffffffffffffffffffffff16021790555050565b600160009054906101000a900473ffffffffffffffffffffffffffffffffffffffff1673ffffffffffffffffffffffffffffffffffffffff163373ffffffffffffffffffffffffffffffffffffffff16146103e757600080fd5b6001600260008373ffffffffffffffffffffffffffffffffffffffff1673ffffffffffffffffffffffffffffffffffffffff16815260200190815260200160002060006101000a81548160ff02191690831515021790555050565b6000604051905090565b600080fd5b600080fd5b600080fd5b600080fd5b6000601f19601f8301169050919050565b7f4e487b7100000000000000000000000000000000000000000000000000000000600052604160045260246000fd5b6104a982610460565b810181811067ffffffffffffffff821117156104c8576104c7610471565b5b80604052505050565b60006104db610442565b90506104e782826104a0565b919050565b600067ffffffffffffffff82111561050757610506610471565b5b61051082610460565b9050602081019050919050565b82818337600083830152505050565b600061053f61053a846104ec565b6104d1565b90508281526020810184848401111561055b5761055a61045b565b5b61056684828561051d565b509392505050565b600082601f83011261058357610582610456565b5b813561059384826020860161052c565b91505092915050565b6000819050919050565b6105af8161059c565b81146105ba57600080fd5b50565b6000813590506105cc816105a6565b92915050565b600067ffffffffffffffff8211156105ed576105ec610471565b5b602082029050602081019050919050565b600080fd5b600067ffffffffffffffff82111561061e5761061d610471565b5b602082029050919050565b600061063c61063784610603565b6104d1565b90508060208402830185811115610656576106556105fe565b5b835b8181101561067f578061066b88826105bd565b845260208401935050602081019050610658565b5050509392505050565b600082601f83011261069e5761069d610456565b5b600d6106ab848285610629565b91505092915050565b60006106c76106c2846105d2565b6104d1565b9050808382526020820190506101a084028301858111156106eb576106ea6105fe565b5b835b8181101561071557806107008882610689565b8452602084019350506101a0810190506106ed565b5050509392505050565b600082601f83011261073457610733610456565b5b81356107448482602086016106b4565b91505092915050565b6000806000606084860312156107665761076561044c565b5b600084013567ffffffffffffffff81111561078457610783610451565b5b6107908682870161056e565b93505060206107a1868287016105bd565b925050604084013567ffffffffffffffff8111156107c2576107c1610451565b5b6107ce8682870161071f565b9150509250925092565b600073ffffffffffffffffffffffffffffffffffffffff82169050919050565b6000610803826107d8565b9050919050565b610813816107f8565b811461081e57600080fd5b50565b6000813590506108308161080a565b92915050565b60006020828403121561084c5761084b61044c565b5b600061085a84828501610821565b91505092915050565b600081519050919050565b600082825260208201905092915050565b60005b8381101561089d578082015181840152602081019050610882565b838111156108ac576000848401525b50505050565b60006108bd82610863565b6108c7818561086e565b93506108d781856020860161087f565b6108e081610460565b840191505092915050565b6000602082019050818103600083015261090581846108b2565b905092915050565b60008151905061091c816105a6565b92915050565b6000602082840312156109385761093761044c565b5b60006109468482850161090d565b91505092915050565b7f4e6f20737563682041432e000000000000000000000000000000000000000000600082015250565b6000610985600b8361086e565b91506109908261094f565b602082019050919050565b600060208201905081810360008301526109b481610978565b9050919050565b6109c48161059c565b82525050565b6109d3816107f8565b82525050565b600081519050919050565b600082825260208201905092915050565b6000819050602082019050919050565b6000600d9050919050565b600081905092915050565b6000819050919050565b610a2e8161059c565b82525050565b6000610a408383610a25565b60208301905092915050565b6000602082019050919050565b610a6281610a05565b610a6c8184610a10565b9250610a7782610a1b565b8060005b83811015610aa8578151610a8f8782610a34565b9650610a9a83610a4c565b925050600181019050610a7b565b505050505050565b6000610abc8383610a59565b6101a08301905092915050565b6000602082019050919050565b6000610ae1826109d9565b610aeb81856109e4565b9350610af6836109f5565b8060005b83811015610b27578151610b0e8882610ab0565b9750610b1983610ac9565b925050600181019050610afa565b5085935050505092915050565b6000606082019050610b4960008301866109bb565b610b5660208301856109ca565b8181036040830152610b688184610ad6565b905094935050505056fea264697066735822122079413f799348e6cb3afdf9af16c09142bd1bd9fd97d8a923e2b83b7d2bf6b68364736f6c634300080d0033",
  "immutableReferences": {},
  "source": "// SPDX-License-Identifier: GPL-3.0\npragma solidity >=0.7.0 <0.9.0;\npragma experimental ABIEncoderV2;\n\nimport {Params} from \"./Params.sol\";\n\ncontract Opening {\n\n    Params private params;\n    address private owner;\n    constructor(Params _params) {\n        owner = msg.sender;\n        params = _params;\n    }\n\n    modifier onlyOwner {\n        require(msg.sender == owner);\n        _;\n    }\n    function set_params(address addr) public onlyOwner {\n        params = Params(addr);\n    }\n\n    mapping(address => bool) private openers;\n    function addOpener(address opener_address) public onlyOwner {\n        openers[opener_address] = true;\n    }\n    function removeOpener(address opener_address) public onlyOwner {\n        openers[opener_address] = false;\n    }\n    modifier onlyOpeners {\n        require(openers[msg.sender]);\n        _;\n    }\n    \n    event emitOpening(uint256 indexed id, uint256 opening_session_id, address opener_address, uint256[13][] openingshares);\n    function SendOpeningInfo(string memory name, uint256 opening_session_id,  uint256[13][] memory openingshares) public onlyOpeners {\n        uint256 id = params.getMapCredentials(name);\n        require(id != 0, \"No such AC.\");\n        emit emitOpening(id, opening_session_id, msg.sender, openingshares);\n    }\n}",
  "sourcePath": "/home/neel/acad/DTRAC/RAVC2/Admin/Blockchain/contracts/Opening.sol",
  "compiler": {
    "name": "solc",
    "version": "0.8.13+commit.abaa5c0e.Emscripten.clang"
  },
  "schemaVersion": "3.4.13",
  "updatedAt": "2023-08-09T19:10:52.482Z",
  "networkType": "ethereum",
  "devdoc": {
    "kind": "dev",
    "methods": {},
    "version": 1
  },
  "userdoc": {
    "kind": "user",
    "methods": {},
    "version": 1
  }
}