{
  "contractName": "Accumulator",
  "abi": [
    {
      "inputs": [
        {
          "internalType": "contract Params",
          "name": "_params",
          "type": "address"
        }
      ],
      "stateMutability": "nonpayable",
      "type": "constructor"
    },
    {
      "anonymous": false,
      "inputs": [
        {
          "indexed": false,
          "internalType": "uint256",
          "name": "c",
          "type": "uint256"
        }
      ],
      "name": "revocation_complete",
      "type": "event"
    },
    {
      "anonymous": false,
      "inputs": [
        {
          "indexed": false,
          "internalType": "uint256[2]",
          "name": "W",
          "type": "uint256[2]"
        },
        {
          "indexed": false,
          "internalType": "uint256[2]",
          "name": "del",
          "type": "uint256[2]"
        },
        {
          "indexed": false,
          "internalType": "uint256",
          "name": "request_id",
          "type": "uint256"
        },
        {
          "indexed": false,
          "internalType": "uint256",
          "name": "kr",
          "type": "uint256"
        },
        {
          "indexed": false,
          "internalType": "uint256",
          "name": "timestamp",
          "type": "uint256"
        }
      ],
      "name": "send_W_kr",
      "type": "event"
    },
    {
      "anonymous": false,
      "inputs": [
        {
          "indexed": false,
          "internalType": "uint256",
          "name": "d",
          "type": "uint256"
        },
        {
          "indexed": false,
          "internalType": "uint256",
          "name": "e",
          "type": "uint256"
        }
      ],
      "name": "send_d_and_e",
      "type": "event"
    },
    {
      "anonymous": false,
      "inputs": [
        {
          "indexed": false,
          "internalType": "uint256",
          "name": "s",
          "type": "uint256"
        }
      ],
      "name": "send_s",
      "type": "event"
    },
    {
      "anonymous": false,
      "inputs": [
        {
          "indexed": false,
          "internalType": "uint256",
          "name": "kr",
          "type": "uint256"
        },
        {
          "indexed": false,
          "internalType": "uint256[]",
          "name": "W",
          "type": "uint256[]"
        },
        {
          "indexed": false,
          "internalType": "uint256[]",
          "name": "H",
          "type": "uint256[]"
        },
        {
          "indexed": false,
          "internalType": "uint256[]",
          "name": "S",
          "type": "uint256[]"
        },
        {
          "indexed": false,
          "internalType": "uint256[2][]",
          "name": "cm",
          "type": "uint256[2][]"
        },
        {
          "indexed": false,
          "internalType": "uint256[]",
          "name": "g1_r",
          "type": "uint256[]"
        },
        {
          "indexed": false,
          "internalType": "uint256[]",
          "name": "a_share",
          "type": "uint256[]"
        },
        {
          "indexed": false,
          "internalType": "uint256[]",
          "name": "b_share",
          "type": "uint256[]"
        },
        {
          "indexed": false,
          "internalType": "uint256[]",
          "name": "c_share",
          "type": "uint256[]"
        },
        {
          "indexed": false,
          "internalType": "uint256",
          "name": "t",
          "type": "uint256"
        }
      ],
      "name": "send_self_revocation",
      "type": "event"
    },
    {
      "anonymous": false,
      "inputs": [
        {
          "components": [
            {
              "internalType": "uint256",
              "name": "X",
              "type": "uint256"
            },
            {
              "internalType": "uint256",
              "name": "Y",
              "type": "uint256"
            }
          ],
          "indexed": false,
          "internalType": "struct G.G1Point",
          "name": "delta",
          "type": "tuple"
        }
      ],
      "name": "send_updated_witness",
      "type": "event"
    },
    {
      "inputs": [
        {
          "internalType": "uint256[]",
          "name": "indexes",
          "type": "uint256[]"
        }
      ],
      "name": "lagrange_basis",
      "outputs": [
        {
          "internalType": "uint256[]",
          "name": "",
          "type": "uint256[]"
        }
      ],
      "stateMutability": "view",
      "type": "function",
      "constant": true
    },
    {
      "inputs": [
        {
          "internalType": "uint256",
          "name": "ya",
          "type": "uint256"
        },
        {
          "internalType": "uint256",
          "name": "kr",
          "type": "uint256"
        }
      ],
      "name": "updateDelta",
      "outputs": [],
      "stateMutability": "nonpayable",
      "type": "function"
    },
    {
      "inputs": [],
      "name": "get_delta",
      "outputs": [
        {
          "internalType": "uint256",
          "name": "",
          "type": "uint256"
        },
        {
          "internalType": "uint256",
          "name": "",
          "type": "uint256"
        }
      ],
      "stateMutability": "view",
      "type": "function",
      "constant": true
    },
    {
      "inputs": [
        {
          "internalType": "uint256",
          "name": "id",
          "type": "uint256"
        },
        {
          "internalType": "uint256",
          "name": "share",
          "type": "uint256"
        },
        {
          "internalType": "uint256",
          "name": "request_id",
          "type": "uint256"
        }
      ],
      "name": "recieve_share_for_revocation",
      "outputs": [],
      "stateMutability": "nonpayable",
      "type": "function"
    },
    {
      "inputs": [
        {
          "internalType": "uint256",
          "name": "fl",
          "type": "uint256"
        }
      ],
      "name": "aggregate_value",
      "outputs": [
        {
          "internalType": "uint256",
          "name": "",
          "type": "uint256"
        }
      ],
      "stateMutability": "view",
      "type": "function",
      "constant": true
    },
    {
      "inputs": [
        {
          "internalType": "uint256",
          "name": "di",
          "type": "uint256"
        },
        {
          "internalType": "uint256",
          "name": "ei",
          "type": "uint256"
        },
        {
          "internalType": "uint256",
          "name": "id",
          "type": "uint256"
        }
      ],
      "name": "combine_di_and_ei",
      "outputs": [],
      "stateMutability": "nonpayable",
      "type": "function"
    },
    {
      "inputs": [
        {
          "internalType": "uint256",
          "name": "si",
          "type": "uint256"
        },
        {
          "internalType": "uint256",
          "name": "id",
          "type": "uint256"
        }
      ],
      "name": "combine_func_si",
      "outputs": [],
      "stateMutability": "nonpayable",
      "type": "function"
    },
    {
      "inputs": [
        {
          "components": [
            {
              "internalType": "uint256",
              "name": "X",
              "type": "uint256"
            },
            {
              "internalType": "uint256",
              "name": "Y",
              "type": "uint256"
            }
          ],
          "internalType": "struct G.G1Point[]",
          "name": "pub_key",
          "type": "tuple[]"
        }
      ],
      "name": "gen_beaver_tuples",
      "outputs": [
        {
          "components": [
            {
              "internalType": "uint256",
              "name": "X",
              "type": "uint256"
            },
            {
              "internalType": "uint256",
              "name": "Y",
              "type": "uint256"
            }
          ],
          "internalType": "struct G.G1Point",
          "name": "",
          "type": "tuple"
        },
        {
          "internalType": "uint256",
          "name": "",
          "type": "uint256"
        }
      ],
      "stateMutability": "nonpayable",
      "type": "function"
    },
    {
      "inputs": [
        {
          "internalType": "string",
          "name": "name",
          "type": "string"
        },
        {
          "internalType": "uint256",
          "name": "kr",
          "type": "uint256"
        },
        {
          "components": [
            {
              "internalType": "uint256",
              "name": "X",
              "type": "uint256"
            },
            {
              "internalType": "uint256",
              "name": "Y",
              "type": "uint256"
            }
          ],
          "internalType": "struct G.G1Point",
          "name": "witness",
          "type": "tuple"
        },
        {
          "components": [
            {
              "internalType": "uint256",
              "name": "X",
              "type": "uint256"
            },
            {
              "internalType": "uint256",
              "name": "Y",
              "type": "uint256"
            }
          ],
          "internalType": "struct G.G1Point",
          "name": "H",
          "type": "tuple"
        },
        {
          "components": [
            {
              "internalType": "uint256",
              "name": "X",
              "type": "uint256"
            },
            {
              "internalType": "uint256",
              "name": "Y",
              "type": "uint256"
            }
          ],
          "internalType": "struct G.G1Point",
          "name": "S",
          "type": "tuple"
        },
        {
          "components": [
            {
              "internalType": "uint256",
              "name": "X",
              "type": "uint256"
            },
            {
              "internalType": "uint256",
              "name": "Y",
              "type": "uint256"
            }
          ],
          "internalType": "struct G.G1Point[]",
          "name": "commitments",
          "type": "tuple[]"
        }
      ],
      "name": "verify_revocation_request",
      "outputs": [],
      "stateMutability": "nonpayable",
      "type": "function"
    },
    {
      "inputs": [
        {
          "components": [
            {
              "internalType": "uint256",
              "name": "X",
              "type": "uint256"
            },
            {
              "internalType": "uint256",
              "name": "Y",
              "type": "uint256"
            }
          ],
          "internalType": "struct G.G1Point",
          "name": "m",
          "type": "tuple"
        }
      ],
      "name": "hash_to_G1",
      "outputs": [
        {
          "components": [
            {
              "internalType": "uint256",
              "name": "X",
              "type": "uint256"
            },
            {
              "internalType": "uint256",
              "name": "Y",
              "type": "uint256"
            }
          ],
          "internalType": "struct G.G1Point",
          "name": "",
          "type": "tuple"
        }
      ],
      "stateMutability": "view",
      "type": "function",
      "constant": true
    },
    {
      "inputs": [
        {
          "components": [
            {
              "internalType": "uint256",
              "name": "X",
              "type": "uint256"
            },
            {
              "internalType": "uint256",
              "name": "Y",
              "type": "uint256"
            }
          ],
          "internalType": "struct G.G1Point",
          "name": "a",
          "type": "tuple"
        }
      ],
      "name": "hash_to_int",
      "outputs": [
        {
          "internalType": "uint256",
          "name": "",
          "type": "uint256"
        }
      ],
      "stateMutability": "view",
      "type": "function",
      "constant": true
    },
    {
      "inputs": [
        {
          "components": [
            {
              "internalType": "uint256",
              "name": "X",
              "type": "uint256"
            },
            {
              "internalType": "uint256",
              "name": "Y",
              "type": "uint256"
            }
          ],
          "internalType": "struct G.G1Point",
          "name": "a",
          "type": "tuple"
        }
      ],
      "name": "hash_to_int_2",
      "outputs": [
        {
          "internalType": "uint256",
          "name": "",
          "type": "uint256"
        }
      ],
      "stateMutability": "pure",
      "type": "function",
      "constant": true
    },
    {
      "inputs": [
        {
          "internalType": "uint256",
          "name": "id",
          "type": "uint256"
        },
        {
          "internalType": "uint256",
          "name": "share",
          "type": "uint256"
        },
        {
          "internalType": "uint256",
          "name": "request_id",
          "type": "uint256"
        }
      ],
      "name": "recieve_ya_share",
      "outputs": [],
      "stateMutability": "nonpayable",
      "type": "function"
    },
    {
      "inputs": [
        {
          "internalType": "uint256",
          "name": "time",
          "type": "uint256"
        }
      ],
      "name": "updateWitness",
      "outputs": [
        {
          "internalType": "uint256[4][]",
          "name": "",
          "type": "uint256[4][]"
        },
        {
          "internalType": "uint256[4][]",
          "name": "",
          "type": "uint256[4][]"
        },
        {
          "internalType": "uint256",
          "name": "",
          "type": "uint256"
        }
      ],
      "stateMutability": "nonpayable",
      "type": "function"
    },
    {
      "inputs": [
        {
          "internalType": "uint256",
          "name": "_no",
          "type": "uint256"
        },
        {
          "internalType": "uint256",
          "name": "_to",
          "type": "uint256"
        },
        {
          "internalType": "uint256",
          "name": "_nv",
          "type": "uint256"
        },
        {
          "internalType": "uint256",
          "name": "_tv",
          "type": "uint256"
        }
      ],
      "name": "set_accumulator",
      "outputs": [],
      "stateMutability": "nonpayable",
      "type": "function"
    },
    {
      "inputs": [
        {
          "internalType": "uint256[]",
          "name": "array",
          "type": "uint256[]"
        },
        {
          "internalType": "uint256",
          "name": "x",
          "type": "uint256"
        }
      ],
      "name": "gen_share",
      "outputs": [
        {
          "internalType": "uint256",
          "name": "",
          "type": "uint256"
        }
      ],
      "stateMutability": "view",
      "type": "function",
      "constant": true
    },
    {
      "inputs": [
        {
          "components": [
            {
              "internalType": "uint256",
              "name": "X",
              "type": "uint256"
            },
            {
              "internalType": "uint256",
              "name": "Y",
              "type": "uint256"
            }
          ],
          "internalType": "struct G.G1Point",
          "name": "cm",
          "type": "tuple"
        }
      ],
      "name": "generate_kr_shares",
      "outputs": [
        {
          "internalType": "uint256[]",
          "name": "",
          "type": "uint256[]"
        },
        {
          "internalType": "uint256[]",
          "name": "",
          "type": "uint256[]"
        }
      ],
      "stateMutability": "nonpayable",
      "type": "function"
    }
  ],
  "bytecode": "0x608060405260006004553480156200001657600080fd5b50604051620036b5380380620036b583398101604081905262000039916200006d565b60008054336001600160a01b031991821617909155600180549091166001600160a01b03929092169190911790556200009f565b6000602082840312156200008057600080fd5b81516001600160a01b03811681146200009857600080fd5b9392505050565b61360680620000af6000396000f3fe608060405234801561001057600080fd5b50600436106100db5760003560e01c8063081378cb146100e05780630a9665da146100f55780630c4bfdc81461011b5780633553964a1461012e57806342afaa4a1461014157806344ad07451461016157806357e5d28814610181578063678e3ce7146101945780636b38051c146101a75780639162c47d146101ba5780639957efd1146101db57806399cb40c1146101ee578063a12c5f5414610209578063a97dd5ef1461023c578063af7fbf931461024f578063eb205bbe14610271578063fcfbf4c014610284575b600080fd5b6100f36100ee366004612d00565b610297565b005b610108610103366004612e1e565b6102f0565b6040519081526020015b60405180910390f35b610108610129366004612e92565b61037b565b6100f361013c366004612eb5565b6104ce565b61015461014f366004612ee7565b6109c3565b6040516101129190612f5e565b61017461016f366004612e92565b610b5e565b6040516101129190612f71565b6100f361018f366004612fec565b610cb3565b6100f36101a2366004612d00565b61105d565b6100f36101b53660046130e2565b611181565b6101cd6101c8366004612e92565b611310565b60405161011292919061310e565b6100f36101e93660046130e2565b6115d5565b60025460035460408051928352602083019190915201610112565b61021c61021736600461313c565b6117bb565b604080518351815260209384015193810193909352820152606001610112565b61010861024a366004613170565b611bdd565b61026261025d366004613170565b611f78565b604051610112939291906131ea565b61010861027f366004612e92565b6125a7565b6100f36102923660046130e2565b61270a565b60408051808201909152600254815260035460208201526102e0906102db6000805160206135b18339815191528585086000805160206135b18339815191526128b9565b61290a565b8051600255602001516003555050565b6000806000805160206135b1833981519152815b855181101561036557818061031b5761031b613220565b828061032957610329613220565b61033487848661295c565b88848151811061034657610346613236565b602002602001015109840892508061035d81613262565b915050610304565b50610370818361327b565b925050505b92915050565b805160208201516040805181815260608101825260009392918391839186919060208201818036833701905050905060005b6020811015610407578381602081106103c8576103c8613236565b1a60f81b8282815181106103de576103de613236565b60200101906001600160f81b031916908160001a905350806103ff81613262565b9150506103ad565b5060205b604081101561046f578261042060208361329d565b6020811061043057610430613236565b1a60f81b82828151811061044657610446613236565b60200101906001600160f81b031916908160001a9053508061046781613262565b91505061040b565b50600060028260405161048291906132e0565b602060405180830381855afa15801561049f573d6000803e3d6000fd5b5050506040513d601f19601f820116820180604052508101906104c291906132fc565b98975050505050505050565b6104d66129c2565b8051600255602001516003556005849055600782905560068390556008819055826001600160401b0381111561050e5761050e612d22565b604051908082528060200260200182016040528015610537578160200160208202803683370190505b50805161054c91601291602090910190612b63565b506006546001600160401b0381111561056757610567612d22565b604051908082528060200260200182016040528015610590578160200160208202803683370190505b5080516105a591601391602090910190612b63565b506006546001600160401b038111156105c0576105c0612d22565b6040519080825280602002602001820160405280156105e9578160200160208202803683370190505b5080516105fe91601491602090910190612b63565b506005546001600160401b0381111561061957610619612d22565b604051908082528060200260200182016040528015610642578160200160208202803683370190505b50805161065791601591602090910190612b63565b506005546001600160401b0381111561067257610672612d22565b60405190808252806020026020018201604052801561069b578160200160208202803683370190505b5080516106b091601691602090910190612b63565b506005546001600160401b038111156106cb576106cb612d22565b6040519080825280602002602001820160405280156106f4578160200160208202803683370190505b50805161070991601791602090910190612b63565b506005546001600160401b0381111561072457610724612d22565b60405190808252806020026020018201604052801561074d578160200160208202803683370190505b50805161076291600b91602090910190612b63565b506005546001600160401b0381111561077d5761077d612d22565b6040519080825280602002602001820160405280156107a6578160200160208202803683370190505b5080516107bb91600c91602090910190612b63565b506005546001600160401b038111156107d6576107d6612d22565b6040519080825280602002602001820160405280156107ff578160200160208202803683370190505b50805161081491600d91602090910190612b63565b506005546001600160401b0381111561082f5761082f612d22565b604051908082528060200260200182016040528015610858578160200160208202803683370190505b50805161086d91600991602090910190612b63565b506005546001600160401b0381111561088857610888612d22565b6040519080825280602002602001820160405280156108b1578160200160208202803683370190505b5080516108c691600a91602090910190612b63565b5060015b60055481116109bc57600060096108e260018461329d565b815481106108f2576108f2613236565b6000918252602082200191909155600a61090d60018461329d565b8154811061091d5761091d613236565b6000918252602082200191909155600b61093860018461329d565b8154811061094857610948613236565b6000918252602082200191909155600c61096360018461329d565b8154811061097357610973613236565b6000918252602082200191909155600d61098e60018461329d565b8154811061099e5761099e613236565b600091825260209091200155806109b481613262565b9150506108ca565b5050505050565b606060006000805160206135b18339815191529050600083516001600160401b038111156109f3576109f3612d22565b604051908082528060200260200182016040528015610a1c578160200160208202803683370190505b50905060005b8451811015610b565760018060005b8751811015610b08576000888581518110610a4e57610a4e613236565b602002602001015190506000898381518110610a6c57610a6c613236565b6020026020010151905081811115610ab2578780610a8c57610a8c613220565b81860994508780610a9f57610a9f613220565b610aa9838361329d565b85099350610af3565b81811015610af3578780610ac857610ac8613220565b85610ad3838b61329d565b0994508780610ae457610ae4613220565b610aee828461329d565b850993505b50508080610b0090613262565b915050610a31565b508480610b1757610b17613220565b610b2182876128b9565b8309848481518110610b3557610b35613236565b60200260200101818152505050508080610b4e90613262565b915050610a22565b509392505050565b610b66612bae565b81516020830151604080518181526060810182528391839160009160208201818036833701905050905060005b6020811015610bed57838160208110610bae57610bae613236565b1a60f81b828281518110610bc457610bc4613236565b60200101906001600160f81b031916908160001a90535080610be581613262565b915050610b93565b5060205b6040811015610c555782610c0660208361329d565b60208110610c1657610c16613236565b1a60f81b828281518110610c2c57610c2c613236565b60200101906001600160f81b031916908160001a90535080610c4d81613262565b915050610bf1565b506000600282604051610c6891906132e0565b602060405180830381855afa158015610c85573d6000803e3d6000fd5b5050506040513d601f19601f82011682018060405250810190610ca891906132fc565b90506104c2816129e3565b60015460405163da1b735360e01b81526000916001600160a01b03169063da1b735390610ce4908a90600401613315565b600060405180830381865afa158015610d01573d6000803e3d6000fd5b505050506040513d6000823e601f3d908101601f19168201604052610d299190810190613348565b9050600080610d37836117bb565b60408051600280825260608201835293955091935060009290602083019080368337505060408051600280825260608201835293945060009390925090602083019080368337505060408051600280825260608201835293945060009390925090602083019080368337505060408051600280825260608201835293945060009390925090602083019080368337019050509050600088516001600160401b03811115610de657610de6612d22565b604051908082528060200260200182016040528015610e1f57816020015b610e0c612bc8565b815260200190600190039081610e045790505b5090508b6000015184600081518110610e3a57610e3a613236565b6020026020010181815250508b6020015184600181518110610e5e57610e5e613236565b602002602001018181525050866000015185600081518110610e8257610e82613236565b602002602001018181525050866020015185600181518110610ea657610ea6613236565b6020026020010181815250508a6000015183600081518110610eca57610eca613236565b6020026020010181815250508a6020015183600181518110610eee57610eee613236565b602002602001018181525050896000015182600081518110610f1257610f12613236565b602002602001018181525050896020015182600181518110610f3657610f36613236565b60200260200101818152505060005b895181101561100057898181518110610f6057610f60613236565b602002602001015160000151828281518110610f7e57610f7e613236565b6020026020010151600060028110610f9857610f98613236565b602002015289518a9082908110610fb157610fb1613236565b602002602001015160200151828281518110610fcf57610fcf613236565b6020026020010151600160028110610fe957610fe9613236565b602002015280610ff881613262565b915050610f45565b507f983d6a2dfdd04cc3285f9c8160d60849f6db048d2e242484131eece24944eddc8d858585858a6015601660178f6040516110459a99989796959493929190613455565b60405180910390a15050505050505050505050505050565b81600d61106b60018461329d565b8154811061107b5761107b613236565b600091825260208220019190915560015b60055481116110e457600d6110a260018361329d565b815481106110b2576110b2613236565b90600052602060002001546000146110d257816110ce81613262565b9250505b806110dc81613262565b91505061108c565b50600554810361117c5760006110fa6003611bdd565b905060015b6005548111611145576000600d61111760018461329d565b8154811061112757611127613236565b6000918252602090912001558061113d81613262565b9150506110ff565b506040518181527fe2bf728ddeaf0f902e51fa4a19c05df0fbc730aa1418d6228d781c28dfbe335b906020015b60405180910390a1505b505050565b82600b61118f60018461329d565b8154811061119f5761119f613236565b60009182526020909120015581600c6111b960018461329d565b815481106111c9576111c9613236565b600091825260208220019190915560015b600554811161123257600b6111f060018361329d565b8154811061120057611200613236565b9060005260206000200154600014611220578161121c81613262565b9250505b8061122a81613262565b9150506111da565b50600554810361130a5760006112486001611bdd565b905060006112566002611bdd565b905060015b60055481116112cc576000600b61127360018461329d565b8154811061128357611283613236565b6000918252602082200191909155600c61129e60018461329d565b815481106112ae576112ae613236565b600091825260209091200155806112c481613262565b91505061125b565b5060408051838152602081018390527f6e68679b84320a372409ded6f9a8ca55b03490f642a139b63e5cd7bf4740387391015b60405180910390a150505b50505050565b60608060006008546001600160401b0381111561132f5761132f612d22565b604051908082528060200260200182016040528015611358578160200160208202803683370190505b50905060006006546001600160401b0381111561137757611377612d22565b6040519080825280602002602001820160405280156113a0578160200160208202803683370190505b50905060006007546001600160401b038111156113bf576113bf612d22565b6040519080825280602002602001820160405280156113e8578160200160208202803683370190505b50905060006005546001600160401b0381111561140757611407612d22565b604051908082528060200260200182016040528015611430578160200160208202803683370190505b509050600061143d612a66565b905080600e600061144d8b6125a7565b815260200190815260200160002081905550808560008151811061147357611473613236565b602002602001018181525050808460008151811061149357611493613236565b602090810291909101015260015b6008548110156114e2576114b3612a66565b8682815181106114c5576114c5613236565b6020908102919091010152806114da81613262565b9150506114a1565b5060015b600654811015611527576114f8612a66565b85828151811061150a5761150a613236565b60209081029190910101528061151f81613262565b9150506114e6565b5060015b60075481116115775761153e86826102f0565b8461154a60018461329d565b8151811061155a5761155a613236565b60209081029190910101528061156f81613262565b91505061152b565b5060015b60055481116115c75761158e85826102f0565b8361159a60018461329d565b815181106115aa576115aa613236565b6020908102919091010152806115bf81613262565b91505061157b565b509197909650945050505050565b8160096115e360018661329d565b815481106115f3576115f3613236565b90600052602060002001819055506000805b600554811015611654576009818154811061162257611622613236565b9060005260206000200154600014611642578161163e81613262565b9250505b8061164c81613262565b915050611605565b50600554810361130a57604080518082018252600254808252600354602080840182905284518086019095529184529083015290611696906102db6004611bdd565b80516002556020015160035560015b60055481116116eb57600060096116bd60018461329d565b815481106116cd576116cd613236565b600091825260209091200155806116e381613262565b9150506116a5565b50604080518082018252600254815260035460208083019190915282516080810184526000878152600e8352848120548252428284015285519482019490945290840151606082015260108054600181018255935290916117739160049182027f1b6847dc741a1b0cd08d278845f9d819d87b734759afb55fe2de5cb82a9ae6720191612be6565b506000848152600e6020526040908190205490517fb5e5eed22760048874a43a6011a75b0a5a916f852b191564a8cf12a79e22e970916112ff91859185918991904290613542565b6117c3612bae565b6000806117ce612a66565b905060006117da612a66565b905060006117e6612a66565b905060006000805160206135b1833981519152838509905060006005546001600160401b0381111561181a5761181a612d22565b60405190808252806020026020018201604052801561185357816020015b611840612bae565b8152602001906001900390816118385790505b50905084601260008154811061186b5761186b613236565b906000526020600020018190555083601360008154811061188e5761188e613236565b90600052602060002001819055508160146000815481106118b1576118b1613236565b60009182526020909120015560015b600654811015611951576118d2612a66565b601282815481106118e5576118e5613236565b6000918252602090912001556118f9612a66565b6013828154811061190c5761190c613236565b600091825260209091200155611920612a66565b6014828154811061193357611933613236565b6000918252602090912001558061194981613262565b9150506118c0565b50600061196561195f6129c2565b8561290a565b905060015b60055481116119da576119a08a61198260018461329d565b8151811061199257611992613236565b60200260200101518661290a565b836119ac60018461329d565b815181106119bc576119bc613236565b602002602001018190525080806119d290613262565b91505061196a565b50600060015b6005548111611bcd57611a15846119f860018461329d565b81518110611a0857611a08613236565b602002602001015161037b565b91506000611a736012805480602002602001604051908101604052809291908181526020018280548015611a6857602002820191906000526020600020905b815481526020019060010190808311611a54575b5050505050836102f0565b90506000611ad16013805480602002602001604051908101604052809291908181526020018280548015611ac657602002820191906000526020600020905b815481526020019060010190808311611ab2575b5050505050846102f0565b90506000611b2f6014805480602002602001604051908101604052809291908181526020018280548015611b2457602002820191906000526020600020905b815481526020019060010190808311611b10575b5050505050856102f0565b90508483186015611b4160018761329d565b81548110611b5157611b51613236565b6000918252602090912001558482186016611b6d60018761329d565b81548110611b7d57611b7d613236565b6000918252602090912001558481186017611b9960018761329d565b81548110611ba957611ba9613236565b90600052602060002001819055505050508080611bc590613262565b9150506119e0565b5090999098509650505050505050565b6000806005546001600160401b03811115611bfa57611bfa612d22565b604051908082528060200260200182016040528015611c23578160200160208202803683370190505b50905060006005546001600160401b03811115611c4257611c42612d22565b604051908082528060200260200182016040528015611c6b578160200160208202803683370190505b509050606084600103611cd057600b805480602002602001604051908101604052809291908181526020018280548015611cc457602002820191906000526020600020905b815481526020019060010190808311611cb0575b50505050509050611e3e565b84600203611d2e57600c805480602002602001604051908101604052809291908181526020018280548015611cc45760200282019190600052602060002090815481526020019060010190808311611cb05750505050509050611e3e565b84600303611d8c57600d805480602002602001604051908101604052809291908181526020018280548015611cc45760200282019190600052602060002090815481526020019060010190808311611cb05750505050509050611e3e565b84600403611dea576009805480602002602001604051908101604052809291908181526020018280548015611cc45760200282019190600052602060002090815481526020019060010190808311611cb05750505050509050611e3e565b600a805480602002602001604051908101604052809291908181526020018280548015611e3657602002820191906000526020600020905b815481526020019060010190808311611e22575b505050505090505b600060015b6005548111611ef65782611e5860018361329d565b81518110611e6857611e68613236565b6020026020010151600014611ee45780858381518110611e8a57611e8a613236565b602090810291909101015282611ea160018361329d565b81518110611eb157611eb1613236565b6020026020010151848381518110611ecb57611ecb613236565b602090810291909101015281611ee081613262565b9250505b80611eee81613262565b915050611e43565b506000611f02856109c3565b90506000805b8651811015611f6c576000805160206135b183398151915280848381518110611f3357611f33613236565b6020026020010151888481518110611f4d57611f4d613236565b6020026020010151098308915080611f6481613262565b915050611f08565b50979650505050505050565b601054601154606091829160009190816001600160401b03811115611f9f57611f9f612d22565b604051908082528060200260200182016040528015611fd857816020015b611fc5612c13565b815260200190600190039081611fbd5790505b508051611fed91601891602090910190612c31565b50806001600160401b0381111561200657612006612d22565b60405190808252806020026020018201604052801561203f57816020015b61202c612c13565b8152602001906001900390816120245790505b50805161205491601991602090910190612c31565b506000821561227b57825b80156122795787601061207360018461329d565b8154811061208357612083613236565b90600052602060002090600402016001600481106120a3576120a3613236565b015411156122795760106120b860018361329d565b815481106120c8576120c8613236565b6000918252602082206004909102010154601883815481106120ec576120ec613236565b6000918252602082206004909102010155601061210a60018361329d565b8154811061211a5761211a613236565b906000526020600020906004020160026004811061213a5761213a613236565b01546018838154811061214f5761214f613236565b906000526020600020906004020160016004811061216f5761216f613236565b0155601061217e60018361329d565b8154811061218e5761218e613236565b90600052602060002090600402016003600481106121ae576121ae613236565b0154601883815481106121c3576121c3613236565b90600052602060002090600402016002600481106121e3576121e3613236565b015560106121f260018361329d565b8154811061220257612202613236565b906000526020600020906004020160016004811061222257612222613236565b01546018838154811061223757612237613236565b906000526020600020906004020160036004811061225757612257613236565b01558161226381613262565b925050808061227190613579565b91505061205f565b505b50600081156124a257815b80156124a05787601161229a60018461329d565b815481106122aa576122aa613236565b90600052602060002090600402016001600481106122ca576122ca613236565b015411156124a05760116122df60018361329d565b815481106122ef576122ef613236565b60009182526020822060049091020101546019838154811061231357612313613236565b6000918252602082206004909102010155601161233160018361329d565b8154811061234157612341613236565b906000526020600020906004020160026004811061236157612361613236565b01546019838154811061237657612376613236565b906000526020600020906004020160016004811061239657612396613236565b015560116123a560018361329d565b815481106123b5576123b5613236565b90600052602060002090600402016003600481106123d5576123d5613236565b0154601983815481106123ea576123ea613236565b906000526020600020906004020160026004811061240a5761240a613236565b0155601161241960018361329d565b8154811061242957612429613236565b906000526020600020906004020160016004811061244957612449613236565b01546019838154811061245e5761245e613236565b906000526020600020906004020160036004811061247e5761247e613236565b01558161248a81613262565b925050808061249890613579565b915050612286565b505b601860194282805480602002602001604051908101604052809291908181526020016000905b82821015612519576000848152602090206040805160808101918290529160048581029091019182845b8154815260200190600101908083116124f2575050505050815260200190600101906124c8565b50505050925081805480602002602001604051908101604052809291908181526020016000905b82821015612591576000848152602090206040805160808101918290529160048581029091019182845b81548152602001906001019080831161256a57505050505081526020019060010190612540565b5050505091509550955095505050509193909250565b6000806125b383610b5e565b805160208201516040805181815260608101825293945091929091839183916000919060208201818036833701905050905060005b60208110156126425783816020811061260357612603613236565b1a60f81b82828151811061261957612619613236565b60200101906001600160f81b031916908160001a9053508061263a81613262565b9150506125e8565b5060205b60408110156126aa578261265b60208361329d565b6020811061266b5761266b613236565b1a60f81b82828151811061268157612681613236565b60200101906001600160f81b031916908160001a905350806126a281613262565b915050612646565b5060006002826040516126bd91906132e0565b602060405180830381855afa1580156126da573d6000803e3d6000fd5b5050506040513d601f19601f820116820180604052508101906126fd91906132fc565b9998505050505050505050565b81600a61271860018661329d565b8154811061272857612728613236565b600091825260208220019190915560015b600554811161279157600a61274f60018361329d565b8154811061275f5761275f613236565b906000526020600020015460001461277f578161277b81613262565b9250505b8061278981613262565b915050612739565b50600554810361130a5760408051808201909152600254815260035460208201526127c0906102db6005611bdd565b80516002556020015160035560015b6005548111612815576000600a6127e760018461329d565b815481106127f7576127f7613236565b6000918252602090912001558061280d81613262565b9150506127cf565b50604080516080810182526000848152600e602090815283822054835242908301526002549282019290925260035460608201526011805460018101825592526128879160049081027f31ecc21a745e3968a04e9570e4425bc18fa8019c68028196b546d1669c200c68019190612be6565b50604051600181527f228350e9fba4ca8cb2df19d985a1733382771e67c2d2d414501b28e9ae5e5a2490602001611172565b60008060405160208152602080820152602060408201528460608201526002840360808201528360a082015260208160c08360056107d05a03fa9051925090508061290357600080fd5b5092915050565b612912612bae565b61291a612c13565b835181526020808501519082015260408101839052600060608360808460076107d05a03fa9050808061294957fe5b508061295457600080fd5b505092915050565b600080612967612c87565b61296f612ca5565b602080825281810181905260408201819052606082018890526080820187905260a082018690528260c08360056107d05a03fa925082806129ac57fe5b50826129b757600080fd5b505195945050505050565b6129ca612bae565b5060408051808201909152600181526002602082015290565b6129eb612bae565b60008080612a076000805160206135b18339815191528661327b565b90505b612a1381612ae1565b90935091506000805160206135918339815191528283098303612a4c576040805180820190915290815260208101919091529392505050565b600080516020613591833981519152600182089050612a0a565b6004805460009182612a7783613262565b9091555050600454604080514260208201526001600160601b03193360601b169181019190915260548101919091526000805160206135b1833981519152906074016040516020818303038152906040528051906020012060001c612adc919061327b565b905090565b60008080600080516020613591833981519152600360008051602061359183398151915286600080516020613591833981519152888909090890506000612b57827f0c19139cb84c680a6e14116da060561765e05aa45a1c72a34f082305b61f3f5260008051602061359183398151915261295c565b91959194509092505050565b828054828255906000526020600020908101928215612b9e579160200282015b82811115612b9e578251825591602001919060010190612b83565b50612baa929150612cc3565b5090565b604051806040016040528060008152602001600081525090565b60405180604001604052806002906020820280368337509192915050565b8260048101928215612b9e5791602002820182811115612b9e578251825591602001919060010190612b83565b60405180606001604052806003906020820280368337509192915050565b828054828255906000526020600020906004028101928215612c7b579160200282015b82811115612c7b578251612c6b9083906003612be6565b5091602001919060040190612c54565b50612baa929150612cd8565b60405180602001604052806001906020820280368337509192915050565b6040518060c001604052806006906020820280368337509192915050565b5b80821115612baa5760008155600101612cc4565b80821115612baa57600080825560018201819055600282018190556003820155600401612cd8565b60008060408385031215612d1357600080fd5b50508035926020909101359150565b634e487b7160e01b600052604160045260246000fd5b604080519081016001600160401b0381118282101715612d5a57612d5a612d22565b60405290565b604051601f8201601f191681016001600160401b0381118282101715612d8857612d88612d22565b604052919050565b60006001600160401b03821115612da957612da9612d22565b5060051b60200190565b600082601f830112612dc457600080fd5b81356020612dd9612dd483612d90565b612d60565b82815260059290921b84018101918181019086841115612df857600080fd5b8286015b84811015612e135780358352918301918301612dfc565b509695505050505050565b60008060408385031215612e3157600080fd5b82356001600160401b03811115612e4757600080fd5b612e5385828601612db3565b95602094909401359450505050565b600060408284031215612e7457600080fd5b612e7c612d38565b9050813581526020820135602082015292915050565b600060408284031215612ea457600080fd5b612eae8383612e62565b9392505050565b60008060008060808587031215612ecb57600080fd5b5050823594602084013594506040840135936060013592509050565b600060208284031215612ef957600080fd5b81356001600160401b03811115612f0f57600080fd5b612f1b84828501612db3565b949350505050565b600081518084526020808501945080840160005b83811015612f5357815187529582019590820190600101612f37565b509495945050505050565b602081526000612eae6020830184612f23565b815181526020808301519082015260408101610375565b600082601f830112612f9957600080fd5b81356020612fa9612dd483612d90565b82815260069290921b84018101918181019086841115612fc857600080fd5b8286015b84811015612e1357612fde8882612e62565b835291830191604001612fcc565b600080600080600080610120878903121561300657600080fd5b86356001600160401b038082111561301d57600080fd5b818901915089601f83011261303157600080fd5b813560208282111561304557613045612d22565b613057601f8301601f19168201612d60565b8281528c8284870101111561306b57600080fd5b8282860183830137600092810182019290925290985089013596506130938a60408b01612e62565b95506130a28a60808b01612e62565b94506130b18a60c08b01612e62565b93506101008901359150808211156130c857600080fd5b506130d589828a01612f88565b9150509295509295509295565b6000806000606084860312156130f757600080fd5b505081359360208301359350604090920135919050565b6040815260006131216040830185612f23565b82810360208401526131338185612f23565b95945050505050565b60006020828403121561314e57600080fd5b81356001600160401b0381111561316457600080fd5b612f1b84828501612f88565b60006020828403121561318257600080fd5b5035919050565b60008151808452602080850194508084016000805b848110156131de57825188835b60048110156131c8578251825291860191908601906001016131ab565b505050608097909701969183019160010161319e565b50959695505050505050565b6060815260006131fd6060830186613189565b828103602084015261320f8186613189565b915050826040830152949350505050565b634e487b7160e01b600052601260045260246000fd5b634e487b7160e01b600052603260045260246000fd5b634e487b7160e01b600052601160045260246000fd5b6000600182016132745761327461324c565b5060010190565b60008261329857634e487b7160e01b600052601260045260246000fd5b500690565b6000828210156132af576132af61324c565b500390565b60005b838110156132cf5781810151838201526020016132b7565b8381111561130a5750506000910152565b600082516132f28184602087016132b4565b9190910192915050565b60006020828403121561330e57600080fd5b5051919050565b60208152600082518060208401526133348160408501602087016132b4565b601f01601f19169190910160400192915050565b6000602080838503121561335b57600080fd5b82516001600160401b0381111561337157600080fd5b8301601f8101851361338257600080fd5b8051613390612dd482612d90565b81815260069190911b820183019083810190878311156133af57600080fd5b928401925b828410156133f257604084890312156133cd5760008081fd5b6133d5612d38565b8451815285850151868201528252604090930192908401906133b4565b979650505050505050565b8060005b600281101561130a578151845260209384019390910190600101613401565b6000815480845260208085019450836000528060002060005b83811015612f5357815487529582019560019182019101613439565b60006101408c8352602081818501526134708285018e612f23565b9150604084830381860152613485838e612f23565b92508483036060860152613499838d612f23565b85810360808701528b51808252838d0194509083019060005b818110156134d5576134c58387516133fd565b94840194918301916001016134b2565b505085810360a08701526134e9818c612f23565b935050505082810360c08401526135008188613420565b905082810360e08401526135148187613420565b90508281036101008401526135298186613420565b915050826101208301529b9a5050505050505050505050565b60e0810161355082886133fd565b61355d60408301876133fd565b8460808301528360a08301528260c08301529695505050505050565b6000816135885761358861324c565b50600019019056fe30644e72e131a029b85045b68181585d97816a916871ca8d3c208c16d87cfd4730644e72e131a029b85045b68181585d2833e84879b9709143e1f593f0000001a26469706673582212205b6f86e2b5e4882528fa890c9ef57796eb8a951b8e3ce0ba15f65e0e7a66787964736f6c634300080d0033",
  "immutableReferences": {},
  "source": "// SPDX-License-Identifier: GPL-3.0\npragma solidity >=0.7.0 <0.9.0;\nimport { G } from \"../libraries/G.sol\";\nimport {Params } from \"./Params.sol\";\ncontract Accumulator{\n\n    address private owner;\n    Params private params;\n    G.G1Point private delta;\n    uint randNonce = 0;\n    uint private no;\n    uint private to;\n    uint private nv;\n    uint private tv;\n    //uint256[] private validators_share;\n    //uint256[] private openers_share;\n    uint256[] private accumulator_key_shares;\n    uint256[] private delta_shares;\n    uint256[] private combine_di;\n    uint256[] private combine_ei;\n    uint256[] private combine_si;\n    mapping(uint256 => uint256) private id_kr;\n    mapping(uint256 => uint256) private flag;\n    uint256[4][] whitelist;\n    uint256[4][] blacklist;\n    uint256[] a_poly;\n    uint256[] b_poly;\n    uint256[] c_poly;\n    uint256[] a_share;\n    uint256[] b_share;\n    uint256[] c_share;\n    uint256[4][] wl;\n    uint256[4][] bl;\n    constructor(Params _params) {\n        owner = msg.sender;\n        params = _params;  \n    }\n\n    modifier onlyOwner {\n        require(msg.sender == owner);\n        _;\n    }\n    \n    event send_W_kr(uint256[2] W,uint256[2] del, uint256 request_id, uint256 kr, uint256 timestamp);\n    //event send_W_kr(uint256[2] W,G.G1Point delta, uint256 request_id);\n    event revocation_complete(uint256 c);\n    event send_d_and_e(uint256 d, uint256 e);\n    event send_s(uint256 s);\n    event send_updated_witness(G.G1Point delta);\n    event send_self_revocation(uint256 kr, uint256[] W,uint256[] H,uint256[] S, uint256[2][] cm, uint256[] g1_r, uint256[] a_share, uint256[] b_share, uint256[] c_share, uint256 t);\n\n    function lagrange_basis(uint[] memory indexes) public view returns(uint256[] memory){\n            uint256 o = G.GEN_ORDER;\n            uint256[] memory l = new uint256[](indexes.length);\n            for(uint a=0; a<indexes.length; a++){\n                uint256 numerator =1;\n                uint256 denominator = 1;\n                for(uint b=0;b<indexes.length; b++){\n                    uint256 i = indexes[a];\n                    uint256 j = indexes[b];\n                    if (j > i){\n                        numerator = mulmod(numerator, j, o);\n                        denominator = mulmod(denominator, (j-i), o);\n                    }\n                    else if(j < i){\n                        numerator = mulmod(o - j,numerator, o);\n                        denominator = mulmod(denominator, (i-j), o);\n                    }\n                }\n                l[a] = mulmod(numerator, G._modInv(denominator, o), o);\n            }\n            return l;\n\n    }\n    // function genAggregatedYa() public view returns(G.G1Point memory){\n    //         uint256 [] memory indexes = new uint[](to);\n    //         uint256[2][] memory filter = new uint[2][](to);\n    //         uint u = 0;\n    //         for (uint i=1; i<=no; i++) \n    //         {\n    //             if(accumulator_key_shares[i] != 0){\n    //                 indexes[u] = i;\n    //                 filter[u] = accumulator_key_shares[i];\n    //                 u++;\n    //             }\n    //         }\n    //         uint256[] memory l = lagrange_basis(indexes);\n    //         uint256 aggr_ka = 0;\n    //         // aggr_ka.X = filter[0][0];\n    //         // aggr_ka.Y = filter[0][1];\n    //         // aggr_ka = G.g1mul(aggr_ka, l[0]);\n    //         for (uint i=0; i<indexes.length; i++){\n    //             // G.G1Point memory tmp;\n    //             // tmp.X = filter[i][0];\n    //             // tmp.Y = filter[i][1];\n    //             //aggr_ka = G.g1add(aggr_ka ,(G.g1mul(tmp, l[i])));\n    //             aggr_ka = aggr_ka + mulmod(l[i], accumulator_key_shares[indexes[i]-1],G.GEN_ORDER)\n    //         }\n    //         return aggr_ka;\n    // }\n\n    // function genAggregatedYa_2() public view returns(G.G1Point memory){\n    //         uint256 [] memory indexes = new uint[](to);\n    //         uint256[2][] memory filter = new uint[2][](to);\n    //         uint u = 0;\n    //         for (uint i=1; i<=no; i++) \n    //         {\n    //             if(delta_shares[i]!= 0){\n    //                 indexes[u] = i;\n    //                 filter[u] = delta_shares[i];\n    //                 u++;\n    //             }\n    //         }\n    //         uint256[] memory l = lagrange_basis(indexes);\n    //         uint256 aggr_ka;\n    //         // aggr_ka.X = filter[0][0];\n    //         // aggr_ka.Y = filter[0][1];\n    //         // aggr_ka = G.g1mul(aggr_ka, l[0]);\n    //         for (uint i=1; i<indexes.length; i++){\n    //             // G.G1Point memory tmp;\n    //             // tmp.X = filter[i][0];\n    //             // tmp.Y = filter[i][1];\n    //             // aggr_ka = G.g1add(aggr_ka ,(G.g1mul(tmp, l[i])));\n    //             aggr_ka = aggr_ka + mulmod(l[i], delta_shares[indexes[i]-1],G.GEN_ORDER)\n    //         }\n    //         return aggr_ka;\n    // }\n\n    function updateDelta(uint256 ya, uint256 kr) public {\n            delta = G.g1mul(delta, G._modInv(addmod(kr,ya,G.GEN_ORDER),G.GEN_ORDER));\n    }\n    function get_delta() public view returns(uint256, uint256){\n        return (delta.X, delta.Y);\n    }\n    function recieve_share_for_revocation(uint id, uint256 share, uint256 request_id) public {\n        //if(flag[request_id] == 2) return;\n\n        delta_shares[id-1]= share;\n        uint count = 0;\n        for (uint i=1; i<=no; i++) \n        {\n            if(delta_shares[i-1] != 0) count++;\n        }\n        if(count==no){\n            delta = G.g1mul(delta, aggregate_value(5));       \n            for (uint i=1; i<=no; i++) \n            {\n               delta_shares[i-1] = 0;\n            }\n\n            blacklist.push([id_kr[request_id],block.timestamp, delta.X, delta.Y]);\n            //flag[request_id] = 2;\n            emit revocation_complete(1);\n            //emit send_W_kr(W,request_id,id_kr[request_id], block.timestamp);\n        }\n    }\n\n    function aggregate_value(uint256 fl) view public returns(uint256){\n            uint256 [] memory indexes = new uint[](no);\n            uint256[] memory filter = new uint[](no);\n            uint256[] memory combine;\n            if(fl == 1) combine= combine_di;\n            else if(fl == 2) combine = combine_ei;\n            else if(fl == 3) combine = combine_si;\n            else if(fl == 4) combine = accumulator_key_shares;\n            else combine = delta_shares;\n            uint u = 0;\n            for (uint i=1; i<=no; i++) \n            {\n                if(combine[i-1] != 0){\n                    indexes[u] = i;\n                    filter[u] = combine[i-1];\n                    u++;\n                }\n            }\n            uint256[] memory l = lagrange_basis(indexes);\n            uint256 aggr = 0;\n            for (uint i=0; i<indexes.length; i++){\n                aggr = addmod(aggr, mulmod(filter[i], l[i], G.GEN_ORDER), G.GEN_ORDER);\n            }\n            return aggr;\n    }\n    function combine_di_and_ei(uint256 di, uint256 ei, uint256 id) public{\n            combine_di[id-1] = di;\n            combine_ei[id-1] = ei;\n            uint count = 0;\n            for (uint i=1; i<=no; i++)\n            {\n                if(combine_di[i-1] != 0) count++;\n            }\n            if(count==no){\n                uint256 d = aggregate_value(1);\n                uint256 e = aggregate_value(2);\n\n                for (uint i=1; i<=no; i++) \n                {\n                    combine_di[i-1] = 0;\n                    combine_ei[i-1] = 0;\n                }\n                emit send_d_and_e(d,e);\n            }\n    }\n    function combine_func_si(uint256 si, uint256 id) public{\n            combine_si[id-1] = si;\n            uint count = 0;\n            for (uint i=1; i<=no; i++)\n            {\n                if(combine_si[i-1] != 0) count++;\n            }\n            if(count==no){\n                uint256 s = aggregate_value(3);\n\n                for (uint i=1; i<=no; i++) \n                {\n                    combine_si[i-1] = 0;\n                }\n                emit send_s(s);\n            }\n    }\n    function gen_beaver_tuples(G.G1Point[] memory pub_key) public returns (G.G1Point memory, uint256){\n        uint256 a = gen_random();\n        uint256 b = gen_random();\n        uint256 r = gen_random();\n        uint256 c = mulmod(a, b, G.GEN_ORDER);\n\n        G.G1Point[] memory y_r = new G.G1Point[](no);\n        a_poly[0] = a;\n        b_poly[0] = b;\n        c_poly[0] = c;\n        for(uint i=1; i<to; i++){\n            a_poly[i] = gen_random();\n            b_poly[i] = gen_random();\n            c_poly[i] = gen_random();\n        }\n        G.G1Point memory G1_r = G.g1mul(G.P1(), r);\n        for(uint i=1; i<=no; i++){\n            y_r[i-1] = G.g1mul(pub_key[i-1], r);\n        }\n        uint256 t;\n        for(uint i=1; i<=no; i++){\n            t = hash_to_int_2(y_r[i-1]);\n            uint256 a1 = gen_share(a_poly,i);\n            uint256 b1 = gen_share(b_poly,i);\n            uint256 c1 = gen_share(c_poly,i);\n            a_share[i-1] = t^a1;\n            b_share[i-1] = t^b1;\n            c_share[i-1] = t^c1; \n        }\n        // for(uint i=0; i<no; i++){\n        //     a_poly[i] = 0; b_poly[i] = 0; c_poly[i] = 0;\n        //     // a_share[i] = 0; b_share[i] = 0; c_share[i] = 0;\n        // }\n        return (G1_r,t);\n    }\n\n    function verify_revocation_request( string memory name, uint256 kr,  G.G1Point memory witness, G.G1Point memory H, G.G1Point memory S, G.G1Point[] memory commitments) public{\n           G.G1Point[] memory r = params.get_bpk(name);\n            (G.G1Point memory s, uint256 t) = gen_beaver_tuples(r);\n            //G.G1Point memory s = G.P1();\n            uint256[] memory ab = new uint256[](2);\n            uint256[] memory a = new uint256[](2);\n            uint256[] memory b = new uint256[](2);\n            uint256[] memory c = new uint256[](2);\n            uint256[2][] memory cm = new uint256[2][](commitments.length);\n            a[0] = witness.X;\n            a[1] = witness.Y;\n            ab[0] = s.X;ab[1] = s.Y;\n            b[0] = H.X;\n            b[1] = H.Y;\n            c[0] = S.X;\n            c[1] = S.Y;\n            for(uint i =0;i<commitments.length;i++){\n                cm[i][0] = commitments[i].X;\n                cm[i][1] = commitments[i].Y;\n            }\n            \n            emit send_self_revocation(kr,a, b,c, cm,ab,a_share, b_share, c_share,t);\n\n    }\n    function hash_to_G1(G.G1Point memory m) public view returns (G.G1Point memory){\n        uint256 cm = m.X;\n        uint256 cm2 = m.Y;\n        bytes32 bcm = bytes32(cm);\n        bytes32 bcm2 = bytes32(cm2);\n        bytes memory c = new bytes(64);\n        for(uint i=0;i<32;i++){\n            c[i] = bcm[i];\n        }\n        for(uint j=32;j<64;j++){\n            c[j] = bcm2[j-32];\n        }\n        uint256 id = uint256(sha256(c));\n        return G.HashToPoint(id);\n    }\n\n    function hash_to_int(G.G1Point memory a) public view returns(uint256){\n        G.G1Point memory b = hash_to_G1(a);\n        uint256 cm = b.X;\n        uint256 cm2 = b.Y;\n        bytes32 bcm = bytes32(cm);\n        bytes32 bcm2 = bytes32(cm2);\n        bytes memory c = new bytes(64);\n        for(uint i=0;i<32;i++){\n            c[i] = bcm[i];\n        }\n        for(uint j=32;j<64;j++){\n            c[j] = bcm2[j-32];\n        }\n        uint256 id = uint256(sha256(c));\n        return id;\n    }\n\n    function hash_to_int_2(G.G1Point memory a) public pure returns(uint256){\n        uint256 cm = a.X;\n        uint256 cm2 = a.Y;\n        bytes32 bcm = bytes32(cm);\n        bytes32 bcm2 = bytes32(cm2);\n        bytes memory c = new bytes(64);\n        for(uint i=0;i<32;i++){\n            c[i] = bcm[i];\n        }\n        for(uint j=32;j<64;j++){\n            c[j] = bcm2[j-32];\n        }\n        uint256 id = uint256(sha256(c));\n        return id;\n    }\n\n    function recieve_ya_share(uint id, uint256 share, uint256 request_id) public {\n        //if(flag[request_id] == 1) return;\n\n        accumulator_key_shares[id-1]= share;\n        uint count = 0;\n        for (uint i=0; i<no; i++) \n        {\n            if(accumulator_key_shares[i] != 0) count++;\n        }\n        if(count==no){\n            uint256[2] memory W = [delta.X,delta.Y];\n\n            delta = G.g1mul(delta,aggregate_value(4));       \n            for (uint i=1; i<=no; i++) \n            {\n               accumulator_key_shares[i-1] = 0;\n            }\n            uint256[2] memory del = [delta.X,delta.Y];\n            whitelist.push([id_kr[request_id],block.timestamp, W[0],W[1]]);\n            //flag[request_id] = 1;\n            emit send_W_kr(W,del,request_id,id_kr[request_id], block.timestamp);\n            //emit send_W_kr(W_m,delta,request_id);\n        }\n        \n    }\n\n    function updateWitness(uint256 time) public returns (uint256[4][] memory, uint256[4][] memory, uint256){\n            uint256 wl_size = whitelist.length;\n            uint256 bl_size = blacklist.length;\n            wl = new uint256[3][](wl_size);\n            bl = new uint256[3][](bl_size);\n            uint256 c = 0;\n            \n            if(wl_size > 0){\n                for(uint i = wl_size; i>0;i--){\n                    if(whitelist[i-1][1] <= time) break;\n                    wl[c][0] = whitelist[i-1][0];\n                    wl[c][1] = whitelist[i-1][2];\n                    wl[c][2] = whitelist[i-1][3];\n                    wl[c][3] = whitelist[i-1][1];\n                    c++;\n                }\n            }\n            c = 0;\n            if(bl_size > 0){\n                for(uint i = bl_size; i>0;i--){\n                    if(blacklist[i-1][1] <= time) break;\n                    bl[c][0] = blacklist[i-1][0];\n                    bl[c][1] = blacklist[i-1][2];\n                    bl[c][2] = blacklist[i-1][3];\n                    bl[c][3] = blacklist[i-1][1];\n                    c++;\n                }\n            }\n            //return (whitelist, blacklist, time);\n            return (wl,bl,block.timestamp);\n    }\n    function set_accumulator(uint _no,uint _to,uint _nv,uint _tv) public {\n        delta = G.P1();\n        no = _no;\n        nv = _nv;\n        to = _to;\n        tv = _tv;\n        a_poly = new uint256[](to);\n        b_poly = new uint256[](to);\n        c_poly = new uint256[](to);\n        a_share = new uint256[](no);\n        b_share = new uint256[](no);\n        c_share = new uint256[](no);\n        combine_di = new uint256[](no);\n        combine_ei = new uint256[](no);\n        combine_si = new uint256[](no);\n        accumulator_key_shares = new uint256[](no);\n        delta_shares = new uint256[](no);\n        for (uint i=1; i<=no; i++) \n        {\n            accumulator_key_shares[i-1] = 0;\n            delta_shares[i-1] = 0;\n            combine_di[i-1] = 0;combine_ei[i-1] = 0;combine_si[i-1] = 0;\n        }\n    }\n\n    function gen_share(uint256[] memory array, uint x) public view returns(uint256){\n        uint256 ans = 0;\n        uint256 o = G.GEN_ORDER;\n        for(uint i=0; i<array.length; i++){\n            ans = addmod(ans , mulmod(array[i],G.expMod(x,i,o),o),o); \n        }\n        return ans % o;\n    }\n\n    function generate_kr_shares(G.G1Point memory cm) public returns(uint256[] memory, uint256[] memory) {\n        uint256[] memory poly_validators = new uint256[](tv);\n        uint256[] memory poly_openers = new uint256[](to);\n        uint256[] memory validators_share = new uint256[](nv);\n        uint256[] memory openers_share = new uint256[](no);\n        uint256 kr = gen_random();\n        id_kr[hash_to_int(cm)] = kr;\n        \n        poly_validators[0] = kr;\n        poly_openers[0] = kr;\n        for(uint i=1; i<tv; i++){\n            poly_validators[i] = gen_random();\n        }\n        for(uint i=1; i<to; i++){\n            poly_openers[i] = gen_random();\n        }\n\n        for(uint i=1; i<=nv; i++){\n            validators_share[i-1] = gen_share(poly_validators,i);\n        }\n        for(uint i=1; i<=no; i++){\n            openers_share[i-1] = gen_share(poly_openers,i);\n        }\n        return (validators_share, openers_share);\n    }\n\n    function gen_random() private returns(uint256){\n        randNonce++;\n        return uint256(keccak256(abi.encodePacked(block.timestamp,msg.sender,randNonce))) % G.GEN_ORDER;\n    }\n}",
  "sourcePath": "/home/neel/acad/DTRAC/RAVC2/Admin/Blockchain/contracts/Accumulator.sol",
  "compiler": {
    "name": "solc",
    "version": "0.8.13+commit.abaa5c0e.Emscripten.clang"
  },
  "schemaVersion": "3.4.13",
  "updatedAt": "2023-08-11T04:09:35.833Z",
  "networkType": "ethereum",
  "devdoc": {
    "kind": "dev",
    "methods": {},
    "version": 1
  },
  "userdoc": {
    "kind": "user",
    "methods": {},
    "version": 1
  }
}